{"contracts/SimpleAssetEscrow.sol":{"SimpleAssetEscrow":{"abi":[{"inputs":[{"internalType":"address","name":"_centralAuthority","type":"address"},{"internalType":"address","name":"_feeCollector","type":"address"},{"internalType":"address","name":"_owner","type":"address"}],"stateMutability":"nonpayable","type":"constructor"},{"inputs":[{"internalType":"address","name":"owner","type":"address"}],"name":"OwnableInvalidOwner","type":"error"},{"inputs":[{"internalType":"address","name":"account","type":"address"}],"name":"OwnableUnauthorizedAccount","type":"error"},{"inputs":[],"name":"ReentrancyGuardReentrantCall","type":"error"},{"anonymous":false,"inputs":[{"indexed":true,"internalType":"uint256","name":"orderId","type":"uint256"}],"name":"AssetsDelivered","type":"event"},{"anonymous":false,"inputs":[{"indexed":true,"internalType":"uint256","name":"orderId","type":"uint256"}],"name":"OrderCancelled","type":"event"},{"anonymous":false,"inputs":[{"indexed":true,"internalType":"uint256","name":"orderId","type":"uint256"}],"name":"OrderCompleted","type":"event"},{"anonymous":false,"inputs":[{"indexed":true,"internalType":"uint256","name":"orderId","type":"uint256"},{"indexed":true,"internalType":"address","name":"buyer","type":"address"},{"indexed":true,"internalType":"address","name":"seller","type":"address"}],"name":"OrderCreated","type":"event"},{"anonymous":false,"inputs":[{"indexed":true,"internalType":"uint256","name":"orderId","type":"uint256"},{"indexed":true,"internalType":"address","name":"verifier","type":"address"}],"name":"OrderVerified","type":"event"},{"anonymous":false,"inputs":[{"indexed":true,"internalType":"address","name":"previousOwner","type":"address"},{"indexed":true,"internalType":"address","name":"newOwner","type":"address"}],"name":"OwnershipTransferred","type":"event"},{"anonymous":false,"inputs":[{"indexed":true,"internalType":"uint256","name":"orderId","type":"uint256"},{"indexed":false,"internalType":"uint256","name":"amount","type":"uint256"}],"name":"PaymentDeposited","type":"event"},{"inputs":[{"internalType":"uint256","name":"orderId","type":"uint256"}],"name":"cancelOrder","outputs":[],"stateMutability":"nonpayable","type":"function"},{"inputs":[],"name":"centralAuthority","outputs":[{"internalType":"contract SimpleCentralAuthority","name":"","type":"address"}],"stateMutability":"view","type":"function"},{"inputs":[{"internalType":"address","name":"seller","type":"address"},{"internalType":"address","name":"paymentToken","type":"address"},{"internalType":"address[]","name":"assetTokens","type":"address[]"},{"internalType":"uint256[]","name":"assetAmounts","type":"uint256[]"},{"internalType":"uint256","name":"paymentAmount","type":"uint256"},{"internalType":"uint256","name":"expirationTime","type":"uint256"}],"name":"createOrder","outputs":[{"internalType":"uint256","name":"","type":"uint256"}],"stateMutability":"nonpayable","type":"function"},{"inputs":[{"internalType":"uint256","name":"orderId","type":"uint256"}],"name":"deliverAssets","outputs":[],"stateMutability":"nonpayable","type":"function"},{"inputs":[{"internalType":"uint256","name":"orderId","type":"uint256"}],"name":"depositPayment","outputs":[],"stateMutability":"nonpayable","type":"function"},{"inputs":[],"name":"feeCollector","outputs":[{"internalType":"address","name":"","type":"address"}],"stateMutability":"view","type":"function"},{"inputs":[],"name":"feePercentage","outputs":[{"internalType":"uint256","name":"","type":"uint256"}],"stateMutability":"view","type":"function"},{"inputs":[{"internalType":"uint256","name":"orderId","type":"uint256"}],"name":"getOrder","outputs":[{"components":[{"internalType":"address","name":"buyer","type":"address"},{"internalType":"address","name":"seller","type":"address"},{"internalType":"address","name":"paymentToken","type":"address"},{"internalType":"address[]","name":"assetTokens","type":"address[]"},{"internalType":"uint256[]","name":"assetAmounts","type":"uint256[]"},{"internalType":"uint256","name":"paymentAmount","type":"uint256"},{"internalType":"uint256","name":"expirationTime","type":"uint256"},{"internalType":"bool","name":"paymentDeposited","type":"bool"},{"internalType":"bool","name":"assetsDelivered","type":"bool"},{"internalType":"bool","name":"buyerVerified","type":"bool"},{"internalType":"bool","name":"sellerVerified","type":"bool"},{"internalType":"bool","name":"authorityVerified","type":"bool"},{"internalType":"bool","name":"completed","type":"bool"},{"internalType":"bool","name":"cancelled","type":"bool"}],"internalType":"struct SimpleAssetEscrow.Order","name":"","type":"tuple"}],"stateMutability":"view","type":"function"},{"inputs":[],"name":"orderCounter","outputs":[{"internalType":"uint256","name":"","type":"uint256"}],"stateMutability":"view","type":"function"},{"inputs":[{"internalType":"uint256","name":"","type":"uint256"}],"name":"orders","outputs":[{"internalType":"address","name":"buyer","type":"address"},{"internalType":"address","name":"seller","type":"address"},{"internalType":"address","name":"paymentToken","type":"address"},{"internalType":"uint256","name":"paymentAmount","type":"uint256"},{"internalType":"uint256","name":"expirationTime","type":"uint256"},{"internalType":"bool","name":"paymentDeposited","type":"bool"},{"internalType":"bool","name":"assetsDelivered","type":"bool"},{"internalType":"bool","name":"buyerVerified","type":"bool"},{"internalType":"bool","name":"sellerVerified","type":"bool"},{"internalType":"bool","name":"authorityVerified","type":"bool"},{"internalType":"bool","name":"completed","type":"bool"},{"internalType":"bool","name":"cancelled","type":"bool"}],"stateMutability":"view","type":"function"},{"inputs":[],"name":"owner","outputs":[{"internalType":"address","name":"","type":"address"}],"stateMutability":"view","type":"function"},{"inputs":[],"name":"renounceOwnership","outputs":[],"stateMutability":"nonpayable","type":"function"},{"inputs":[{"internalType":"address","name":"newFeeCollector","type":"address"}],"name":"setFeeCollector","outputs":[],"stateMutability":"nonpayable","type":"function"},{"inputs":[{"internalType":"uint256","name":"newFeePercentage","type":"uint256"}],"name":"setFeePercentage","outputs":[],"stateMutability":"nonpayable","type":"function"},{"inputs":[{"internalType":"address","name":"newOwner","type":"address"}],"name":"transferOwnership","outputs":[],"stateMutability":"nonpayable","type":"function"},{"inputs":[{"internalType":"uint256","name":"orderId","type":"uint256"}],"name":"verifyOrder","outputs":[],"stateMutability":"nonpayable","type":"function"}],"evm":{"bytecode":{"linkReferences":{},"object":"608060405260646006553480156200001657600080fd5b5060405162001f8238038062001f8283398101604081905262000039916200011c565b6001600055806001600160a01b0381166200006e57604051631e4fbdf760e01b81526000600482015260240160405180910390fd5b6200007981620000ad565b5050600480546001600160a01b039384166001600160a01b0319918216179091556005805492909316911617905562000166565b600180546001600160a01b038381166001600160a01b0319831681179093556040519116919082907f8be0079c531659141344cd1fd0a4f28419497f9722a3daafe3b4186f6b6457e090600090a35050565b80516001600160a01b03811681146200011757600080fd5b919050565b6000806000606084860312156200013257600080fd5b6200013d84620000ff565b92506200014d60208501620000ff565b91506200015d60408501620000ff565b90509250925092565b611e0c80620001766000396000f3fe608060405234801561001057600080fd5b50600436106101005760003560e01c8063a42dce8011610097578063c415b95c11610066578063c415b95c146102e4578063d09ef241146102f7578063e77ff2f614610317578063f2fde38b1461032a57600080fd5b8063a42dce80146101af578063a85c38ef146101c2578063ae06c1b7146102c8578063b789bf52146102db57600080fd5b8063715018a6116100d3578063715018a6146101535780638da5cb5b1461015b5780638e8f311214610185578063a001ecdd146101a657600080fd5b806308c5e40014610105578063347dd4f01461011a578063514fcac71461012d5780636b749c4714610140575b600080fd5b610118610113366004611934565b61033d565b005b610118610128366004611934565b610614565b61011861013b366004611934565b610893565b61011861014e366004611934565b610ba2565b610118610db5565b6001546001600160a01b03165b6040516001600160a01b0390911681526020015b60405180910390f35b610198610193366004611a3f565b610dc9565b60405190815260200161017c565b61019860065481565b6101186101bd366004611b34565b611267565b6102546101d0366004611934565b60026020819052600091825260409091208054600182015492820154600583015460068401546007909401546001600160a01b03938416958416949390921692909160ff808216916101008104821691620100008204811691630100000081048216916401000000008204811691600160281b8104821691600160301b909104168c565b604080516001600160a01b039d8e1681529b8d1660208d015299909b16988a01989098526060890196909652608088019490945291151560a0870152151560c0860152151560e08501521515610100840152151561012083015215156101408201529015156101608201526101800161017c565b6101186102d6366004611934565b6112df565b61019860035481565b600554610168906001600160a01b031681565b61030a610305366004611934565b61132d565b60405161017c9190611bca565b600454610168906001600160a01b031681565b610118610338366004611b34565b611520565b61034561155b565b600081815260026020526040902060018101546001600160a01b031633146103b45760405162461bcd60e51b815260206004820152601e60248201527f4f6e6c792073656c6c65722063616e2064656c6976657220617373657473000060448201526064015b60405180910390fd5b600781015460ff166104005760405162461bcd60e51b815260206004820152601560248201527414185e5b595b9d081b9bdd0819195c1bdcda5d1959605a1b60448201526064016103ab565b6007810154610100900460ff161561045a5760405162461bcd60e51b815260206004820152601860248201527f41737365747320616c72656164792064656c697665726564000000000000000060448201526064016103ab565b6007810154600160301b900460ff16156104a85760405162461bcd60e51b815260206004820152600f60248201526e13dc99195c8818d85b98d95b1b1959608a1b60448201526064016103ab565b806006015442106104cb5760405162461bcd60e51b81526004016103ab90611cf6565b60005b60038201548110156105c9578160030181815481106104ef576104ef611d1d565b9060005260206000200160009054906101000a90046001600160a01b03166001600160a01b03166323b872dd333085600401858154811061053257610532611d1d565b6000918252602090912001546040516001600160e01b031960e086901b1681526001600160a01b03938416600482015292909116602483015260448201526064016020604051808303816000875af1158015610592573d6000803e3d6000fd5b505050506040513d601f19601f820116820180604052508101906105b69190611d33565b50806105c181611d6b565b9150506104ce565b5060078101805461ff00191661010017905560405182907fa0669241c22bd4862d306992bb0da2e2490d44d16ff4d016469c95f97799193590600090a2506106116001600055565b50565b6000818152600260205260409020600781015460ff16801561063f57506007810154610100900460ff165b61068b5760405162461bcd60e51b815260206004820181905260248201527f4f72646572206e6f7420726561647920666f7220766572696669636174696f6e60448201526064016103ab565b6007810154600160281b900460ff161580156106b357506007810154600160301b900460ff16155b6106ff5760405162461bcd60e51b815260206004820152601760248201527f4f7264657220616c72656164792066696e616c697a656400000000000000000060448201526064016103ab565b806006015442106107225760405162461bcd60e51b81526004016103ab90611cf6565b80546001600160a01b0316330361074b5760078101805462ff00001916620100001790556107e7565b60018101546001600160a01b031633036107795760078101805463ff000000191663010000001790556107e7565b6004546001600160a01b031633036107a75760078101805464ff0000000019166401000000001790556107e7565b60405162461bcd60e51b81526020600482015260156024820152742ab730baba3437b934bd32b2103b32b934b334b2b960591b60448201526064016103ab565b604051339083907fccd8597797dde8d3c5e402f7d792fc38d3167e348c92801593f15bd4d535682790600090a3600781015460009062010000900460ff1615610838578061083481611d6b565b9150505b60078201546301000000900460ff161561085a578061085681611d6b565b9150505b6007820154640100000000900460ff161561087d578061087981611d6b565b9150505b6002811061088e5761088e83611585565b505050565b600081815260026020526040902080546001600160a01b03163314806108c5575060018101546001600160a01b031633145b806108da57506001546001600160a01b031633145b6109155760405162461bcd60e51b815260206004820152600c60248201526b155b985d5d1a1bdc9a5e995960a21b60448201526064016103ab565b6007810154600160281b900460ff16156109715760405162461bcd60e51b815260206004820152601760248201527f4f7264657220616c726561647920636f6d706c6574656400000000000000000060448201526064016103ab565b6007810154600160301b900460ff16156109cd5760405162461bcd60e51b815260206004820152601760248201527f4f7264657220616c72656164792063616e63656c6c656400000000000000000060448201526064016103ab565b60078101805466ff000000000000198116600160301b1790915560ff1615610a715760028101548154600583015460405163a9059cbb60e01b81526001600160a01b039283166004820152602481019190915291169063a9059cbb906044016020604051808303816000875af1158015610a4b573d6000803e3d6000fd5b505050506040513d601f19601f82011682018060405250810190610a6f9190611d33565b505b6007810154610100900460ff1615610b735760005b6003820154811015610b7157816003018181548110610aa757610aa7611d1d565b60009182526020909120015460018301546004840180546001600160a01b039384169363a9059cbb9316919085908110610ae357610ae3611d1d565b6000918252602090912001546040516001600160e01b031960e085901b1681526001600160a01b03909216600483015260248201526044016020604051808303816000875af1158015610b3a573d6000803e3d6000fd5b505050506040513d601f19601f82011682018060405250810190610b5e9190611d33565b5080610b6981611d6b565b915050610a86565b505b60405182907f61b9399f2f0f32ca39ce8d7be32caed5ec22fe07a6daba3a467ed479ec60658290600090a25050565b610baa61155b565b600081815260026020526040902080546001600160a01b03163314610c115760405162461bcd60e51b815260206004820152601e60248201527f4f6e6c792062757965722063616e206465706f736974207061796d656e74000060448201526064016103ab565b600781015460ff1615610c665760405162461bcd60e51b815260206004820152601960248201527f5061796d656e7420616c7265616479206465706f73697465640000000000000060448201526064016103ab565b6007810154600160301b900460ff1615610cb45760405162461bcd60e51b815260206004820152600f60248201526e13dc99195c8818d85b98d95b1b1959608a1b60448201526064016103ab565b80600601544210610cd75760405162461bcd60e51b81526004016103ab90611cf6565b600281015460058201546040516323b872dd60e01b815233600482015230602482015260448101919091526001600160a01b03909116906323b872dd906064016020604051808303816000875af1158015610d36573d6000803e3d6000fd5b505050506040513d601f19601f82011682018060405250810190610d5a9190611d33565b5060078101805460ff19166001179055600581015460405183917f6a7ac62510e3fd37d671bbf21ff3561ac1ba8b56ab899d4e30790a4ba4324e8591610da291815260200190565b60405180910390a2506106116001600055565b610dbd611800565b610dc7600061182d565b565b60006001600160a01b038716610e125760405162461bcd60e51b815260206004820152600e60248201526d24b73b30b634b21039b2b63632b960911b60448201526064016103ab565b6001600160a01b038616610e605760405162461bcd60e51b815260206004820152601560248201527424b73b30b634b2103830bcb6b2b73a103a37b5b2b760591b60448201526064016103ab565b8351855114610ea95760405162461bcd60e51b8152602060048201526015602482015274082e4e4c2f240d8cadccee8d040dad2e6dac2e8c6d605b1b60448201526064016103ab565b6000855111610ef05760405162461bcd60e51b8152602060048201526013602482015272139bc8185cdcd95d1cc81cdc1958da599a5959606a1b60448201526064016103ab565b60008311610f395760405162461bcd60e51b8152602060048201526016602482015275125b9d985b1a59081c185e5b595b9d08185b5bdd5b9d60521b60448201526064016103ab565b428211610f885760405162461bcd60e51b815260206004820152601760248201527f496e76616c69642065787069726174696f6e2074696d6500000000000000000060448201526064016103ab565b60048054604051637c1b2b9d60e01b81526001600160a01b038a811693820193909352911690637c1b2b9d90602401602060405180830381865afa158015610fd4573d6000803e3d6000fd5b505050506040513d601f19601f82011682018060405250810190610ff89190611d33565b61103a5760405162461bcd60e51b815260206004820152601360248201527214d95b1b195c881b9bdd08185c1c1c9bdd9959606a1b60448201526064016103ab565b600380546000918261104b83611d6b565b90915550604080516101c0810182523381526001600160a01b038b811660208084019182528c8316848601908152606085018d8152608086018d905260a086018c905260c086018b9052600060e08701819052610100870181905261012087018190526101408701819052610160870181905261018087018190526101a087018190528881526002808552979020865181549087166001600160a01b03199182161782559451600182018054918816918716919091179055915196820180549790951696909316959095179092555180519495509193611131926003850192019061187f565b506080820151805161114d9160048401916020909101906118e4565b5060a0820151600582015560c0820151600682015560e082015160079091018054610100808501516101208601516101408701516101608801516101808901516101a09099015161ffff1990961697151561ff001916979097179215159093029190911763ffff00001916620100009115159190910263ff0000001916176301000000911515919091021765ffff0000000019166401000000009315159390930265ff0000000000191692909217600160281b931515939093029290921766ff0000000000001916600160301b911515919091021790556040516001600160a01b03891690339083907fd4e0aaf5be9b8773c644dfebba8b63f878965712ad8589d85ca4bc9d1b671e2c90600090a4979650505050505050565b61126f611800565b6001600160a01b0381166112bd5760405162461bcd60e51b815260206004820152601560248201527424b73b30b634b2103332b29031b7b63632b1ba37b960591b60448201526064016103ab565b600580546001600160a01b0319166001600160a01b0392909216919091179055565b6112e7611800565b6103e88111156113285760405162461bcd60e51b815260206004820152600c60248201526b08ccaca40e8dede40d0d2ced60a31b60448201526064016103ab565b600655565b604080516101c0810182526000808252602082018190529181018290526060808201819052608082015260a0810182905260c0810182905260e08101829052610100810182905261012081018290526101408101829052610160810182905261018081018290526101a081019190915260008281526002602081815260409283902083516101c08101855281546001600160a01b0390811682526001830154811682850152938201549093168385015260038101805485518185028101850190965280865293949193606086019383018282801561143457602002820191906000526020600020905b81546001600160a01b03168152600190910190602001808311611416575b505050505081526020016004820180548060200260200160405190810160405280929190818152602001828054801561148c57602002820191906000526020600020905b815481526020019060010190808311611478575b5050509183525050600582015460208201526006820154604082015260079091015460ff808216151560608401526101008083048216151560808501526201000083048216151560a0850152630100000083048216151560c085015264010000000083048216151560e0850152600160281b83048216151590840152600160301b9091041615156101209091015292915050565b611528611800565b6001600160a01b03811661155257604051631e4fbdf760e01b8152600060048201526024016103ab565b6106118161182d565b60026000540361157e57604051633ee5aeb560e01b815260040160405180910390fd5b6002600055565b600081815260026020526040812060078101805465ff00000000001916600160281b1790556006546005820154919291612710916115c291611d84565b6115cc9190611da1565b905060008183600501546115e09190611dc3565b6002840154600185015460405163a9059cbb60e01b81526001600160a01b03918216600482015260248101849052929350169063a9059cbb906044016020604051808303816000875af115801561163b573d6000803e3d6000fd5b505050506040513d601f19601f8201168201806040525081019061165f9190611d33565b5081156116e357600283015460055460405163a9059cbb60e01b81526001600160a01b0391821660048201526024810185905291169063a9059cbb906044016020604051808303816000875af11580156116bd573d6000803e3d6000fd5b505050506040513d601f19601f820116820180604052508101906116e19190611d33565b505b60005b60038401548110156117ce5783600301818154811061170757611707611d1d565b60009182526020909120015484546004860180546001600160a01b039384169363a9059cbb931691908590811061174057611740611d1d565b6000918252602090912001546040516001600160e01b031960e085901b1681526001600160a01b03909216600483015260248201526044016020604051808303816000875af1158015611797573d6000803e3d6000fd5b505050506040513d601f19601f820116820180604052508101906117bb9190611d33565b50806117c681611d6b565b9150506116e6565b5060405184907f02a7d4d9472af7118644884b9a0ee443540c0027e938dd0aa35be8ecbe946c0a90600090a250505050565b6001546001600160a01b03163314610dc75760405163118cdaa760e01b81523360048201526024016103ab565b600180546001600160a01b038381166001600160a01b0319831681179093556040519116919082907f8be0079c531659141344cd1fd0a4f28419497f9722a3daafe3b4186f6b6457e090600090a35050565b8280548282559060005260206000209081019282156118d4579160200282015b828111156118d457825182546001600160a01b0319166001600160a01b0390911617825560209092019160019091019061189f565b506118e092915061191f565b5090565b8280548282559060005260206000209081019282156118d4579160200282015b828111156118d4578251825591602001919060010190611904565b5b808211156118e05760008155600101611920565b60006020828403121561194657600080fd5b5035919050565b80356001600160a01b038116811461196457600080fd5b919050565b634e487b7160e01b600052604160045260246000fd5b604051601f8201601f1916810167ffffffffffffffff811182821017156119a8576119a8611969565b604052919050565b600067ffffffffffffffff8211156119ca576119ca611969565b5060051b60200190565b600082601f8301126119e557600080fd5b813560206119fa6119f5836119b0565b61197f565b82815260059290921b84018101918181019086841115611a1957600080fd5b8286015b84811015611a345780358352918301918301611a1d565b509695505050505050565b60008060008060008060c08789031215611a5857600080fd5b611a618761194d565b95506020611a7081890161194d565b9550604088013567ffffffffffffffff80821115611a8d57600080fd5b818a0191508a601f830112611aa157600080fd5b8135611aaf6119f5826119b0565b81815260059190911b8301840190848101908d831115611ace57600080fd5b938501935b82851015611af357611ae48561194d565b82529385019390850190611ad3565b9850505060608a0135925080831115611b0b57600080fd5b5050611b1989828a016119d4565b9350506080870135915060a087013590509295509295509295565b600060208284031215611b4657600080fd5b611b4f8261194d565b9392505050565b600081518084526020808501945080840160005b83811015611b8f5781516001600160a01b031687529582019590820190600101611b6a565b509495945050505050565b600081518084526020808501945080840160005b83811015611b8f57815187529582019590820190600101611bae565b60208152611be46020820183516001600160a01b03169052565b60006020830151611c0060408401826001600160a01b03169052565b5060408301516001600160a01b03811660608401525060608301516101c0806080850152611c326101e0850183611b56565b91506080850151601f198584030160a0860152611c4f8382611b9a565b92505060a085015160c085015260c085015160e085015260e0850151610100611c7b8187018315159052565b8601519050610120611c908682018315159052565b8601519050610140611ca58682018315159052565b8601519050610160611cba8682018315159052565b8601519050610180611ccf8682018315159052565b86015190506101a0611ce48682018315159052565b90950151151593019290925250919050565b6020808252600d908201526c13dc99195c88195e1c1a5c9959609a1b604082015260600190565b634e487b7160e01b600052603260045260246000fd5b600060208284031215611d4557600080fd5b81518015158114611b4f57600080fd5b634e487b7160e01b600052601160045260246000fd5b600060018201611d7d57611d7d611d55565b5060010190565b8082028115828204841417611d9b57611d9b611d55565b92915050565b600082611dbe57634e487b7160e01b600052601260045260246000fd5b500490565b81810381811115611d9b57611d9b611d5556fea2646970667358221220dff6fc7e7f1326f1708c988cc5ec240870030a4325944010f9e45de724b8d7a264736f6c63430008140033","opcodes":"PUSH1 0x80 PUSH1 0x40 MSTORE PUSH1 0x64 PUSH1 0x6 SSTORE CALLVALUE DUP1 ISZERO PUSH3 0x16 JUMPI PUSH1 0x0 DUP1 REVERT JUMPDEST POP PUSH1 0x40 MLOAD PUSH3 0x1F82 CODESIZE SUB DUP1 PUSH3 0x1F82 DUP4 CODECOPY DUP2 ADD PUSH1 0x40 DUP2 SWAP1 MSTORE PUSH3 0x39 SWAP2 PUSH3 0x11C JUMP JUMPDEST PUSH1 0x1 PUSH1 0x0 SSTORE DUP1 PUSH1 0x1 PUSH1 0x1 PUSH1 0xA0 SHL SUB DUP2 AND PUSH3 0x6E JUMPI PUSH1 0x40 MLOAD PUSH4 0x1E4FBDF7 PUSH1 0xE0 SHL DUP2 MSTORE PUSH1 0x0 PUSH1 0x4 DUP3 ADD MSTORE PUSH1 0x24 ADD PUSH1 0x40 MLOAD DUP1 SWAP2 SUB SWAP1 REVERT JUMPDEST PUSH3 0x79 DUP2 PUSH3 0xAD JUMP JUMPDEST POP POP PUSH1 0x4 DUP1 SLOAD PUSH1 0x1 PUSH1 0x1 PUSH1 0xA0 SHL SUB SWAP4 DUP5 AND PUSH1 0x1 PUSH1 0x1 PUSH1 0xA0 SHL SUB NOT SWAP2 DUP3 AND OR SWAP1 SWAP2 SSTORE PUSH1 0x5 DUP1 SLOAD SWAP3 SWAP1 SWAP4 AND SWAP2 AND OR SWAP1 SSTORE PUSH3 0x166 JUMP JUMPDEST PUSH1 0x1 DUP1 SLOAD PUSH1 0x1 PUSH1 0x1 PUSH1 0xA0 SHL SUB DUP4 DUP2 AND PUSH1 0x1 PUSH1 0x1 PUSH1 0xA0 SHL SUB NOT DUP4 AND DUP2 OR SWAP1 SWAP4 SSTORE PUSH1 0x40 MLOAD SWAP2 AND SWAP2 SWAP1 DUP3 SWAP1 PUSH32 0x8BE0079C531659141344CD1FD0A4F28419497F9722A3DAAFE3B4186F6B6457E0 SWAP1 PUSH1 0x0 SWAP1 LOG3 POP POP JUMP JUMPDEST DUP1 MLOAD PUSH1 0x1 PUSH1 0x1 PUSH1 0xA0 SHL SUB DUP2 AND DUP2 EQ PUSH3 0x117 JUMPI PUSH1 0x0 DUP1 REVERT JUMPDEST SWAP2 SWAP1 POP JUMP JUMPDEST PUSH1 0x0 DUP1 PUSH1 0x0 PUSH1 0x60 DUP5 DUP7 SUB SLT ISZERO PUSH3 0x132 JUMPI PUSH1 0x0 DUP1 REVERT JUMPDEST PUSH3 0x13D DUP5 PUSH3 0xFF JUMP JUMPDEST SWAP3 POP PUSH3 0x14D PUSH1 0x20 DUP6 ADD PUSH3 0xFF JUMP JUMPDEST SWAP2 POP PUSH3 0x15D PUSH1 0x40 DUP6 ADD PUSH3 0xFF JUMP JUMPDEST SWAP1 POP SWAP3 POP SWAP3 POP SWAP3 JUMP JUMPDEST PUSH2 0x1E0C DUP1 PUSH3 0x176 PUSH1 0x0 CODECOPY PUSH1 0x0 RETURN INVALID PUSH1 0x80 PUSH1 0x40 MSTORE CALLVALUE DUP1 ISZERO PUSH2 0x10 JUMPI PUSH1 0x0 DUP1 REVERT JUMPDEST POP PUSH1 0x4 CALLDATASIZE LT PUSH2 0x100 JUMPI PUSH1 0x0 CALLDATALOAD PUSH1 0xE0 SHR DUP1 PUSH4 0xA42DCE80 GT PUSH2 0x97 JUMPI DUP1 PUSH4 0xC415B95C GT PUSH2 0x66 JUMPI DUP1 PUSH4 0xC415B95C EQ PUSH2 0x2E4 JUMPI DUP1 PUSH4 0xD09EF241 EQ PUSH2 0x2F7 JUMPI DUP1 PUSH4 0xE77FF2F6 EQ PUSH2 0x317 JUMPI DUP1 PUSH4 0xF2FDE38B EQ PUSH2 0x32A JUMPI PUSH1 0x0 DUP1 REVERT JUMPDEST DUP1 PUSH4 0xA42DCE80 EQ PUSH2 0x1AF JUMPI DUP1 PUSH4 0xA85C38EF EQ PUSH2 0x1C2 JUMPI DUP1 PUSH4 0xAE06C1B7 EQ PUSH2 0x2C8 JUMPI DUP1 PUSH4 0xB789BF52 EQ PUSH2 0x2DB JUMPI PUSH1 0x0 DUP1 REVERT JUMPDEST DUP1 PUSH4 0x715018A6 GT PUSH2 0xD3 JUMPI DUP1 PUSH4 0x715018A6 EQ PUSH2 0x153 JUMPI DUP1 PUSH4 0x8DA5CB5B EQ PUSH2 0x15B JUMPI DUP1 PUSH4 0x8E8F3112 EQ PUSH2 0x185 JUMPI DUP1 PUSH4 0xA001ECDD EQ PUSH2 0x1A6 JUMPI PUSH1 0x0 DUP1 REVERT JUMPDEST DUP1 PUSH4 0x8C5E400 EQ PUSH2 0x105 JUMPI DUP1 PUSH4 0x347DD4F0 EQ PUSH2 0x11A JUMPI DUP1 PUSH4 0x514FCAC7 EQ PUSH2 0x12D JUMPI DUP1 PUSH4 0x6B749C47 EQ PUSH2 0x140 JUMPI JUMPDEST PUSH1 0x0 DUP1 REVERT JUMPDEST PUSH2 0x118 PUSH2 0x113 CALLDATASIZE PUSH1 0x4 PUSH2 0x1934 JUMP JUMPDEST PUSH2 0x33D JUMP JUMPDEST STOP JUMPDEST PUSH2 0x118 PUSH2 0x128 CALLDATASIZE PUSH1 0x4 PUSH2 0x1934 JUMP JUMPDEST PUSH2 0x614 JUMP JUMPDEST PUSH2 0x118 PUSH2 0x13B CALLDATASIZE PUSH1 0x4 PUSH2 0x1934 JUMP JUMPDEST PUSH2 0x893 JUMP JUMPDEST PUSH2 0x118 PUSH2 0x14E CALLDATASIZE PUSH1 0x4 PUSH2 0x1934 JUMP JUMPDEST PUSH2 0xBA2 JUMP JUMPDEST PUSH2 0x118 PUSH2 0xDB5 JUMP JUMPDEST PUSH1 0x1 SLOAD PUSH1 0x1 PUSH1 0x1 PUSH1 0xA0 SHL SUB AND JUMPDEST PUSH1 0x40 MLOAD PUSH1 0x1 PUSH1 0x1 PUSH1 0xA0 SHL SUB SWAP1 SWAP2 AND DUP2 MSTORE PUSH1 0x20 ADD JUMPDEST PUSH1 0x40 MLOAD DUP1 SWAP2 SUB SWAP1 RETURN JUMPDEST PUSH2 0x198 PUSH2 0x193 CALLDATASIZE PUSH1 0x4 PUSH2 0x1A3F JUMP JUMPDEST PUSH2 0xDC9 JUMP JUMPDEST PUSH1 0x40 MLOAD SWAP1 DUP2 MSTORE PUSH1 0x20 ADD PUSH2 0x17C JUMP JUMPDEST PUSH2 0x198 PUSH1 0x6 SLOAD DUP2 JUMP JUMPDEST PUSH2 0x118 PUSH2 0x1BD CALLDATASIZE PUSH1 0x4 PUSH2 0x1B34 JUMP JUMPDEST PUSH2 0x1267 JUMP JUMPDEST PUSH2 0x254 PUSH2 0x1D0 CALLDATASIZE PUSH1 0x4 PUSH2 0x1934 JUMP JUMPDEST PUSH1 0x2 PUSH1 0x20 DUP2 SWAP1 MSTORE PUSH1 0x0 SWAP2 DUP3 MSTORE PUSH1 0x40 SWAP1 SWAP2 KECCAK256 DUP1 SLOAD PUSH1 0x1 DUP3 ADD SLOAD SWAP3 DUP3 ADD SLOAD PUSH1 0x5 DUP4 ADD SLOAD PUSH1 0x6 DUP5 ADD SLOAD PUSH1 0x7 SWAP1 SWAP5 ADD SLOAD PUSH1 0x1 PUSH1 0x1 PUSH1 0xA0 SHL SUB SWAP4 DUP5 AND SWAP6 DUP5 AND SWAP5 SWAP4 SWAP1 SWAP3 AND SWAP3 SWAP1 SWAP2 PUSH1 0xFF DUP1 DUP3 AND SWAP2 PUSH2 0x100 DUP2 DIV DUP3 AND SWAP2 PUSH3 0x10000 DUP3 DIV DUP2 AND SWAP2 PUSH4 0x1000000 DUP2 DIV DUP3 AND SWAP2 PUSH5 0x100000000 DUP3 DIV DUP2 AND SWAP2 PUSH1 0x1 PUSH1 0x28 SHL DUP2 DIV DUP3 AND SWAP2 PUSH1 0x1 PUSH1 0x30 SHL SWAP1 SWAP2 DIV AND DUP13 JUMP JUMPDEST PUSH1 0x40 DUP1 MLOAD PUSH1 0x1 PUSH1 0x1 PUSH1 0xA0 SHL SUB SWAP14 DUP15 AND DUP2 MSTORE SWAP12 DUP14 AND PUSH1 0x20 DUP14 ADD MSTORE SWAP10 SWAP1 SWAP12 AND SWAP9 DUP11 ADD SWAP9 SWAP1 SWAP9 MSTORE PUSH1 0x60 DUP10 ADD SWAP7 SWAP1 SWAP7 MSTORE PUSH1 0x80 DUP9 ADD SWAP5 SWAP1 SWAP5 MSTORE SWAP2 ISZERO ISZERO PUSH1 0xA0 DUP8 ADD MSTORE ISZERO ISZERO PUSH1 0xC0 DUP7 ADD MSTORE ISZERO ISZERO PUSH1 0xE0 DUP6 ADD MSTORE ISZERO ISZERO PUSH2 0x100 DUP5 ADD MSTORE ISZERO ISZERO PUSH2 0x120 DUP4 ADD MSTORE ISZERO ISZERO PUSH2 0x140 DUP3 ADD MSTORE SWAP1 ISZERO ISZERO PUSH2 0x160 DUP3 ADD MSTORE PUSH2 0x180 ADD PUSH2 0x17C JUMP JUMPDEST PUSH2 0x118 PUSH2 0x2D6 CALLDATASIZE PUSH1 0x4 PUSH2 0x1934 JUMP JUMPDEST PUSH2 0x12DF JUMP JUMPDEST PUSH2 0x198 PUSH1 0x3 SLOAD DUP2 JUMP JUMPDEST PUSH1 0x5 SLOAD PUSH2 0x168 SWAP1 PUSH1 0x1 PUSH1 0x1 PUSH1 0xA0 SHL SUB AND DUP2 JUMP JUMPDEST PUSH2 0x30A PUSH2 0x305 CALLDATASIZE PUSH1 0x4 PUSH2 0x1934 JUMP JUMPDEST PUSH2 0x132D JUMP JUMPDEST PUSH1 0x40 MLOAD PUSH2 0x17C SWAP2 SWAP1 PUSH2 0x1BCA JUMP JUMPDEST PUSH1 0x4 SLOAD PUSH2 0x168 SWAP1 PUSH1 0x1 PUSH1 0x1 PUSH1 0xA0 SHL SUB AND DUP2 JUMP JUMPDEST PUSH2 0x118 PUSH2 0x338 CALLDATASIZE PUSH1 0x4 PUSH2 0x1B34 JUMP JUMPDEST PUSH2 0x1520 JUMP JUMPDEST PUSH2 0x345 PUSH2 0x155B JUMP JUMPDEST PUSH1 0x0 DUP2 DUP2 MSTORE PUSH1 0x2 PUSH1 0x20 MSTORE PUSH1 0x40 SWAP1 KECCAK256 PUSH1 0x1 DUP2 ADD SLOAD PUSH1 0x1 PUSH1 0x1 PUSH1 0xA0 SHL SUB AND CALLER EQ PUSH2 0x3B4 JUMPI PUSH1 0x40 MLOAD PUSH3 0x461BCD PUSH1 0xE5 SHL DUP2 MSTORE PUSH1 0x20 PUSH1 0x4 DUP3 ADD MSTORE PUSH1 0x1E PUSH1 0x24 DUP3 ADD MSTORE PUSH32 0x4F6E6C792073656C6C65722063616E2064656C69766572206173736574730000 PUSH1 0x44 DUP3 ADD MSTORE PUSH1 0x64 ADD JUMPDEST PUSH1 0x40 MLOAD DUP1 SWAP2 SUB SWAP1 REVERT JUMPDEST PUSH1 0x7 DUP2 ADD SLOAD PUSH1 0xFF AND PUSH2 0x400 JUMPI PUSH1 0x40 MLOAD PUSH3 0x461BCD PUSH1 0xE5 SHL DUP2 MSTORE PUSH1 0x20 PUSH1 0x4 DUP3 ADD MSTORE PUSH1 0x15 PUSH1 0x24 DUP3 ADD MSTORE PUSH21 0x14185E5B595B9D081B9BDD0819195C1BDCDA5D1959 PUSH1 0x5A SHL PUSH1 0x44 DUP3 ADD MSTORE PUSH1 0x64 ADD PUSH2 0x3AB JUMP JUMPDEST PUSH1 0x7 DUP2 ADD SLOAD PUSH2 0x100 SWAP1 DIV PUSH1 0xFF AND ISZERO PUSH2 0x45A JUMPI PUSH1 0x40 MLOAD PUSH3 0x461BCD PUSH1 0xE5 SHL DUP2 MSTORE PUSH1 0x20 PUSH1 0x4 DUP3 ADD MSTORE PUSH1 0x18 PUSH1 0x24 DUP3 ADD MSTORE PUSH32 0x41737365747320616C72656164792064656C6976657265640000000000000000 PUSH1 0x44 DUP3 ADD MSTORE PUSH1 0x64 ADD PUSH2 0x3AB JUMP JUMPDEST PUSH1 0x7 DUP2 ADD SLOAD PUSH1 0x1 PUSH1 0x30 SHL SWAP1 DIV PUSH1 0xFF AND ISZERO PUSH2 0x4A8 JUMPI PUSH1 0x40 MLOAD PUSH3 0x461BCD PUSH1 0xE5 SHL DUP2 MSTORE PUSH1 0x20 PUSH1 0x4 DUP3 ADD MSTORE PUSH1 0xF PUSH1 0x24 DUP3 ADD MSTORE PUSH15 0x13DC99195C8818D85B98D95B1B1959 PUSH1 0x8A SHL PUSH1 0x44 DUP3 ADD MSTORE PUSH1 0x64 ADD PUSH2 0x3AB JUMP JUMPDEST DUP1 PUSH1 0x6 ADD SLOAD TIMESTAMP LT PUSH2 0x4CB JUMPI PUSH1 0x40 MLOAD PUSH3 0x461BCD PUSH1 0xE5 SHL DUP2 MSTORE PUSH1 0x4 ADD PUSH2 0x3AB SWAP1 PUSH2 0x1CF6 JUMP JUMPDEST PUSH1 0x0 JUMPDEST PUSH1 0x3 DUP3 ADD SLOAD DUP2 LT ISZERO PUSH2 0x5C9 JUMPI DUP2 PUSH1 0x3 ADD DUP2 DUP2 SLOAD DUP2 LT PUSH2 0x4EF JUMPI PUSH2 0x4EF PUSH2 0x1D1D JUMP JUMPDEST SWAP1 PUSH1 0x0 MSTORE PUSH1 0x20 PUSH1 0x0 KECCAK256 ADD PUSH1 0x0 SWAP1 SLOAD SWAP1 PUSH2 0x100 EXP SWAP1 DIV PUSH1 0x1 PUSH1 0x1 PUSH1 0xA0 SHL SUB AND PUSH1 0x1 PUSH1 0x1 PUSH1 0xA0 SHL SUB AND PUSH4 0x23B872DD CALLER ADDRESS DUP6 PUSH1 0x4 ADD DUP6 DUP2 SLOAD DUP2 LT PUSH2 0x532 JUMPI PUSH2 0x532 PUSH2 0x1D1D JUMP JUMPDEST PUSH1 0x0 SWAP2 DUP3 MSTORE PUSH1 0x20 SWAP1 SWAP2 KECCAK256 ADD SLOAD PUSH1 0x40 MLOAD PUSH1 0x1 PUSH1 0x1 PUSH1 0xE0 SHL SUB NOT PUSH1 0xE0 DUP7 SWAP1 SHL AND DUP2 MSTORE PUSH1 0x1 PUSH1 0x1 PUSH1 0xA0 SHL SUB SWAP4 DUP5 AND PUSH1 0x4 DUP3 ADD MSTORE SWAP3 SWAP1 SWAP2 AND PUSH1 0x24 DUP4 ADD MSTORE PUSH1 0x44 DUP3 ADD MSTORE PUSH1 0x64 ADD PUSH1 0x20 PUSH1 0x40 MLOAD DUP1 DUP4 SUB DUP2 PUSH1 0x0 DUP8 GAS CALL ISZERO DUP1 ISZERO PUSH2 0x592 JUMPI RETURNDATASIZE PUSH1 0x0 DUP1 RETURNDATACOPY RETURNDATASIZE PUSH1 0x0 REVERT JUMPDEST POP POP POP POP PUSH1 0x40 MLOAD RETURNDATASIZE PUSH1 0x1F NOT PUSH1 0x1F DUP3 ADD AND DUP3 ADD DUP1 PUSH1 0x40 MSTORE POP DUP2 ADD SWAP1 PUSH2 0x5B6 SWAP2 SWAP1 PUSH2 0x1D33 JUMP JUMPDEST POP DUP1 PUSH2 0x5C1 DUP2 PUSH2 0x1D6B JUMP JUMPDEST SWAP2 POP POP PUSH2 0x4CE JUMP JUMPDEST POP PUSH1 0x7 DUP2 ADD DUP1 SLOAD PUSH2 0xFF00 NOT AND PUSH2 0x100 OR SWAP1 SSTORE PUSH1 0x40 MLOAD DUP3 SWAP1 PUSH32 0xA0669241C22BD4862D306992BB0DA2E2490D44D16FF4D016469C95F977991935 SWAP1 PUSH1 0x0 SWAP1 LOG2 POP PUSH2 0x611 PUSH1 0x1 PUSH1 0x0 SSTORE JUMP JUMPDEST POP JUMP JUMPDEST PUSH1 0x0 DUP2 DUP2 MSTORE PUSH1 0x2 PUSH1 0x20 MSTORE PUSH1 0x40 SWAP1 KECCAK256 PUSH1 0x7 DUP2 ADD SLOAD PUSH1 0xFF AND DUP1 ISZERO PUSH2 0x63F JUMPI POP PUSH1 0x7 DUP2 ADD SLOAD PUSH2 0x100 SWAP1 DIV PUSH1 0xFF AND JUMPDEST PUSH2 0x68B JUMPI PUSH1 0x40 MLOAD PUSH3 0x461BCD PUSH1 0xE5 SHL DUP2 MSTORE PUSH1 0x20 PUSH1 0x4 DUP3 ADD DUP2 SWAP1 MSTORE PUSH1 0x24 DUP3 ADD MSTORE PUSH32 0x4F72646572206E6F7420726561647920666F7220766572696669636174696F6E PUSH1 0x44 DUP3 ADD MSTORE PUSH1 0x64 ADD PUSH2 0x3AB JUMP JUMPDEST PUSH1 0x7 DUP2 ADD SLOAD PUSH1 0x1 PUSH1 0x28 SHL SWAP1 DIV PUSH1 0xFF AND ISZERO DUP1 ISZERO PUSH2 0x6B3 JUMPI POP PUSH1 0x7 DUP2 ADD SLOAD PUSH1 0x1 PUSH1 0x30 SHL SWAP1 DIV PUSH1 0xFF AND ISZERO JUMPDEST PUSH2 0x6FF JUMPI PUSH1 0x40 MLOAD PUSH3 0x461BCD PUSH1 0xE5 SHL DUP2 MSTORE PUSH1 0x20 PUSH1 0x4 DUP3 ADD MSTORE PUSH1 0x17 PUSH1 0x24 DUP3 ADD MSTORE PUSH32 0x4F7264657220616C72656164792066696E616C697A6564000000000000000000 PUSH1 0x44 DUP3 ADD MSTORE PUSH1 0x64 ADD PUSH2 0x3AB JUMP JUMPDEST DUP1 PUSH1 0x6 ADD SLOAD TIMESTAMP LT PUSH2 0x722 JUMPI PUSH1 0x40 MLOAD PUSH3 0x461BCD PUSH1 0xE5 SHL DUP2 MSTORE PUSH1 0x4 ADD PUSH2 0x3AB SWAP1 PUSH2 0x1CF6 JUMP JUMPDEST DUP1 SLOAD PUSH1 0x1 PUSH1 0x1 PUSH1 0xA0 SHL SUB AND CALLER SUB PUSH2 0x74B JUMPI PUSH1 0x7 DUP2 ADD DUP1 SLOAD PUSH3 0xFF0000 NOT AND PUSH3 0x10000 OR SWAP1 SSTORE PUSH2 0x7E7 JUMP JUMPDEST PUSH1 0x1 DUP2 ADD SLOAD PUSH1 0x1 PUSH1 0x1 PUSH1 0xA0 SHL SUB AND CALLER SUB PUSH2 0x779 JUMPI PUSH1 0x7 DUP2 ADD DUP1 SLOAD PUSH4 0xFF000000 NOT AND PUSH4 0x1000000 OR SWAP1 SSTORE PUSH2 0x7E7 JUMP JUMPDEST PUSH1 0x4 SLOAD PUSH1 0x1 PUSH1 0x1 PUSH1 0xA0 SHL SUB AND CALLER SUB PUSH2 0x7A7 JUMPI PUSH1 0x7 DUP2 ADD DUP1 SLOAD PUSH5 0xFF00000000 NOT AND PUSH5 0x100000000 OR SWAP1 SSTORE PUSH2 0x7E7 JUMP JUMPDEST PUSH1 0x40 MLOAD PUSH3 0x461BCD PUSH1 0xE5 SHL DUP2 MSTORE PUSH1 0x20 PUSH1 0x4 DUP3 ADD MSTORE PUSH1 0x15 PUSH1 0x24 DUP3 ADD MSTORE PUSH21 0x2AB730BABA3437B934BD32B2103B32B934B334B2B9 PUSH1 0x59 SHL PUSH1 0x44 DUP3 ADD MSTORE PUSH1 0x64 ADD PUSH2 0x3AB JUMP JUMPDEST PUSH1 0x40 MLOAD CALLER SWAP1 DUP4 SWAP1 PUSH32 0xCCD8597797DDE8D3C5E402F7D792FC38D3167E348C92801593F15BD4D5356827 SWAP1 PUSH1 0x0 SWAP1 LOG3 PUSH1 0x7 DUP2 ADD SLOAD PUSH1 0x0 SWAP1 PUSH3 0x10000 SWAP1 DIV PUSH1 0xFF AND ISZERO PUSH2 0x838 JUMPI DUP1 PUSH2 0x834 DUP2 PUSH2 0x1D6B JUMP JUMPDEST SWAP2 POP POP JUMPDEST PUSH1 0x7 DUP3 ADD SLOAD PUSH4 0x1000000 SWAP1 DIV PUSH1 0xFF AND ISZERO PUSH2 0x85A JUMPI DUP1 PUSH2 0x856 DUP2 PUSH2 0x1D6B JUMP JUMPDEST SWAP2 POP POP JUMPDEST PUSH1 0x7 DUP3 ADD SLOAD PUSH5 0x100000000 SWAP1 DIV PUSH1 0xFF AND ISZERO PUSH2 0x87D JUMPI DUP1 PUSH2 0x879 DUP2 PUSH2 0x1D6B JUMP JUMPDEST SWAP2 POP POP JUMPDEST PUSH1 0x2 DUP2 LT PUSH2 0x88E JUMPI PUSH2 0x88E DUP4 PUSH2 0x1585 JUMP JUMPDEST POP POP POP JUMP JUMPDEST PUSH1 0x0 DUP2 DUP2 MSTORE PUSH1 0x2 PUSH1 0x20 MSTORE PUSH1 0x40 SWAP1 KECCAK256 DUP1 SLOAD PUSH1 0x1 PUSH1 0x1 PUSH1 0xA0 SHL SUB AND CALLER EQ DUP1 PUSH2 0x8C5 JUMPI POP PUSH1 0x1 DUP2 ADD SLOAD PUSH1 0x1 PUSH1 0x1 PUSH1 0xA0 SHL SUB AND CALLER EQ JUMPDEST DUP1 PUSH2 0x8DA JUMPI POP PUSH1 0x1 SLOAD PUSH1 0x1 PUSH1 0x1 PUSH1 0xA0 SHL SUB AND CALLER EQ JUMPDEST PUSH2 0x915 JUMPI PUSH1 0x40 MLOAD PUSH3 0x461BCD PUSH1 0xE5 SHL DUP2 MSTORE PUSH1 0x20 PUSH1 0x4 DUP3 ADD MSTORE PUSH1 0xC PUSH1 0x24 DUP3 ADD MSTORE PUSH12 0x155B985D5D1A1BDC9A5E9959 PUSH1 0xA2 SHL PUSH1 0x44 DUP3 ADD MSTORE PUSH1 0x64 ADD PUSH2 0x3AB JUMP JUMPDEST PUSH1 0x7 DUP2 ADD SLOAD PUSH1 0x1 PUSH1 0x28 SHL SWAP1 DIV PUSH1 0xFF AND ISZERO PUSH2 0x971 JUMPI PUSH1 0x40 MLOAD PUSH3 0x461BCD PUSH1 0xE5 SHL DUP2 MSTORE PUSH1 0x20 PUSH1 0x4 DUP3 ADD MSTORE PUSH1 0x17 PUSH1 0x24 DUP3 ADD MSTORE PUSH32 0x4F7264657220616C726561647920636F6D706C65746564000000000000000000 PUSH1 0x44 DUP3 ADD MSTORE PUSH1 0x64 ADD PUSH2 0x3AB JUMP JUMPDEST PUSH1 0x7 DUP2 ADD SLOAD PUSH1 0x1 PUSH1 0x30 SHL SWAP1 DIV PUSH1 0xFF AND ISZERO PUSH2 0x9CD JUMPI PUSH1 0x40 MLOAD PUSH3 0x461BCD PUSH1 0xE5 SHL DUP2 MSTORE PUSH1 0x20 PUSH1 0x4 DUP3 ADD MSTORE PUSH1 0x17 PUSH1 0x24 DUP3 ADD MSTORE PUSH32 0x4F7264657220616C72656164792063616E63656C6C6564000000000000000000 PUSH1 0x44 DUP3 ADD MSTORE PUSH1 0x64 ADD PUSH2 0x3AB JUMP JUMPDEST PUSH1 0x7 DUP2 ADD DUP1 SLOAD PUSH7 0xFF000000000000 NOT DUP2 AND PUSH1 0x1 PUSH1 0x30 SHL OR SWAP1 SWAP2 SSTORE PUSH1 0xFF AND ISZERO PUSH2 0xA71 JUMPI PUSH1 0x2 DUP2 ADD SLOAD DUP2 SLOAD PUSH1 0x5 DUP4 ADD SLOAD PUSH1 0x40 MLOAD PUSH4 0xA9059CBB PUSH1 0xE0 SHL DUP2 MSTORE PUSH1 0x1 PUSH1 0x1 PUSH1 0xA0 SHL SUB SWAP3 DUP4 AND PUSH1 0x4 DUP3 ADD MSTORE PUSH1 0x24 DUP2 ADD SWAP2 SWAP1 SWAP2 MSTORE SWAP2 AND SWAP1 PUSH4 0xA9059CBB SWAP1 PUSH1 0x44 ADD PUSH1 0x20 PUSH1 0x40 MLOAD DUP1 DUP4 SUB DUP2 PUSH1 0x0 DUP8 GAS CALL ISZERO DUP1 ISZERO PUSH2 0xA4B JUMPI RETURNDATASIZE PUSH1 0x0 DUP1 RETURNDATACOPY RETURNDATASIZE PUSH1 0x0 REVERT JUMPDEST POP POP POP POP PUSH1 0x40 MLOAD RETURNDATASIZE PUSH1 0x1F NOT PUSH1 0x1F DUP3 ADD AND DUP3 ADD DUP1 PUSH1 0x40 MSTORE POP DUP2 ADD SWAP1 PUSH2 0xA6F SWAP2 SWAP1 PUSH2 0x1D33 JUMP JUMPDEST POP JUMPDEST PUSH1 0x7 DUP2 ADD SLOAD PUSH2 0x100 SWAP1 DIV PUSH1 0xFF AND ISZERO PUSH2 0xB73 JUMPI PUSH1 0x0 JUMPDEST PUSH1 0x3 DUP3 ADD SLOAD DUP2 LT ISZERO PUSH2 0xB71 JUMPI DUP2 PUSH1 0x3 ADD DUP2 DUP2 SLOAD DUP2 LT PUSH2 0xAA7 JUMPI PUSH2 0xAA7 PUSH2 0x1D1D JUMP JUMPDEST PUSH1 0x0 SWAP2 DUP3 MSTORE PUSH1 0x20 SWAP1 SWAP2 KECCAK256 ADD SLOAD PUSH1 0x1 DUP4 ADD SLOAD PUSH1 0x4 DUP5 ADD DUP1 SLOAD PUSH1 0x1 PUSH1 0x1 PUSH1 0xA0 SHL SUB SWAP4 DUP5 AND SWAP4 PUSH4 0xA9059CBB SWAP4 AND SWAP2 SWAP1 DUP6 SWAP1 DUP2 LT PUSH2 0xAE3 JUMPI PUSH2 0xAE3 PUSH2 0x1D1D JUMP JUMPDEST PUSH1 0x0 SWAP2 DUP3 MSTORE PUSH1 0x20 SWAP1 SWAP2 KECCAK256 ADD SLOAD PUSH1 0x40 MLOAD PUSH1 0x1 PUSH1 0x1 PUSH1 0xE0 SHL SUB NOT PUSH1 0xE0 DUP6 SWAP1 SHL AND DUP2 MSTORE PUSH1 0x1 PUSH1 0x1 PUSH1 0xA0 SHL SUB SWAP1 SWAP3 AND PUSH1 0x4 DUP4 ADD MSTORE PUSH1 0x24 DUP3 ADD MSTORE PUSH1 0x44 ADD PUSH1 0x20 PUSH1 0x40 MLOAD DUP1 DUP4 SUB DUP2 PUSH1 0x0 DUP8 GAS CALL ISZERO DUP1 ISZERO PUSH2 0xB3A JUMPI RETURNDATASIZE PUSH1 0x0 DUP1 RETURNDATACOPY RETURNDATASIZE PUSH1 0x0 REVERT JUMPDEST POP POP POP POP PUSH1 0x40 MLOAD RETURNDATASIZE PUSH1 0x1F NOT PUSH1 0x1F DUP3 ADD AND DUP3 ADD DUP1 PUSH1 0x40 MSTORE POP DUP2 ADD SWAP1 PUSH2 0xB5E SWAP2 SWAP1 PUSH2 0x1D33 JUMP JUMPDEST POP DUP1 PUSH2 0xB69 DUP2 PUSH2 0x1D6B JUMP JUMPDEST SWAP2 POP POP PUSH2 0xA86 JUMP JUMPDEST POP JUMPDEST PUSH1 0x40 MLOAD DUP3 SWAP1 PUSH32 0x61B9399F2F0F32CA39CE8D7BE32CAED5EC22FE07A6DABA3A467ED479EC606582 SWAP1 PUSH1 0x0 SWAP1 LOG2 POP POP JUMP JUMPDEST PUSH2 0xBAA PUSH2 0x155B JUMP JUMPDEST PUSH1 0x0 DUP2 DUP2 MSTORE PUSH1 0x2 PUSH1 0x20 MSTORE PUSH1 0x40 SWAP1 KECCAK256 DUP1 SLOAD PUSH1 0x1 PUSH1 0x1 PUSH1 0xA0 SHL SUB AND CALLER EQ PUSH2 0xC11 JUMPI PUSH1 0x40 MLOAD PUSH3 0x461BCD PUSH1 0xE5 SHL DUP2 MSTORE PUSH1 0x20 PUSH1 0x4 DUP3 ADD MSTORE PUSH1 0x1E PUSH1 0x24 DUP3 ADD MSTORE PUSH32 0x4F6E6C792062757965722063616E206465706F736974207061796D656E740000 PUSH1 0x44 DUP3 ADD MSTORE PUSH1 0x64 ADD PUSH2 0x3AB JUMP JUMPDEST PUSH1 0x7 DUP2 ADD SLOAD PUSH1 0xFF AND ISZERO PUSH2 0xC66 JUMPI PUSH1 0x40 MLOAD PUSH3 0x461BCD PUSH1 0xE5 SHL DUP2 MSTORE PUSH1 0x20 PUSH1 0x4 DUP3 ADD MSTORE PUSH1 0x19 PUSH1 0x24 DUP3 ADD MSTORE PUSH32 0x5061796D656E7420616C7265616479206465706F736974656400000000000000 PUSH1 0x44 DUP3 ADD MSTORE PUSH1 0x64 ADD PUSH2 0x3AB JUMP JUMPDEST PUSH1 0x7 DUP2 ADD SLOAD PUSH1 0x1 PUSH1 0x30 SHL SWAP1 DIV PUSH1 0xFF AND ISZERO PUSH2 0xCB4 JUMPI PUSH1 0x40 MLOAD PUSH3 0x461BCD PUSH1 0xE5 SHL DUP2 MSTORE PUSH1 0x20 PUSH1 0x4 DUP3 ADD MSTORE PUSH1 0xF PUSH1 0x24 DUP3 ADD MSTORE PUSH15 0x13DC99195C8818D85B98D95B1B1959 PUSH1 0x8A SHL PUSH1 0x44 DUP3 ADD MSTORE PUSH1 0x64 ADD PUSH2 0x3AB JUMP JUMPDEST DUP1 PUSH1 0x6 ADD SLOAD TIMESTAMP LT PUSH2 0xCD7 JUMPI PUSH1 0x40 MLOAD PUSH3 0x461BCD PUSH1 0xE5 SHL DUP2 MSTORE PUSH1 0x4 ADD PUSH2 0x3AB SWAP1 PUSH2 0x1CF6 JUMP JUMPDEST PUSH1 0x2 DUP2 ADD SLOAD PUSH1 0x5 DUP3 ADD SLOAD PUSH1 0x40 MLOAD PUSH4 0x23B872DD PUSH1 0xE0 SHL DUP2 MSTORE CALLER PUSH1 0x4 DUP3 ADD MSTORE ADDRESS PUSH1 0x24 DUP3 ADD MSTORE PUSH1 0x44 DUP2 ADD SWAP2 SWAP1 SWAP2 MSTORE PUSH1 0x1 PUSH1 0x1 PUSH1 0xA0 SHL SUB SWAP1 SWAP2 AND SWAP1 PUSH4 0x23B872DD SWAP1 PUSH1 0x64 ADD PUSH1 0x20 PUSH1 0x40 MLOAD DUP1 DUP4 SUB DUP2 PUSH1 0x0 DUP8 GAS CALL ISZERO DUP1 ISZERO PUSH2 0xD36 JUMPI RETURNDATASIZE PUSH1 0x0 DUP1 RETURNDATACOPY RETURNDATASIZE PUSH1 0x0 REVERT JUMPDEST POP POP POP POP PUSH1 0x40 MLOAD RETURNDATASIZE PUSH1 0x1F NOT PUSH1 0x1F DUP3 ADD AND DUP3 ADD DUP1 PUSH1 0x40 MSTORE POP DUP2 ADD SWAP1 PUSH2 0xD5A SWAP2 SWAP1 PUSH2 0x1D33 JUMP JUMPDEST POP PUSH1 0x7 DUP2 ADD DUP1 SLOAD PUSH1 0xFF NOT AND PUSH1 0x1 OR SWAP1 SSTORE PUSH1 0x5 DUP2 ADD SLOAD PUSH1 0x40 MLOAD DUP4 SWAP2 PUSH32 0x6A7AC62510E3FD37D671BBF21FF3561AC1BA8B56AB899D4E30790A4BA4324E85 SWAP2 PUSH2 0xDA2 SWAP2 DUP2 MSTORE PUSH1 0x20 ADD SWAP1 JUMP JUMPDEST PUSH1 0x40 MLOAD DUP1 SWAP2 SUB SWAP1 LOG2 POP PUSH2 0x611 PUSH1 0x1 PUSH1 0x0 SSTORE JUMP JUMPDEST PUSH2 0xDBD PUSH2 0x1800 JUMP JUMPDEST PUSH2 0xDC7 PUSH1 0x0 PUSH2 0x182D JUMP JUMPDEST JUMP JUMPDEST PUSH1 0x0 PUSH1 0x1 PUSH1 0x1 PUSH1 0xA0 SHL SUB DUP8 AND PUSH2 0xE12 JUMPI PUSH1 0x40 MLOAD PUSH3 0x461BCD PUSH1 0xE5 SHL DUP2 MSTORE PUSH1 0x20 PUSH1 0x4 DUP3 ADD MSTORE PUSH1 0xE PUSH1 0x24 DUP3 ADD MSTORE PUSH14 0x24B73B30B634B21039B2B63632B9 PUSH1 0x91 SHL PUSH1 0x44 DUP3 ADD MSTORE PUSH1 0x64 ADD PUSH2 0x3AB JUMP JUMPDEST PUSH1 0x1 PUSH1 0x1 PUSH1 0xA0 SHL SUB DUP7 AND PUSH2 0xE60 JUMPI PUSH1 0x40 MLOAD PUSH3 0x461BCD PUSH1 0xE5 SHL DUP2 MSTORE PUSH1 0x20 PUSH1 0x4 DUP3 ADD MSTORE PUSH1 0x15 PUSH1 0x24 DUP3 ADD MSTORE PUSH21 0x24B73B30B634B2103830BCB6B2B73A103A37B5B2B7 PUSH1 0x59 SHL PUSH1 0x44 DUP3 ADD MSTORE PUSH1 0x64 ADD PUSH2 0x3AB JUMP JUMPDEST DUP4 MLOAD DUP6 MLOAD EQ PUSH2 0xEA9 JUMPI PUSH1 0x40 MLOAD PUSH3 0x461BCD PUSH1 0xE5 SHL DUP2 MSTORE PUSH1 0x20 PUSH1 0x4 DUP3 ADD MSTORE PUSH1 0x15 PUSH1 0x24 DUP3 ADD MSTORE PUSH21 0x82E4E4C2F240D8CADCCEE8D040DAD2E6DAC2E8C6D PUSH1 0x5B SHL PUSH1 0x44 DUP3 ADD MSTORE PUSH1 0x64 ADD PUSH2 0x3AB JUMP JUMPDEST PUSH1 0x0 DUP6 MLOAD GT PUSH2 0xEF0 JUMPI PUSH1 0x40 MLOAD PUSH3 0x461BCD PUSH1 0xE5 SHL DUP2 MSTORE PUSH1 0x20 PUSH1 0x4 DUP3 ADD MSTORE PUSH1 0x13 PUSH1 0x24 DUP3 ADD MSTORE PUSH19 0x139BC8185CDCD95D1CC81CDC1958DA599A5959 PUSH1 0x6A SHL PUSH1 0x44 DUP3 ADD MSTORE PUSH1 0x64 ADD PUSH2 0x3AB JUMP JUMPDEST PUSH1 0x0 DUP4 GT PUSH2 0xF39 JUMPI PUSH1 0x40 MLOAD PUSH3 0x461BCD PUSH1 0xE5 SHL DUP2 MSTORE PUSH1 0x20 PUSH1 0x4 DUP3 ADD MSTORE PUSH1 0x16 PUSH1 0x24 DUP3 ADD MSTORE PUSH22 0x125B9D985B1A59081C185E5B595B9D08185B5BDD5B9D PUSH1 0x52 SHL PUSH1 0x44 DUP3 ADD MSTORE PUSH1 0x64 ADD PUSH2 0x3AB JUMP JUMPDEST TIMESTAMP DUP3 GT PUSH2 0xF88 JUMPI PUSH1 0x40 MLOAD PUSH3 0x461BCD PUSH1 0xE5 SHL DUP2 MSTORE PUSH1 0x20 PUSH1 0x4 DUP3 ADD MSTORE PUSH1 0x17 PUSH1 0x24 DUP3 ADD MSTORE PUSH32 0x496E76616C69642065787069726174696F6E2074696D65000000000000000000 PUSH1 0x44 DUP3 ADD MSTORE PUSH1 0x64 ADD PUSH2 0x3AB JUMP JUMPDEST PUSH1 0x4 DUP1 SLOAD PUSH1 0x40 MLOAD PUSH4 0x7C1B2B9D PUSH1 0xE0 SHL DUP2 MSTORE PUSH1 0x1 PUSH1 0x1 PUSH1 0xA0 SHL SUB DUP11 DUP2 AND SWAP4 DUP3 ADD SWAP4 SWAP1 SWAP4 MSTORE SWAP2 AND SWAP1 PUSH4 0x7C1B2B9D SWAP1 PUSH1 0x24 ADD PUSH1 0x20 PUSH1 0x40 MLOAD DUP1 DUP4 SUB DUP2 DUP7 GAS STATICCALL ISZERO DUP1 ISZERO PUSH2 0xFD4 JUMPI RETURNDATASIZE PUSH1 0x0 DUP1 RETURNDATACOPY RETURNDATASIZE PUSH1 0x0 REVERT JUMPDEST POP POP POP POP PUSH1 0x40 MLOAD RETURNDATASIZE PUSH1 0x1F NOT PUSH1 0x1F DUP3 ADD AND DUP3 ADD DUP1 PUSH1 0x40 MSTORE POP DUP2 ADD SWAP1 PUSH2 0xFF8 SWAP2 SWAP1 PUSH2 0x1D33 JUMP JUMPDEST PUSH2 0x103A JUMPI PUSH1 0x40 MLOAD PUSH3 0x461BCD PUSH1 0xE5 SHL DUP2 MSTORE PUSH1 0x20 PUSH1 0x4 DUP3 ADD MSTORE PUSH1 0x13 PUSH1 0x24 DUP3 ADD MSTORE PUSH19 0x14D95B1B195C881B9BDD08185C1C1C9BDD9959 PUSH1 0x6A SHL PUSH1 0x44 DUP3 ADD MSTORE PUSH1 0x64 ADD PUSH2 0x3AB JUMP JUMPDEST PUSH1 0x3 DUP1 SLOAD PUSH1 0x0 SWAP2 DUP3 PUSH2 0x104B DUP4 PUSH2 0x1D6B JUMP JUMPDEST SWAP1 SWAP2 SSTORE POP PUSH1 0x40 DUP1 MLOAD PUSH2 0x1C0 DUP2 ADD DUP3 MSTORE CALLER DUP2 MSTORE PUSH1 0x1 PUSH1 0x1 PUSH1 0xA0 SHL SUB DUP12 DUP2 AND PUSH1 0x20 DUP1 DUP5 ADD SWAP2 DUP3 MSTORE DUP13 DUP4 AND DUP5 DUP7 ADD SWAP1 DUP2 MSTORE PUSH1 0x60 DUP6 ADD DUP14 DUP2 MSTORE PUSH1 0x80 DUP7 ADD DUP14 SWAP1 MSTORE PUSH1 0xA0 DUP7 ADD DUP13 SWAP1 MSTORE PUSH1 0xC0 DUP7 ADD DUP12 SWAP1 MSTORE PUSH1 0x0 PUSH1 0xE0 DUP8 ADD DUP2 SWAP1 MSTORE PUSH2 0x100 DUP8 ADD DUP2 SWAP1 MSTORE PUSH2 0x120 DUP8 ADD DUP2 SWAP1 MSTORE PUSH2 0x140 DUP8 ADD DUP2 SWAP1 MSTORE PUSH2 0x160 DUP8 ADD DUP2 SWAP1 MSTORE PUSH2 0x180 DUP8 ADD DUP2 SWAP1 MSTORE PUSH2 0x1A0 DUP8 ADD DUP2 SWAP1 MSTORE DUP9 DUP2 MSTORE PUSH1 0x2 DUP1 DUP6 MSTORE SWAP8 SWAP1 KECCAK256 DUP7 MLOAD DUP2 SLOAD SWAP1 DUP8 AND PUSH1 0x1 PUSH1 0x1 PUSH1 0xA0 SHL SUB NOT SWAP2 DUP3 AND OR DUP3 SSTORE SWAP5 MLOAD PUSH1 0x1 DUP3 ADD DUP1 SLOAD SWAP2 DUP9 AND SWAP2 DUP8 AND SWAP2 SWAP1 SWAP2 OR SWAP1 SSTORE SWAP2 MLOAD SWAP7 DUP3 ADD DUP1 SLOAD SWAP8 SWAP1 SWAP6 AND SWAP7 SWAP1 SWAP4 AND SWAP6 SWAP1 SWAP6 OR SWAP1 SWAP3 SSTORE MLOAD DUP1 MLOAD SWAP5 SWAP6 POP SWAP2 SWAP4 PUSH2 0x1131 SWAP3 PUSH1 0x3 DUP6 ADD SWAP3 ADD SWAP1 PUSH2 0x187F JUMP JUMPDEST POP PUSH1 0x80 DUP3 ADD MLOAD DUP1 MLOAD PUSH2 0x114D SWAP2 PUSH1 0x4 DUP5 ADD SWAP2 PUSH1 0x20 SWAP1 SWAP2 ADD SWAP1 PUSH2 0x18E4 JUMP JUMPDEST POP PUSH1 0xA0 DUP3 ADD MLOAD PUSH1 0x5 DUP3 ADD SSTORE PUSH1 0xC0 DUP3 ADD MLOAD PUSH1 0x6 DUP3 ADD SSTORE PUSH1 0xE0 DUP3 ADD MLOAD PUSH1 0x7 SWAP1 SWAP2 ADD DUP1 SLOAD PUSH2 0x100 DUP1 DUP6 ADD MLOAD PUSH2 0x120 DUP7 ADD MLOAD PUSH2 0x140 DUP8 ADD MLOAD PUSH2 0x160 DUP9 ADD MLOAD PUSH2 0x180 DUP10 ADD MLOAD PUSH2 0x1A0 SWAP1 SWAP10 ADD MLOAD PUSH2 0xFFFF NOT SWAP1 SWAP7 AND SWAP8 ISZERO ISZERO PUSH2 0xFF00 NOT AND SWAP8 SWAP1 SWAP8 OR SWAP3 ISZERO ISZERO SWAP1 SWAP4 MUL SWAP2 SWAP1 SWAP2 OR PUSH4 0xFFFF0000 NOT AND PUSH3 0x10000 SWAP2 ISZERO ISZERO SWAP2 SWAP1 SWAP2 MUL PUSH4 0xFF000000 NOT AND OR PUSH4 0x1000000 SWAP2 ISZERO ISZERO SWAP2 SWAP1 SWAP2 MUL OR PUSH6 0xFFFF00000000 NOT AND PUSH5 0x100000000 SWAP4 ISZERO ISZERO SWAP4 SWAP1 SWAP4 MUL PUSH6 0xFF0000000000 NOT AND SWAP3 SWAP1 SWAP3 OR PUSH1 0x1 PUSH1 0x28 SHL SWAP4 ISZERO ISZERO SWAP4 SWAP1 SWAP4 MUL SWAP3 SWAP1 SWAP3 OR PUSH7 0xFF000000000000 NOT AND PUSH1 0x1 PUSH1 0x30 SHL SWAP2 ISZERO ISZERO SWAP2 SWAP1 SWAP2 MUL OR SWAP1 SSTORE PUSH1 0x40 MLOAD PUSH1 0x1 PUSH1 0x1 PUSH1 0xA0 SHL SUB DUP10 AND SWAP1 CALLER SWAP1 DUP4 SWAP1 PUSH32 0xD4E0AAF5BE9B8773C644DFEBBA8B63F878965712AD8589D85CA4BC9D1B671E2C SWAP1 PUSH1 0x0 SWAP1 LOG4 SWAP8 SWAP7 POP POP POP POP POP POP POP JUMP JUMPDEST PUSH2 0x126F PUSH2 0x1800 JUMP JUMPDEST PUSH1 0x1 PUSH1 0x1 PUSH1 0xA0 SHL SUB DUP2 AND PUSH2 0x12BD JUMPI PUSH1 0x40 MLOAD PUSH3 0x461BCD PUSH1 0xE5 SHL DUP2 MSTORE PUSH1 0x20 PUSH1 0x4 DUP3 ADD MSTORE PUSH1 0x15 PUSH1 0x24 DUP3 ADD MSTORE PUSH21 0x24B73B30B634B2103332B29031B7B63632B1BA37B9 PUSH1 0x59 SHL PUSH1 0x44 DUP3 ADD MSTORE PUSH1 0x64 ADD PUSH2 0x3AB JUMP JUMPDEST PUSH1 0x5 DUP1 SLOAD PUSH1 0x1 PUSH1 0x1 PUSH1 0xA0 SHL SUB NOT AND PUSH1 0x1 PUSH1 0x1 PUSH1 0xA0 SHL SUB SWAP3 SWAP1 SWAP3 AND SWAP2 SWAP1 SWAP2 OR SWAP1 SSTORE JUMP JUMPDEST PUSH2 0x12E7 PUSH2 0x1800 JUMP JUMPDEST PUSH2 0x3E8 DUP2 GT ISZERO PUSH2 0x1328 JUMPI PUSH1 0x40 MLOAD PUSH3 0x461BCD PUSH1 0xE5 SHL DUP2 MSTORE PUSH1 0x20 PUSH1 0x4 DUP3 ADD MSTORE PUSH1 0xC PUSH1 0x24 DUP3 ADD MSTORE PUSH12 0x8CCACA40E8DEDE40D0D2CED PUSH1 0xA3 SHL PUSH1 0x44 DUP3 ADD MSTORE PUSH1 0x64 ADD PUSH2 0x3AB JUMP JUMPDEST PUSH1 0x6 SSTORE JUMP JUMPDEST PUSH1 0x40 DUP1 MLOAD PUSH2 0x1C0 DUP2 ADD DUP3 MSTORE PUSH1 0x0 DUP1 DUP3 MSTORE PUSH1 0x20 DUP3 ADD DUP2 SWAP1 MSTORE SWAP2 DUP2 ADD DUP3 SWAP1 MSTORE PUSH1 0x60 DUP1 DUP3 ADD DUP2 SWAP1 MSTORE PUSH1 0x80 DUP3 ADD MSTORE PUSH1 0xA0 DUP2 ADD DUP3 SWAP1 MSTORE PUSH1 0xC0 DUP2 ADD DUP3 SWAP1 MSTORE PUSH1 0xE0 DUP2 ADD DUP3 SWAP1 MSTORE PUSH2 0x100 DUP2 ADD DUP3 SWAP1 MSTORE PUSH2 0x120 DUP2 ADD DUP3 SWAP1 MSTORE PUSH2 0x140 DUP2 ADD DUP3 SWAP1 MSTORE PUSH2 0x160 DUP2 ADD DUP3 SWAP1 MSTORE PUSH2 0x180 DUP2 ADD DUP3 SWAP1 MSTORE PUSH2 0x1A0 DUP2 ADD SWAP2 SWAP1 SWAP2 MSTORE PUSH1 0x0 DUP3 DUP2 MSTORE PUSH1 0x2 PUSH1 0x20 DUP2 DUP2 MSTORE PUSH1 0x40 SWAP3 DUP4 SWAP1 KECCAK256 DUP4 MLOAD PUSH2 0x1C0 DUP2 ADD DUP6 MSTORE DUP2 SLOAD PUSH1 0x1 PUSH1 0x1 PUSH1 0xA0 SHL SUB SWAP1 DUP2 AND DUP3 MSTORE PUSH1 0x1 DUP4 ADD SLOAD DUP2 AND DUP3 DUP6 ADD MSTORE SWAP4 DUP3 ADD SLOAD SWAP1 SWAP4 AND DUP4 DUP6 ADD MSTORE PUSH1 0x3 DUP2 ADD DUP1 SLOAD DUP6 MLOAD DUP2 DUP6 MUL DUP2 ADD DUP6 ADD SWAP1 SWAP7 MSTORE DUP1 DUP7 MSTORE SWAP4 SWAP5 SWAP2 SWAP4 PUSH1 0x60 DUP7 ADD SWAP4 DUP4 ADD DUP3 DUP3 DUP1 ISZERO PUSH2 0x1434 JUMPI PUSH1 0x20 MUL DUP3 ADD SWAP2 SWAP1 PUSH1 0x0 MSTORE PUSH1 0x20 PUSH1 0x0 KECCAK256 SWAP1 JUMPDEST DUP2 SLOAD PUSH1 0x1 PUSH1 0x1 PUSH1 0xA0 SHL SUB AND DUP2 MSTORE PUSH1 0x1 SWAP1 SWAP2 ADD SWAP1 PUSH1 0x20 ADD DUP1 DUP4 GT PUSH2 0x1416 JUMPI JUMPDEST POP POP POP POP POP DUP2 MSTORE PUSH1 0x20 ADD PUSH1 0x4 DUP3 ADD DUP1 SLOAD DUP1 PUSH1 0x20 MUL PUSH1 0x20 ADD PUSH1 0x40 MLOAD SWAP1 DUP2 ADD PUSH1 0x40 MSTORE DUP1 SWAP3 SWAP2 SWAP1 DUP2 DUP2 MSTORE PUSH1 0x20 ADD DUP3 DUP1 SLOAD DUP1 ISZERO PUSH2 0x148C JUMPI PUSH1 0x20 MUL DUP3 ADD SWAP2 SWAP1 PUSH1 0x0 MSTORE PUSH1 0x20 PUSH1 0x0 KECCAK256 SWAP1 JUMPDEST DUP2 SLOAD DUP2 MSTORE PUSH1 0x20 ADD SWAP1 PUSH1 0x1 ADD SWAP1 DUP1 DUP4 GT PUSH2 0x1478 JUMPI JUMPDEST POP POP POP SWAP2 DUP4 MSTORE POP POP PUSH1 0x5 DUP3 ADD SLOAD PUSH1 0x20 DUP3 ADD MSTORE PUSH1 0x6 DUP3 ADD SLOAD PUSH1 0x40 DUP3 ADD MSTORE PUSH1 0x7 SWAP1 SWAP2 ADD SLOAD PUSH1 0xFF DUP1 DUP3 AND ISZERO ISZERO PUSH1 0x60 DUP5 ADD MSTORE PUSH2 0x100 DUP1 DUP4 DIV DUP3 AND ISZERO ISZERO PUSH1 0x80 DUP6 ADD MSTORE PUSH3 0x10000 DUP4 DIV DUP3 AND ISZERO ISZERO PUSH1 0xA0 DUP6 ADD MSTORE PUSH4 0x1000000 DUP4 DIV DUP3 AND ISZERO ISZERO PUSH1 0xC0 DUP6 ADD MSTORE PUSH5 0x100000000 DUP4 DIV DUP3 AND ISZERO ISZERO PUSH1 0xE0 DUP6 ADD MSTORE PUSH1 0x1 PUSH1 0x28 SHL DUP4 DIV DUP3 AND ISZERO ISZERO SWAP1 DUP5 ADD MSTORE PUSH1 0x1 PUSH1 0x30 SHL SWAP1 SWAP2 DIV AND ISZERO ISZERO PUSH2 0x120 SWAP1 SWAP2 ADD MSTORE SWAP3 SWAP2 POP POP JUMP JUMPDEST PUSH2 0x1528 PUSH2 0x1800 JUMP JUMPDEST PUSH1 0x1 PUSH1 0x1 PUSH1 0xA0 SHL SUB DUP2 AND PUSH2 0x1552 JUMPI PUSH1 0x40 MLOAD PUSH4 0x1E4FBDF7 PUSH1 0xE0 SHL DUP2 MSTORE PUSH1 0x0 PUSH1 0x4 DUP3 ADD MSTORE PUSH1 0x24 ADD PUSH2 0x3AB JUMP JUMPDEST PUSH2 0x611 DUP2 PUSH2 0x182D JUMP JUMPDEST PUSH1 0x2 PUSH1 0x0 SLOAD SUB PUSH2 0x157E JUMPI PUSH1 0x40 MLOAD PUSH4 0x3EE5AEB5 PUSH1 0xE0 SHL DUP2 MSTORE PUSH1 0x4 ADD PUSH1 0x40 MLOAD DUP1 SWAP2 SUB SWAP1 REVERT JUMPDEST PUSH1 0x2 PUSH1 0x0 SSTORE JUMP JUMPDEST PUSH1 0x0 DUP2 DUP2 MSTORE PUSH1 0x2 PUSH1 0x20 MSTORE PUSH1 0x40 DUP2 KECCAK256 PUSH1 0x7 DUP2 ADD DUP1 SLOAD PUSH6 0xFF0000000000 NOT AND PUSH1 0x1 PUSH1 0x28 SHL OR SWAP1 SSTORE PUSH1 0x6 SLOAD PUSH1 0x5 DUP3 ADD SLOAD SWAP2 SWAP3 SWAP2 PUSH2 0x2710 SWAP2 PUSH2 0x15C2 SWAP2 PUSH2 0x1D84 JUMP JUMPDEST PUSH2 0x15CC SWAP2 SWAP1 PUSH2 0x1DA1 JUMP JUMPDEST SWAP1 POP PUSH1 0x0 DUP2 DUP4 PUSH1 0x5 ADD SLOAD PUSH2 0x15E0 SWAP2 SWAP1 PUSH2 0x1DC3 JUMP JUMPDEST PUSH1 0x2 DUP5 ADD SLOAD PUSH1 0x1 DUP6 ADD SLOAD PUSH1 0x40 MLOAD PUSH4 0xA9059CBB PUSH1 0xE0 SHL DUP2 MSTORE PUSH1 0x1 PUSH1 0x1 PUSH1 0xA0 SHL SUB SWAP2 DUP3 AND PUSH1 0x4 DUP3 ADD MSTORE PUSH1 0x24 DUP2 ADD DUP5 SWAP1 MSTORE SWAP3 SWAP4 POP AND SWAP1 PUSH4 0xA9059CBB SWAP1 PUSH1 0x44 ADD PUSH1 0x20 PUSH1 0x40 MLOAD DUP1 DUP4 SUB DUP2 PUSH1 0x0 DUP8 GAS CALL ISZERO DUP1 ISZERO PUSH2 0x163B JUMPI RETURNDATASIZE PUSH1 0x0 DUP1 RETURNDATACOPY RETURNDATASIZE PUSH1 0x0 REVERT JUMPDEST POP POP POP POP PUSH1 0x40 MLOAD RETURNDATASIZE PUSH1 0x1F NOT PUSH1 0x1F DUP3 ADD AND DUP3 ADD DUP1 PUSH1 0x40 MSTORE POP DUP2 ADD SWAP1 PUSH2 0x165F SWAP2 SWAP1 PUSH2 0x1D33 JUMP JUMPDEST POP DUP2 ISZERO PUSH2 0x16E3 JUMPI PUSH1 0x2 DUP4 ADD SLOAD PUSH1 0x5 SLOAD PUSH1 0x40 MLOAD PUSH4 0xA9059CBB PUSH1 0xE0 SHL DUP2 MSTORE PUSH1 0x1 PUSH1 0x1 PUSH1 0xA0 SHL SUB SWAP2 DUP3 AND PUSH1 0x4 DUP3 ADD MSTORE PUSH1 0x24 DUP2 ADD DUP6 SWAP1 MSTORE SWAP2 AND SWAP1 PUSH4 0xA9059CBB SWAP1 PUSH1 0x44 ADD PUSH1 0x20 PUSH1 0x40 MLOAD DUP1 DUP4 SUB DUP2 PUSH1 0x0 DUP8 GAS CALL ISZERO DUP1 ISZERO PUSH2 0x16BD JUMPI RETURNDATASIZE PUSH1 0x0 DUP1 RETURNDATACOPY RETURNDATASIZE PUSH1 0x0 REVERT JUMPDEST POP POP POP POP PUSH1 0x40 MLOAD RETURNDATASIZE PUSH1 0x1F NOT PUSH1 0x1F DUP3 ADD AND DUP3 ADD DUP1 PUSH1 0x40 MSTORE POP DUP2 ADD SWAP1 PUSH2 0x16E1 SWAP2 SWAP1 PUSH2 0x1D33 JUMP JUMPDEST POP JUMPDEST PUSH1 0x0 JUMPDEST PUSH1 0x3 DUP5 ADD SLOAD DUP2 LT ISZERO PUSH2 0x17CE JUMPI DUP4 PUSH1 0x3 ADD DUP2 DUP2 SLOAD DUP2 LT PUSH2 0x1707 JUMPI PUSH2 0x1707 PUSH2 0x1D1D JUMP JUMPDEST PUSH1 0x0 SWAP2 DUP3 MSTORE PUSH1 0x20 SWAP1 SWAP2 KECCAK256 ADD SLOAD DUP5 SLOAD PUSH1 0x4 DUP7 ADD DUP1 SLOAD PUSH1 0x1 PUSH1 0x1 PUSH1 0xA0 SHL SUB SWAP4 DUP5 AND SWAP4 PUSH4 0xA9059CBB SWAP4 AND SWAP2 SWAP1 DUP6 SWAP1 DUP2 LT PUSH2 0x1740 JUMPI PUSH2 0x1740 PUSH2 0x1D1D JUMP JUMPDEST PUSH1 0x0 SWAP2 DUP3 MSTORE PUSH1 0x20 SWAP1 SWAP2 KECCAK256 ADD SLOAD PUSH1 0x40 MLOAD PUSH1 0x1 PUSH1 0x1 PUSH1 0xE0 SHL SUB NOT PUSH1 0xE0 DUP6 SWAP1 SHL AND DUP2 MSTORE PUSH1 0x1 PUSH1 0x1 PUSH1 0xA0 SHL SUB SWAP1 SWAP3 AND PUSH1 0x4 DUP4 ADD MSTORE PUSH1 0x24 DUP3 ADD MSTORE PUSH1 0x44 ADD PUSH1 0x20 PUSH1 0x40 MLOAD DUP1 DUP4 SUB DUP2 PUSH1 0x0 DUP8 GAS CALL ISZERO DUP1 ISZERO PUSH2 0x1797 JUMPI RETURNDATASIZE PUSH1 0x0 DUP1 RETURNDATACOPY RETURNDATASIZE PUSH1 0x0 REVERT JUMPDEST POP POP POP POP PUSH1 0x40 MLOAD RETURNDATASIZE PUSH1 0x1F NOT PUSH1 0x1F DUP3 ADD AND DUP3 ADD DUP1 PUSH1 0x40 MSTORE POP DUP2 ADD SWAP1 PUSH2 0x17BB SWAP2 SWAP1 PUSH2 0x1D33 JUMP JUMPDEST POP DUP1 PUSH2 0x17C6 DUP2 PUSH2 0x1D6B JUMP JUMPDEST SWAP2 POP POP PUSH2 0x16E6 JUMP JUMPDEST POP PUSH1 0x40 MLOAD DUP5 SWAP1 PUSH32 0x2A7D4D9472AF7118644884B9A0EE443540C0027E938DD0AA35BE8ECBE946C0A SWAP1 PUSH1 0x0 SWAP1 LOG2 POP POP POP POP JUMP JUMPDEST PUSH1 0x1 SLOAD PUSH1 0x1 PUSH1 0x1 PUSH1 0xA0 SHL SUB AND CALLER EQ PUSH2 0xDC7 JUMPI PUSH1 0x40 MLOAD PUSH4 0x118CDAA7 PUSH1 0xE0 SHL DUP2 MSTORE CALLER PUSH1 0x4 DUP3 ADD MSTORE PUSH1 0x24 ADD PUSH2 0x3AB JUMP JUMPDEST PUSH1 0x1 DUP1 SLOAD PUSH1 0x1 PUSH1 0x1 PUSH1 0xA0 SHL SUB DUP4 DUP2 AND PUSH1 0x1 PUSH1 0x1 PUSH1 0xA0 SHL SUB NOT DUP4 AND DUP2 OR SWAP1 SWAP4 SSTORE PUSH1 0x40 MLOAD SWAP2 AND SWAP2 SWAP1 DUP3 SWAP1 PUSH32 0x8BE0079C531659141344CD1FD0A4F28419497F9722A3DAAFE3B4186F6B6457E0 SWAP1 PUSH1 0x0 SWAP1 LOG3 POP POP JUMP JUMPDEST DUP3 DUP1 SLOAD DUP3 DUP3 SSTORE SWAP1 PUSH1 0x0 MSTORE PUSH1 0x20 PUSH1 0x0 KECCAK256 SWAP1 DUP2 ADD SWAP3 DUP3 ISZERO PUSH2 0x18D4 JUMPI SWAP2 PUSH1 0x20 MUL DUP3 ADD JUMPDEST DUP3 DUP2 GT ISZERO PUSH2 0x18D4 JUMPI DUP3 MLOAD DUP3 SLOAD PUSH1 0x1 PUSH1 0x1 PUSH1 0xA0 SHL SUB NOT AND PUSH1 0x1 PUSH1 0x1 PUSH1 0xA0 SHL SUB SWAP1 SWAP2 AND OR DUP3 SSTORE PUSH1 0x20 SWAP1 SWAP3 ADD SWAP2 PUSH1 0x1 SWAP1 SWAP2 ADD SWAP1 PUSH2 0x189F JUMP JUMPDEST POP PUSH2 0x18E0 SWAP3 SWAP2 POP PUSH2 0x191F JUMP JUMPDEST POP SWAP1 JUMP JUMPDEST DUP3 DUP1 SLOAD DUP3 DUP3 SSTORE SWAP1 PUSH1 0x0 MSTORE PUSH1 0x20 PUSH1 0x0 KECCAK256 SWAP1 DUP2 ADD SWAP3 DUP3 ISZERO PUSH2 0x18D4 JUMPI SWAP2 PUSH1 0x20 MUL DUP3 ADD JUMPDEST DUP3 DUP2 GT ISZERO PUSH2 0x18D4 JUMPI DUP3 MLOAD DUP3 SSTORE SWAP2 PUSH1 0x20 ADD SWAP2 SWAP1 PUSH1 0x1 ADD SWAP1 PUSH2 0x1904 JUMP JUMPDEST JUMPDEST DUP1 DUP3 GT ISZERO PUSH2 0x18E0 JUMPI PUSH1 0x0 DUP2 SSTORE PUSH1 0x1 ADD PUSH2 0x1920 JUMP JUMPDEST PUSH1 0x0 PUSH1 0x20 DUP3 DUP5 SUB SLT ISZERO PUSH2 0x1946 JUMPI PUSH1 0x0 DUP1 REVERT JUMPDEST POP CALLDATALOAD SWAP2 SWAP1 POP JUMP JUMPDEST DUP1 CALLDATALOAD PUSH1 0x1 PUSH1 0x1 PUSH1 0xA0 SHL SUB DUP2 AND DUP2 EQ PUSH2 0x1964 JUMPI PUSH1 0x0 DUP1 REVERT JUMPDEST SWAP2 SWAP1 POP JUMP JUMPDEST PUSH4 0x4E487B71 PUSH1 0xE0 SHL PUSH1 0x0 MSTORE PUSH1 0x41 PUSH1 0x4 MSTORE PUSH1 0x24 PUSH1 0x0 REVERT JUMPDEST PUSH1 0x40 MLOAD PUSH1 0x1F DUP3 ADD PUSH1 0x1F NOT AND DUP2 ADD PUSH8 0xFFFFFFFFFFFFFFFF DUP2 GT DUP3 DUP3 LT OR ISZERO PUSH2 0x19A8 JUMPI PUSH2 0x19A8 PUSH2 0x1969 JUMP JUMPDEST PUSH1 0x40 MSTORE SWAP2 SWAP1 POP JUMP JUMPDEST PUSH1 0x0 PUSH8 0xFFFFFFFFFFFFFFFF DUP3 GT ISZERO PUSH2 0x19CA JUMPI PUSH2 0x19CA PUSH2 0x1969 JUMP JUMPDEST POP PUSH1 0x5 SHL PUSH1 0x20 ADD SWAP1 JUMP JUMPDEST PUSH1 0x0 DUP3 PUSH1 0x1F DUP4 ADD SLT PUSH2 0x19E5 JUMPI PUSH1 0x0 DUP1 REVERT JUMPDEST DUP2 CALLDATALOAD PUSH1 0x20 PUSH2 0x19FA PUSH2 0x19F5 DUP4 PUSH2 0x19B0 JUMP JUMPDEST PUSH2 0x197F JUMP JUMPDEST DUP3 DUP2 MSTORE PUSH1 0x5 SWAP3 SWAP1 SWAP3 SHL DUP5 ADD DUP2 ADD SWAP2 DUP2 DUP2 ADD SWAP1 DUP7 DUP5 GT ISZERO PUSH2 0x1A19 JUMPI PUSH1 0x0 DUP1 REVERT JUMPDEST DUP3 DUP7 ADD JUMPDEST DUP5 DUP2 LT ISZERO PUSH2 0x1A34 JUMPI DUP1 CALLDATALOAD DUP4 MSTORE SWAP2 DUP4 ADD SWAP2 DUP4 ADD PUSH2 0x1A1D JUMP JUMPDEST POP SWAP7 SWAP6 POP POP POP POP POP POP JUMP JUMPDEST PUSH1 0x0 DUP1 PUSH1 0x0 DUP1 PUSH1 0x0 DUP1 PUSH1 0xC0 DUP8 DUP10 SUB SLT ISZERO PUSH2 0x1A58 JUMPI PUSH1 0x0 DUP1 REVERT JUMPDEST PUSH2 0x1A61 DUP8 PUSH2 0x194D JUMP JUMPDEST SWAP6 POP PUSH1 0x20 PUSH2 0x1A70 DUP2 DUP10 ADD PUSH2 0x194D JUMP JUMPDEST SWAP6 POP PUSH1 0x40 DUP9 ADD CALLDATALOAD PUSH8 0xFFFFFFFFFFFFFFFF DUP1 DUP3 GT ISZERO PUSH2 0x1A8D JUMPI PUSH1 0x0 DUP1 REVERT JUMPDEST DUP2 DUP11 ADD SWAP2 POP DUP11 PUSH1 0x1F DUP4 ADD SLT PUSH2 0x1AA1 JUMPI PUSH1 0x0 DUP1 REVERT JUMPDEST DUP2 CALLDATALOAD PUSH2 0x1AAF PUSH2 0x19F5 DUP3 PUSH2 0x19B0 JUMP JUMPDEST DUP2 DUP2 MSTORE PUSH1 0x5 SWAP2 SWAP1 SWAP2 SHL DUP4 ADD DUP5 ADD SWAP1 DUP5 DUP2 ADD SWAP1 DUP14 DUP4 GT ISZERO PUSH2 0x1ACE JUMPI PUSH1 0x0 DUP1 REVERT JUMPDEST SWAP4 DUP6 ADD SWAP4 JUMPDEST DUP3 DUP6 LT ISZERO PUSH2 0x1AF3 JUMPI PUSH2 0x1AE4 DUP6 PUSH2 0x194D JUMP JUMPDEST DUP3 MSTORE SWAP4 DUP6 ADD SWAP4 SWAP1 DUP6 ADD SWAP1 PUSH2 0x1AD3 JUMP JUMPDEST SWAP9 POP POP POP PUSH1 0x60 DUP11 ADD CALLDATALOAD SWAP3 POP DUP1 DUP4 GT ISZERO PUSH2 0x1B0B JUMPI PUSH1 0x0 DUP1 REVERT JUMPDEST POP POP PUSH2 0x1B19 DUP10 DUP3 DUP11 ADD PUSH2 0x19D4 JUMP JUMPDEST SWAP4 POP POP PUSH1 0x80 DUP8 ADD CALLDATALOAD SWAP2 POP PUSH1 0xA0 DUP8 ADD CALLDATALOAD SWAP1 POP SWAP3 SWAP6 POP SWAP3 SWAP6 POP SWAP3 SWAP6 JUMP JUMPDEST PUSH1 0x0 PUSH1 0x20 DUP3 DUP5 SUB SLT ISZERO PUSH2 0x1B46 JUMPI PUSH1 0x0 DUP1 REVERT JUMPDEST PUSH2 0x1B4F DUP3 PUSH2 0x194D JUMP JUMPDEST SWAP4 SWAP3 POP POP POP JUMP JUMPDEST PUSH1 0x0 DUP2 MLOAD DUP1 DUP5 MSTORE PUSH1 0x20 DUP1 DUP6 ADD SWAP5 POP DUP1 DUP5 ADD PUSH1 0x0 JUMPDEST DUP4 DUP2 LT ISZERO PUSH2 0x1B8F JUMPI DUP2 MLOAD PUSH1 0x1 PUSH1 0x1 PUSH1 0xA0 SHL SUB AND DUP8 MSTORE SWAP6 DUP3 ADD SWAP6 SWAP1 DUP3 ADD SWAP1 PUSH1 0x1 ADD PUSH2 0x1B6A JUMP JUMPDEST POP SWAP5 SWAP6 SWAP5 POP POP POP POP POP JUMP JUMPDEST PUSH1 0x0 DUP2 MLOAD DUP1 DUP5 MSTORE PUSH1 0x20 DUP1 DUP6 ADD SWAP5 POP DUP1 DUP5 ADD PUSH1 0x0 JUMPDEST DUP4 DUP2 LT ISZERO PUSH2 0x1B8F JUMPI DUP2 MLOAD DUP8 MSTORE SWAP6 DUP3 ADD SWAP6 SWAP1 DUP3 ADD SWAP1 PUSH1 0x1 ADD PUSH2 0x1BAE JUMP JUMPDEST PUSH1 0x20 DUP2 MSTORE PUSH2 0x1BE4 PUSH1 0x20 DUP3 ADD DUP4 MLOAD PUSH1 0x1 PUSH1 0x1 PUSH1 0xA0 SHL SUB AND SWAP1 MSTORE JUMP JUMPDEST PUSH1 0x0 PUSH1 0x20 DUP4 ADD MLOAD PUSH2 0x1C00 PUSH1 0x40 DUP5 ADD DUP3 PUSH1 0x1 PUSH1 0x1 PUSH1 0xA0 SHL SUB AND SWAP1 MSTORE JUMP JUMPDEST POP PUSH1 0x40 DUP4 ADD MLOAD PUSH1 0x1 PUSH1 0x1 PUSH1 0xA0 SHL SUB DUP2 AND PUSH1 0x60 DUP5 ADD MSTORE POP PUSH1 0x60 DUP4 ADD MLOAD PUSH2 0x1C0 DUP1 PUSH1 0x80 DUP6 ADD MSTORE PUSH2 0x1C32 PUSH2 0x1E0 DUP6 ADD DUP4 PUSH2 0x1B56 JUMP JUMPDEST SWAP2 POP PUSH1 0x80 DUP6 ADD MLOAD PUSH1 0x1F NOT DUP6 DUP5 SUB ADD PUSH1 0xA0 DUP7 ADD MSTORE PUSH2 0x1C4F DUP4 DUP3 PUSH2 0x1B9A JUMP JUMPDEST SWAP3 POP POP PUSH1 0xA0 DUP6 ADD MLOAD PUSH1 0xC0 DUP6 ADD MSTORE PUSH1 0xC0 DUP6 ADD MLOAD PUSH1 0xE0 DUP6 ADD MSTORE PUSH1 0xE0 DUP6 ADD MLOAD PUSH2 0x100 PUSH2 0x1C7B DUP2 DUP8 ADD DUP4 ISZERO ISZERO SWAP1 MSTORE JUMP JUMPDEST DUP7 ADD MLOAD SWAP1 POP PUSH2 0x120 PUSH2 0x1C90 DUP7 DUP3 ADD DUP4 ISZERO ISZERO SWAP1 MSTORE JUMP JUMPDEST DUP7 ADD MLOAD SWAP1 POP PUSH2 0x140 PUSH2 0x1CA5 DUP7 DUP3 ADD DUP4 ISZERO ISZERO SWAP1 MSTORE JUMP JUMPDEST DUP7 ADD MLOAD SWAP1 POP PUSH2 0x160 PUSH2 0x1CBA DUP7 DUP3 ADD DUP4 ISZERO ISZERO SWAP1 MSTORE JUMP JUMPDEST DUP7 ADD MLOAD SWAP1 POP PUSH2 0x180 PUSH2 0x1CCF DUP7 DUP3 ADD DUP4 ISZERO ISZERO SWAP1 MSTORE JUMP JUMPDEST DUP7 ADD MLOAD SWAP1 POP PUSH2 0x1A0 PUSH2 0x1CE4 DUP7 DUP3 ADD DUP4 ISZERO ISZERO SWAP1 MSTORE JUMP JUMPDEST SWAP1 SWAP6 ADD MLOAD ISZERO ISZERO SWAP4 ADD SWAP3 SWAP1 SWAP3 MSTORE POP SWAP2 SWAP1 POP JUMP JUMPDEST PUSH1 0x20 DUP1 DUP3 MSTORE PUSH1 0xD SWAP1 DUP3 ADD MSTORE PUSH13 0x13DC99195C88195E1C1A5C9959 PUSH1 0x9A SHL PUSH1 0x40 DUP3 ADD MSTORE PUSH1 0x60 ADD SWAP1 JUMP JUMPDEST PUSH4 0x4E487B71 PUSH1 0xE0 SHL PUSH1 0x0 MSTORE PUSH1 0x32 PUSH1 0x4 MSTORE PUSH1 0x24 PUSH1 0x0 REVERT JUMPDEST PUSH1 0x0 PUSH1 0x20 DUP3 DUP5 SUB SLT ISZERO PUSH2 0x1D45 JUMPI PUSH1 0x0 DUP1 REVERT JUMPDEST DUP2 MLOAD DUP1 ISZERO ISZERO DUP2 EQ PUSH2 0x1B4F JUMPI PUSH1 0x0 DUP1 REVERT JUMPDEST PUSH4 0x4E487B71 PUSH1 0xE0 SHL PUSH1 0x0 MSTORE PUSH1 0x11 PUSH1 0x4 MSTORE PUSH1 0x24 PUSH1 0x0 REVERT JUMPDEST PUSH1 0x0 PUSH1 0x1 DUP3 ADD PUSH2 0x1D7D JUMPI PUSH2 0x1D7D PUSH2 0x1D55 JUMP JUMPDEST POP PUSH1 0x1 ADD SWAP1 JUMP JUMPDEST DUP1 DUP3 MUL DUP2 ISZERO DUP3 DUP3 DIV DUP5 EQ OR PUSH2 0x1D9B JUMPI PUSH2 0x1D9B PUSH2 0x1D55 JUMP JUMPDEST SWAP3 SWAP2 POP POP JUMP JUMPDEST PUSH1 0x0 DUP3 PUSH2 0x1DBE JUMPI PUSH4 0x4E487B71 PUSH1 0xE0 SHL PUSH1 0x0 MSTORE PUSH1 0x12 PUSH1 0x4 MSTORE PUSH1 0x24 PUSH1 0x0 REVERT JUMPDEST POP DIV SWAP1 JUMP JUMPDEST DUP2 DUP2 SUB DUP2 DUP2 GT ISZERO PUSH2 0x1D9B JUMPI PUSH2 0x1D9B PUSH2 0x1D55 JUMP INVALID LOG2 PUSH5 0x6970667358 0x22 SLT KECCAK256 0xDF 0xF6 0xFC PUSH31 0x7F1326F1708C988CC5EC240870030A4325944010F9E45DE724B8D7A264736F PUSH13 0x63430008140033000000000000 "},"methodIdentifiers":{"cancelOrder(uint256)":"514fcac7","centralAuthority()":"e77ff2f6","createOrder(address,address,address[],uint256[],uint256,uint256)":"8e8f3112","deliverAssets(uint256)":"08c5e400","depositPayment(uint256)":"6b749c47","feeCollector()":"c415b95c","feePercentage()":"a001ecdd","getOrder(uint256)":"d09ef241","orderCounter()":"b789bf52","orders(uint256)":"a85c38ef","owner()":"8da5cb5b","renounceOwnership()":"715018a6","setFeeCollector(address)":"a42dce80","setFeePercentage(uint256)":"ae06c1b7","transferOwnership(address)":"f2fde38b","verifyOrder(uint256)":"347dd4f0"}}}}}