{"contracts/SimpleCentralAuthority.sol":{"SimpleCentralAuthority":{"abi":[{"inputs":[{"internalType":"address","name":"defaultAdmin","type":"address"}],"stateMutability":"nonpayable","type":"constructor"},{"inputs":[],"name":"AccessControlBadConfirmation","type":"error"},{"inputs":[{"internalType":"address","name":"account","type":"address"},{"internalType":"bytes32","name":"neededRole","type":"bytes32"}],"name":"AccessControlUnauthorizedAccount","type":"error"},{"inputs":[],"name":"EnforcedPause","type":"error"},{"inputs":[],"name":"ExpectedPause","type":"error"},{"anonymous":false,"inputs":[{"indexed":true,"internalType":"uint256","name":"verificationId","type":"uint256"},{"indexed":true,"internalType":"address","name":"supplier","type":"address"},{"indexed":false,"internalType":"string","name":"assetType","type":"string"},{"indexed":false,"internalType":"uint256","name":"quantity","type":"uint256"}],"name":"AssetVerified","type":"event"},{"anonymous":false,"inputs":[{"indexed":false,"internalType":"address","name":"account","type":"address"}],"name":"Paused","type":"event"},{"anonymous":false,"inputs":[{"indexed":true,"internalType":"bytes32","name":"role","type":"bytes32"},{"indexed":true,"internalType":"bytes32","name":"previousAdminRole","type":"bytes32"},{"indexed":true,"internalType":"bytes32","name":"newAdminRole","type":"bytes32"}],"name":"RoleAdminChanged","type":"event"},{"anonymous":false,"inputs":[{"indexed":true,"internalType":"bytes32","name":"role","type":"bytes32"},{"indexed":true,"internalType":"address","name":"account","type":"address"},{"indexed":true,"internalType":"address","name":"sender","type":"address"}],"name":"RoleGranted","type":"event"},{"anonymous":false,"inputs":[{"indexed":true,"internalType":"bytes32","name":"role","type":"bytes32"},{"indexed":true,"internalType":"address","name":"account","type":"address"},{"indexed":true,"internalType":"address","name":"sender","type":"address"}],"name":"RoleRevoked","type":"event"},{"anonymous":false,"inputs":[{"indexed":true,"internalType":"address","name":"supplier","type":"address"}],"name":"SupplierApproved","type":"event"},{"anonymous":false,"inputs":[{"indexed":true,"internalType":"address","name":"supplier","type":"address"},{"indexed":false,"internalType":"string","name":"name","type":"string"}],"name":"SupplierRegistered","type":"event"},{"anonymous":false,"inputs":[{"indexed":true,"internalType":"address","name":"token","type":"address"},{"indexed":true,"internalType":"address","name":"recipient","type":"address"},{"indexed":false,"internalType":"uint256","name":"amount","type":"uint256"}],"name":"TokenMinted","type":"event"},{"anonymous":false,"inputs":[{"indexed":true,"internalType":"address","name":"tokenAddress","type":"address"},{"indexed":false,"internalType":"string","name":"assetType","type":"string"}],"name":"TokenRegistered","type":"event"},{"anonymous":false,"inputs":[{"indexed":false,"internalType":"address","name":"account","type":"address"}],"name":"Unpaused","type":"event"},{"inputs":[],"name":"DEFAULT_ADMIN_ROLE","outputs":[{"internalType":"bytes32","name":"","type":"bytes32"}],"stateMutability":"view","type":"function"},{"inputs":[],"name":"OPERATOR_ROLE","outputs":[{"internalType":"bytes32","name":"","type":"bytes32"}],"stateMutability":"view","type":"function"},{"inputs":[],"name":"VERIFIER_ROLE","outputs":[{"internalType":"bytes32","name":"","type":"bytes32"}],"stateMutability":"view","type":"function"},{"inputs":[{"internalType":"address","name":"supplierAddress","type":"address"}],"name":"approveSupplier","outputs":[],"stateMutability":"nonpayable","type":"function"},{"inputs":[{"internalType":"uint256","name":"","type":"uint256"}],"name":"assetVerifications","outputs":[{"internalType":"address","name":"supplier","type":"address"},{"internalType":"string","name":"assetType","type":"string"},{"internalType":"uint256","name":"quantity","type":"uint256"},{"internalType":"string","name":"location","type":"string"},{"internalType":"string","name":"verificationNotes","type":"string"},{"internalType":"uint256","name":"timestamp","type":"uint256"},{"internalType":"address","name":"verifier","type":"address"}],"stateMutability":"view","type":"function"},{"inputs":[{"internalType":"address","name":"tokenAddress","type":"address"},{"internalType":"address","name":"recipient","type":"address"},{"internalType":"uint256","name":"amount","type":"uint256"},{"internalType":"uint256","name":"createdAt","type":"uint256"},{"internalType":"uint256","name":"expiryTimestamp","type":"uint256"},{"internalType":"string","name":"location","type":"string"}],"name":"authorizeTokenMinting","outputs":[],"stateMutability":"nonpayable","type":"function"},{"inputs":[{"internalType":"address","name":"tokenAddress","type":"address"},{"internalType":"address","name":"holder","type":"address"}],"name":"emergencyBurnExpiredTokens","outputs":[],"stateMutability":"nonpayable","type":"function"},{"inputs":[{"internalType":"uint256","name":"verificationId","type":"uint256"}],"name":"getAssetVerification","outputs":[{"components":[{"internalType":"address","name":"supplier","type":"address"},{"internalType":"string","name":"assetType","type":"string"},{"internalType":"uint256","name":"quantity","type":"uint256"},{"internalType":"string","name":"location","type":"string"},{"internalType":"string","name":"verificationNotes","type":"string"},{"internalType":"uint256","name":"timestamp","type":"uint256"},{"internalType":"address","name":"verifier","type":"address"}],"internalType":"struct SimpleCentralAuthority.AssetVerification","name":"","type":"tuple"}],"stateMutability":"view","type":"function"},{"inputs":[{"internalType":"bytes32","name":"role","type":"bytes32"}],"name":"getRoleAdmin","outputs":[{"internalType":"bytes32","name":"","type":"bytes32"}],"stateMutability":"view","type":"function"},{"inputs":[{"internalType":"address","name":"supplier","type":"address"}],"name":"getSupplierInfo","outputs":[{"internalType":"string","name":"name","type":"string"},{"internalType":"string","name":"location","type":"string"},{"internalType":"string[]","name":"assetTypes","type":"string[]"},{"internalType":"bool","name":"isApproved","type":"bool"},{"internalType":"uint256","name":"registrationTime","type":"uint256"}],"stateMutability":"view","type":"function"},{"inputs":[{"internalType":"bytes32","name":"role","type":"bytes32"},{"internalType":"address","name":"account","type":"address"}],"name":"grantRole","outputs":[],"stateMutability":"nonpayable","type":"function"},{"inputs":[{"internalType":"bytes32","name":"role","type":"bytes32"},{"internalType":"address","name":"account","type":"address"}],"name":"hasRole","outputs":[{"internalType":"bool","name":"","type":"bool"}],"stateMutability":"view","type":"function"},{"inputs":[{"internalType":"address","name":"supplier","type":"address"}],"name":"isSupplierApproved","outputs":[{"internalType":"bool","name":"","type":"bool"}],"stateMutability":"view","type":"function"},{"inputs":[],"name":"pause","outputs":[],"stateMutability":"nonpayable","type":"function"},{"inputs":[],"name":"paused","outputs":[{"internalType":"bool","name":"","type":"bool"}],"stateMutability":"view","type":"function"},{"inputs":[{"internalType":"address","name":"supplierAddress","type":"address"},{"internalType":"string","name":"name","type":"string"},{"internalType":"string","name":"location","type":"string"},{"internalType":"string[]","name":"assetTypes","type":"string[]"}],"name":"registerSupplier","outputs":[],"stateMutability":"nonpayable","type":"function"},{"inputs":[{"internalType":"address","name":"tokenAddress","type":"address"},{"internalType":"string","name":"assetType","type":"string"}],"name":"registerToken","outputs":[],"stateMutability":"nonpayable","type":"function"},{"inputs":[{"internalType":"address","name":"","type":"address"},{"internalType":"string","name":"","type":"string"}],"name":"registeredTokens","outputs":[{"internalType":"address","name":"","type":"address"}],"stateMutability":"view","type":"function"},{"inputs":[{"internalType":"bytes32","name":"role","type":"bytes32"},{"internalType":"address","name":"callerConfirmation","type":"address"}],"name":"renounceRole","outputs":[],"stateMutability":"nonpayable","type":"function"},{"inputs":[{"internalType":"bytes32","name":"role","type":"bytes32"},{"internalType":"address","name":"account","type":"address"}],"name":"revokeRole","outputs":[],"stateMutability":"nonpayable","type":"function"},{"inputs":[{"internalType":"address","name":"","type":"address"}],"name":"suppliers","outputs":[{"internalType":"string","name":"name","type":"string"},{"internalType":"string","name":"location","type":"string"},{"internalType":"bool","name":"isApproved","type":"bool"},{"internalType":"uint256","name":"registrationTime","type":"uint256"}],"stateMutability":"view","type":"function"},{"inputs":[{"internalType":"bytes4","name":"interfaceId","type":"bytes4"}],"name":"supportsInterface","outputs":[{"internalType":"bool","name":"","type":"bool"}],"stateMutability":"view","type":"function"},{"inputs":[],"name":"unpause","outputs":[],"stateMutability":"nonpayable","type":"function"},{"inputs":[],"name":"verificationCounter","outputs":[{"internalType":"uint256","name":"","type":"uint256"}],"stateMutability":"view","type":"function"},{"inputs":[{"internalType":"address","name":"supplier","type":"address"},{"internalType":"string","name":"assetType","type":"string"},{"internalType":"uint256","name":"quantity","type":"uint256"},{"internalType":"string","name":"location","type":"string"},{"internalType":"string","name":"verificationNotes","type":"string"}],"name":"verifyAssetBacking","outputs":[{"internalType":"uint256","name":"","type":"uint256"}],"stateMutability":"nonpayable","type":"function"}],"evm":{"bytecode":{"linkReferences":{},"object":"60806040523480156200001157600080fd5b506040516200215c3803806200215c833981016040819052620000349162000152565b62000041600082620000a3565b506200006e7f0ce23c3e399818cfee81a7ab0880f714e53d7672b08df0fa62f2843416e1ea0982620000a3565b506200009b7f97667070c54ef182b0f5858b034beac1b6f3089aa2d3188bb1e8929f4fa9b92982620000a3565b505062000184565b6000828152602081815260408083206001600160a01b038516845290915281205460ff1662000148576000838152602081815260408083206001600160a01b03861684529091529020805460ff19166001179055620000ff3390565b6001600160a01b0316826001600160a01b0316847f2f8788117e7eff1d82e926ec794901d17c78024a50270940304540a733656f0d60405160405180910390a45060016200014c565b5060005b92915050565b6000602082840312156200016557600080fd5b81516001600160a01b03811681146200017d57600080fd5b9392505050565b611fc880620001946000396000f3fe608060405234801561001057600080fd5b50600436106101735760003560e01c80638456cb59116100de578063bd35971911610097578063de0ff8a111610071578063de0ff8a11461039d578063e7705db6146103c3578063ed6e2141146103d8578063f5b541a6146103eb57600080fd5b8063bd35971914610357578063d4fbeb1914610377578063d547741f1461038a57600080fd5b80638456cb59146102b157806391d14854146102b95780639c839b2e146102cc578063a217fddf146102df578063afce7235146102e7578063b76e353b1461034457600080fd5b80632f2ff15d116101305780632f2ff15d1461022557806336568abe146102385780633f4ba83a1461024b57806359435f04146102535780635c975abb146102775780637c1b2b9d1461028257600080fd5b806301ffc9a714610178578063020ecff4146101a057806304d2b510146101b557806316cd94fc146101c857806316dc15fe146101df578063248a9ca314610202575b600080fd5b61018b61018636600461173a565b610412565b60405190151581526020015b60405180910390f35b6101b36101ae366004611787565b610449565b005b6101b36101c3366004611859565b61051e565b6101d160055481565b604051908152602001610197565b6101f26101ed366004611787565b6106f4565b60405161019794939291906119c6565b6101d16102103660046119ff565b60009081526020819052604090206001015490565b6101b3610233366004611a18565b610830565b6101b3610246366004611a18565b61085b565b6101b3610893565b610266610261366004611787565b6108a9565b604051610197959493929190611a44565b60015460ff1661018b565b61018b610290366004611787565b6001600160a01b031660009081526002602052604090206003015460ff1690565b6101b3610b25565b61018b6102c7366004611a18565b610b38565b6101b36102da366004611ae1565b610b61565b6101d1600081565b61032c6102f5366004611b0b565b600360209081526000928352604090922081518083018401805192815290840192909301919091209152546001600160a01b031681565b6040516001600160a01b039091168152602001610197565b6101d1610352366004611b59565b610bcc565b61036a6103653660046119ff565b610d84565b6040516101979190611bfc565b6101b3610385366004611b0b565b610fe6565b6101b3610398366004611a18565b6110c9565b6103b06103ab3660046119ff565b6110ee565b6040516101979796959493929190611c96565b6101d1600080516020611f7383398151915281565b6101b36103e6366004611d01565b6112d5565b6101d17f97667070c54ef182b0f5858b034beac1b6f3089aa2d3188bb1e8929f4fa9b92981565b60006001600160e01b03198216637965db0b60e01b148061044357506301ffc9a760e01b6001600160e01b03198316145b92915050565b600080516020611f7383398151915261046181611463565b6001600160a01b0382166000908152600260205260409020600401546104ce5760405162461bcd60e51b815260206004820152601760248201527f537570706c696572206e6f74207265676973746572656400000000000000000060448201526064015b60405180910390fd5b6001600160a01b038216600081815260026020526040808220600301805460ff19166001179055517fe070936067f74dcd7331d2f68790b5f2e4848d89dec927f7d7b733b2df4c7b279190a25050565b7f97667070c54ef182b0f5858b034beac1b6f3089aa2d3188bb1e8929f4fa9b92961054881611463565b6001600160a01b03851661059e5760405162461bcd60e51b815260206004820152601860248201527f496e76616c696420737570706c6965722061646472657373000000000000000060448201526064016104c5565b6001600160a01b038516600090815260026020526040902060040154156106075760405162461bcd60e51b815260206004820152601b60248201527f537570706c69657220616c72656164792072656769737465726564000000000060448201526064016104c5565b6040805160a08101825285815260208082018690528183018590526000606083018190524260808401526001600160a01b0389168152600290915291909120815181906106549082611e03565b50602082015160018201906106699082611e03565b506040820151805161068591600284019160209091019061167d565b50606082015160038201805460ff19169115159190911790556080909101516004909101556040516001600160a01b038616907fd52881a6125270bc10edc37221b17d746ef540e29867a40b76ed110ef520224c906106e5908790611ec3565b60405180910390a25050505050565b60026020526000908152604090208054819061070f90611d7b565b80601f016020809104026020016040519081016040528092919081815260200182805461073b90611d7b565b80156107885780601f1061075d57610100808354040283529160200191610788565b820191906000526020600020905b81548152906001019060200180831161076b57829003601f168201915b50505050509080600101805461079d90611d7b565b80601f01602080910402602001604051908101604052809291908181526020018280546107c990611d7b565b80156108165780601f106107eb57610100808354040283529160200191610816565b820191906000526020600020905b8154815290600101906020018083116107f957829003601f168201915b505050506003830154600490930154919260ff1691905084565b60008281526020819052604090206001015461084b81611463565b610855838361146d565b50505050565b6001600160a01b03811633146108845760405163334bd91960e11b815260040160405180910390fd5b61088e82826114ff565b505050565b600061089e81611463565b6108a661156a565b50565b6060806060600080600060026000886001600160a01b03166001600160a01b031681526020019081526020016000206040518060a00160405290816000820180546108f390611d7b565b80601f016020809104026020016040519081016040528092919081815260200182805461091f90611d7b565b801561096c5780601f106109415761010080835404028352916020019161096c565b820191906000526020600020905b81548152906001019060200180831161094f57829003601f168201915b5050505050815260200160018201805461098590611d7b565b80601f01602080910402602001604051908101604052809291908181526020018280546109b190611d7b565b80156109fe5780601f106109d3576101008083540402835291602001916109fe565b820191906000526020600020905b8154815290600101906020018083116109e157829003601f168201915b5050505050815260200160028201805480602002602001604051908101604052809291908181526020016000905b82821015610ad8578382906000526020600020018054610a4b90611d7b565b80601f0160208091040260200160405190810160405280929190818152602001828054610a7790611d7b565b8015610ac45780601f10610a9957610100808354040283529160200191610ac4565b820191906000526020600020905b815481529060010190602001808311610aa757829003601f168201915b505050505081526020019060010190610a2c565b50505090825250600382015460ff161515602080830191909152600490920154604091820152825191830151908301516060840151608090940151929b919a509850919650945092505050565b6000610b3081611463565b6108a66115bc565b6000918252602082815260408084206001600160a01b0393909316845291905290205460ff1690565b6000610b6c81611463565b60405163db556e3d60e01b81526001600160a01b03838116600483015284169063db556e3d90602401600060405180830381600087803b158015610baf57600080fd5b505af1158015610bc3573d6000803e3d6000fd5b50505050505050565b6000600080516020611f73833981519152610be681611463565b6001600160a01b03871660009081526002602052604090206003015460ff16610c495760405162461bcd60e51b815260206004820152601560248201527414dd5c1c1b1a595c881b9bdd08185c1c1c9bdd9959605a1b60448201526064016104c5565b6005805460009182610c5a83611ed6565b909155506040805160e0810182526001600160a01b038b8116825260208083018c81528385018c9052606084018b9052608084018a90524260a08501523360c085015260008681526004909252939020825181546001600160a01b03191692169190911781559151929350916001820190610cd59082611e03565b506040820151600282015560608201516003820190610cf49082611e03565b5060808201516004820190610d099082611e03565b5060a0820151600582015560c090910151600690910180546001600160a01b0319166001600160a01b039283161790556040519089169082907f858e5d1570091376ca084479eba573a1537a4c27ca02f92770d3df3b98fd8d4990610d71908b908b90611efd565b60405180910390a3979650505050505050565b610dd66040518060e0016040528060006001600160a01b03168152602001606081526020016000815260200160608152602001606081526020016000815260200160006001600160a01b031681525090565b600082815260046020908152604091829020825160e0810190935280546001600160a01b031683526001810180549192840191610e1290611d7b565b80601f0160208091040260200160405190810160405280929190818152602001828054610e3e90611d7b565b8015610e8b5780601f10610e6057610100808354040283529160200191610e8b565b820191906000526020600020905b815481529060010190602001808311610e6e57829003601f168201915b5050505050815260200160028201548152602001600382018054610eae90611d7b565b80601f0160208091040260200160405190810160405280929190818152602001828054610eda90611d7b565b8015610f275780601f10610efc57610100808354040283529160200191610f27565b820191906000526020600020905b815481529060010190602001808311610f0a57829003601f168201915b50505050508152602001600482018054610f4090611d7b565b80601f0160208091040260200160405190810160405280929190818152602001828054610f6c90611d7b565b8015610fb95780601f10610f8e57610100808354040283529160200191610fb9565b820191906000526020600020905b815481529060010190602001808311610f9c57829003601f168201915b5050509183525050600582015460208201526006909101546001600160a01b031660409091015292915050565b6000610ff181611463565b6001600160a01b03831661103f5760405162461bcd60e51b8152602060048201526015602482015274496e76616c696420746f6b656e206164647265737360581b60448201526064016104c5565b33600090815260036020526040908190209051849190611060908590611f1f565b90815260405190819003602001812080546001600160a01b039384166001600160a01b0319909116179055908416907faaed15520cc86e95b7c2522d968096283afbef7858bdf194b2f60d28a1a8d63e906110bc908590611ec3565b60405180910390a2505050565b6000828152602081905260409020600101546110e481611463565b61085583836114ff565b600460205260009081526040902080546001820180546001600160a01b03909216929161111a90611d7b565b80601f016020809104026020016040519081016040528092919081815260200182805461114690611d7b565b80156111935780601f1061116857610100808354040283529160200191611193565b820191906000526020600020905b81548152906001019060200180831161117657829003601f168201915b5050505050908060020154908060030180546111ae90611d7b565b80601f01602080910402602001604051908101604052809291908181526020018280546111da90611d7b565b80156112275780601f106111fc57610100808354040283529160200191611227565b820191906000526020600020905b81548152906001019060200180831161120a57829003601f168201915b50505050509080600401805461123c90611d7b565b80601f016020809104026020016040519081016040528092919081815260200182805461126890611d7b565b80156112b55780601f1061128a576101008083540402835291602001916112b5565b820191906000526020600020905b81548152906001019060200180831161129857829003601f168201915b5050505060058301546006909301549192916001600160a01b0316905087565b600080516020611f738339815191526112ed81611463565b6001600160a01b03871661133b5760405162461bcd60e51b8152602060048201526015602482015274496e76616c696420746f6b656e206164647265737360581b60448201526064016104c5565b6001600160a01b03861660009081526002602052604090206003015460ff166113a65760405162461bcd60e51b815260206004820152601f60248201527f526563697069656e74206e6f7420617070726f76656420737570706c6965720060448201526064016104c5565b60405163bb7fde7160e01b815287906001600160a01b0382169063bb7fde71906113da908a908a9089908990600401611f3b565b600060405180830381600087803b1580156113f457600080fd5b505af1158015611408573d6000803e3d6000fd5b50505050866001600160a01b0316886001600160a01b03167fdf1b2b09e9800d31c599375056be9f9e4eb37f078102643600c4e149714efaad8860405161145191815260200190565b60405180910390a35050505050505050565b6108a681336115f7565b60006114798383610b38565b6114f7576000838152602081815260408083206001600160a01b03861684529091529020805460ff191660011790556114af3390565b6001600160a01b0316826001600160a01b0316847f2f8788117e7eff1d82e926ec794901d17c78024a50270940304540a733656f0d60405160405180910390a4506001610443565b506000610443565b600061150b8383610b38565b156114f7576000838152602081815260408083206001600160a01b0386168085529252808320805460ff1916905551339286917ff6391f5c32d9c69d2a47ea670b442974b53935d1edc7fd64eb21e047a839171b9190a4506001610443565b611572611634565b6001805460ff191690557f5db9ee0a495bf2e6ff9c91a7834c1ba4fdd244a5e8aa4e537bd38aeae4b073aa335b6040516001600160a01b03909116815260200160405180910390a1565b6115c4611659565b6001805460ff1916811790557f62e78cea01bee320cd4e420270b5ea74000d11b0c9f74754ebdbfc544b05a2583361159f565b6116018282610b38565b6116305760405163e2517d3f60e01b81526001600160a01b0382166004820152602481018390526044016104c5565b5050565b60015460ff1661165757604051638dfc202b60e01b815260040160405180910390fd5b565b60015460ff16156116575760405163d93c066560e01b815260040160405180910390fd5b8280548282559060005260206000209081019282156116c3579160200282015b828111156116c357825182906116b39082611e03565b509160200191906001019061169d565b506116cf9291506116d3565b5090565b808211156116cf5760006116e782826116f0565b506001016116d3565b5080546116fc90611d7b565b6000825580601f1061170c575050565b601f0160209004906000526020600020908101906108a691905b808211156116cf5760008155600101611726565b60006020828403121561174c57600080fd5b81356001600160e01b03198116811461176457600080fd5b9392505050565b80356001600160a01b038116811461178257600080fd5b919050565b60006020828403121561179957600080fd5b6117648261176b565b634e487b7160e01b600052604160045260246000fd5b604051601f8201601f1916810167ffffffffffffffff811182821017156117e1576117e16117a2565b604052919050565b600082601f8301126117fa57600080fd5b813567ffffffffffffffff811115611814576118146117a2565b611827601f8201601f19166020016117b8565b81815284602083860101111561183c57600080fd5b816020850160208301376000918101602001919091529392505050565b6000806000806080858703121561186f57600080fd5b6118788561176b565b935060208086013567ffffffffffffffff8082111561189657600080fd5b6118a289838a016117e9565b955060408801359150808211156118b857600080fd5b6118c489838a016117e9565b945060608801359150808211156118da57600080fd5b818801915088601f8301126118ee57600080fd5b813581811115611900576119006117a2565b8060051b61190f8582016117b8565b918252838101850191858101908c84111561192957600080fd5b86860192505b83831015611965578235858111156119475760008081fd5b6119558e89838a01016117e9565b835250918601919086019061192f565b999c989b5096995050505050505050565b60005b83811015611991578181015183820152602001611979565b50506000910152565b600081518084526119b2816020860160208601611976565b601f01601f19169290920160200192915050565b6080815260006119d9608083018761199a565b82810360208401526119eb818761199a565b941515604084015250506060015292915050565b600060208284031215611a1157600080fd5b5035919050565b60008060408385031215611a2b57600080fd5b82359150611a3b6020840161176b565b90509250929050565b60a081526000611a5760a083018861199a565b602083820381850152611a6a828961199a565b915083820360408501528187518084528284019150828160051b850101838a0160005b83811015611abb57601f19878403018552611aa983835161199a565b94860194925090850190600101611a8d565b505088151560608801529450611ad19350505050565b8260808301529695505050505050565b60008060408385031215611af457600080fd5b611afd8361176b565b9150611a3b6020840161176b565b60008060408385031215611b1e57600080fd5b611b278361176b565b9150602083013567ffffffffffffffff811115611b4357600080fd5b611b4f858286016117e9565b9150509250929050565b600080600080600060a08688031215611b7157600080fd5b611b7a8661176b565b9450602086013567ffffffffffffffff80821115611b9757600080fd5b611ba389838a016117e9565b9550604088013594506060880135915080821115611bc057600080fd5b611bcc89838a016117e9565b93506080880135915080821115611be257600080fd5b50611bef888289016117e9565b9150509295509295909350565b60208152600060018060a01b03808451166020840152602084015160e06040850152611c2c61010085018261199a565b9050604085015160608501526060850151601f1980868403016080870152611c54838361199a565b925060808701519150808684030160a087015250611c72828261199a565b91505060a085015160c08501528160c08601511660e0850152809250505092915050565b600060018060a01b03808a16835260e06020840152611cb860e084018a61199a565b8860408501528381036060850152611cd0818961199a565b90508381036080850152611ce4818861199a565b60a0850196909652509290921660c0909101525095945050505050565b60008060008060008060c08789031215611d1a57600080fd5b611d238761176b565b9550611d316020880161176b565b945060408701359350606087013592506080870135915060a087013567ffffffffffffffff811115611d6257600080fd5b611d6e89828a016117e9565b9150509295509295509295565b600181811c90821680611d8f57607f821691505b602082108103611daf57634e487b7160e01b600052602260045260246000fd5b50919050565b601f82111561088e57600081815260208120601f850160051c81016020861015611ddc5750805b601f850160051c820191505b81811015611dfb57828155600101611de8565b505050505050565b815167ffffffffffffffff811115611e1d57611e1d6117a2565b611e3181611e2b8454611d7b565b84611db5565b602080601f831160018114611e665760008415611e4e5750858301515b600019600386901b1c1916600185901b178555611dfb565b600085815260208120601f198616915b82811015611e9557888601518255948401946001909101908401611e76565b5085821015611eb35787850151600019600388901b60f8161c191681555b5050505050600190811b01905550565b602081526000611764602083018461199a565b600060018201611ef657634e487b7160e01b600052601160045260246000fd5b5060010190565b604081526000611f10604083018561199a565b90508260208301529392505050565b60008251611f31818460208701611976565b9190910192915050565b60018060a01b0385168152836020820152826040820152608060608201526000611f68608083018461199a565b969550505050505056fe0ce23c3e399818cfee81a7ab0880f714e53d7672b08df0fa62f2843416e1ea09a26469706673582212207a1086fac24004261fe1e217cd7fbb807311539b80df48e810abbc8859d9d30164736f6c63430008140033","opcodes":"PUSH1 0x80 PUSH1 0x40 MSTORE CALLVALUE DUP1 ISZERO PUSH3 0x11 JUMPI PUSH1 0x0 DUP1 REVERT JUMPDEST POP PUSH1 0x40 MLOAD PUSH3 0x215C CODESIZE SUB DUP1 PUSH3 0x215C DUP4 CODECOPY DUP2 ADD PUSH1 0x40 DUP2 SWAP1 MSTORE PUSH3 0x34 SWAP2 PUSH3 0x152 JUMP JUMPDEST PUSH3 0x41 PUSH1 0x0 DUP3 PUSH3 0xA3 JUMP JUMPDEST POP PUSH3 0x6E PUSH32 0xCE23C3E399818CFEE81A7AB0880F714E53D7672B08DF0FA62F2843416E1EA09 DUP3 PUSH3 0xA3 JUMP JUMPDEST POP PUSH3 0x9B PUSH32 0x97667070C54EF182B0F5858B034BEAC1B6F3089AA2D3188BB1E8929F4FA9B929 DUP3 PUSH3 0xA3 JUMP JUMPDEST POP POP PUSH3 0x184 JUMP JUMPDEST PUSH1 0x0 DUP3 DUP2 MSTORE PUSH1 0x20 DUP2 DUP2 MSTORE PUSH1 0x40 DUP1 DUP4 KECCAK256 PUSH1 0x1 PUSH1 0x1 PUSH1 0xA0 SHL SUB DUP6 AND DUP5 MSTORE SWAP1 SWAP2 MSTORE DUP2 KECCAK256 SLOAD PUSH1 0xFF AND PUSH3 0x148 JUMPI PUSH1 0x0 DUP4 DUP2 MSTORE PUSH1 0x20 DUP2 DUP2 MSTORE PUSH1 0x40 DUP1 DUP4 KECCAK256 PUSH1 0x1 PUSH1 0x1 PUSH1 0xA0 SHL SUB DUP7 AND DUP5 MSTORE SWAP1 SWAP2 MSTORE SWAP1 KECCAK256 DUP1 SLOAD PUSH1 0xFF NOT AND PUSH1 0x1 OR SWAP1 SSTORE PUSH3 0xFF CALLER SWAP1 JUMP JUMPDEST PUSH1 0x1 PUSH1 0x1 PUSH1 0xA0 SHL SUB AND DUP3 PUSH1 0x1 PUSH1 0x1 PUSH1 0xA0 SHL SUB AND DUP5 PUSH32 0x2F8788117E7EFF1D82E926EC794901D17C78024A50270940304540A733656F0D PUSH1 0x40 MLOAD PUSH1 0x40 MLOAD DUP1 SWAP2 SUB SWAP1 LOG4 POP PUSH1 0x1 PUSH3 0x14C JUMP JUMPDEST POP PUSH1 0x0 JUMPDEST SWAP3 SWAP2 POP POP JUMP JUMPDEST PUSH1 0x0 PUSH1 0x20 DUP3 DUP5 SUB SLT ISZERO PUSH3 0x165 JUMPI PUSH1 0x0 DUP1 REVERT JUMPDEST DUP2 MLOAD PUSH1 0x1 PUSH1 0x1 PUSH1 0xA0 SHL SUB DUP2 AND DUP2 EQ PUSH3 0x17D JUMPI PUSH1 0x0 DUP1 REVERT JUMPDEST SWAP4 SWAP3 POP POP POP JUMP JUMPDEST PUSH2 0x1FC8 DUP1 PUSH3 0x194 PUSH1 0x0 CODECOPY PUSH1 0x0 RETURN INVALID PUSH1 0x80 PUSH1 0x40 MSTORE CALLVALUE DUP1 ISZERO PUSH2 0x10 JUMPI PUSH1 0x0 DUP1 REVERT JUMPDEST POP PUSH1 0x4 CALLDATASIZE LT PUSH2 0x173 JUMPI PUSH1 0x0 CALLDATALOAD PUSH1 0xE0 SHR DUP1 PUSH4 0x8456CB59 GT PUSH2 0xDE JUMPI DUP1 PUSH4 0xBD359719 GT PUSH2 0x97 JUMPI DUP1 PUSH4 0xDE0FF8A1 GT PUSH2 0x71 JUMPI DUP1 PUSH4 0xDE0FF8A1 EQ PUSH2 0x39D JUMPI DUP1 PUSH4 0xE7705DB6 EQ PUSH2 0x3C3 JUMPI DUP1 PUSH4 0xED6E2141 EQ PUSH2 0x3D8 JUMPI DUP1 PUSH4 0xF5B541A6 EQ PUSH2 0x3EB JUMPI PUSH1 0x0 DUP1 REVERT JUMPDEST DUP1 PUSH4 0xBD359719 EQ PUSH2 0x357 JUMPI DUP1 PUSH4 0xD4FBEB19 EQ PUSH2 0x377 JUMPI DUP1 PUSH4 0xD547741F EQ PUSH2 0x38A JUMPI PUSH1 0x0 DUP1 REVERT JUMPDEST DUP1 PUSH4 0x8456CB59 EQ PUSH2 0x2B1 JUMPI DUP1 PUSH4 0x91D14854 EQ PUSH2 0x2B9 JUMPI DUP1 PUSH4 0x9C839B2E EQ PUSH2 0x2CC JUMPI DUP1 PUSH4 0xA217FDDF EQ PUSH2 0x2DF JUMPI DUP1 PUSH4 0xAFCE7235 EQ PUSH2 0x2E7 JUMPI DUP1 PUSH4 0xB76E353B EQ PUSH2 0x344 JUMPI PUSH1 0x0 DUP1 REVERT JUMPDEST DUP1 PUSH4 0x2F2FF15D GT PUSH2 0x130 JUMPI DUP1 PUSH4 0x2F2FF15D EQ PUSH2 0x225 JUMPI DUP1 PUSH4 0x36568ABE EQ PUSH2 0x238 JUMPI DUP1 PUSH4 0x3F4BA83A EQ PUSH2 0x24B JUMPI DUP1 PUSH4 0x59435F04 EQ PUSH2 0x253 JUMPI DUP1 PUSH4 0x5C975ABB EQ PUSH2 0x277 JUMPI DUP1 PUSH4 0x7C1B2B9D EQ PUSH2 0x282 JUMPI PUSH1 0x0 DUP1 REVERT JUMPDEST DUP1 PUSH4 0x1FFC9A7 EQ PUSH2 0x178 JUMPI DUP1 PUSH4 0x20ECFF4 EQ PUSH2 0x1A0 JUMPI DUP1 PUSH4 0x4D2B510 EQ PUSH2 0x1B5 JUMPI DUP1 PUSH4 0x16CD94FC EQ PUSH2 0x1C8 JUMPI DUP1 PUSH4 0x16DC15FE EQ PUSH2 0x1DF JUMPI DUP1 PUSH4 0x248A9CA3 EQ PUSH2 0x202 JUMPI JUMPDEST PUSH1 0x0 DUP1 REVERT JUMPDEST PUSH2 0x18B PUSH2 0x186 CALLDATASIZE PUSH1 0x4 PUSH2 0x173A JUMP JUMPDEST PUSH2 0x412 JUMP JUMPDEST PUSH1 0x40 MLOAD SWAP1 ISZERO ISZERO DUP2 MSTORE PUSH1 0x20 ADD JUMPDEST PUSH1 0x40 MLOAD DUP1 SWAP2 SUB SWAP1 RETURN JUMPDEST PUSH2 0x1B3 PUSH2 0x1AE CALLDATASIZE PUSH1 0x4 PUSH2 0x1787 JUMP JUMPDEST PUSH2 0x449 JUMP JUMPDEST STOP JUMPDEST PUSH2 0x1B3 PUSH2 0x1C3 CALLDATASIZE PUSH1 0x4 PUSH2 0x1859 JUMP JUMPDEST PUSH2 0x51E JUMP JUMPDEST PUSH2 0x1D1 PUSH1 0x5 SLOAD DUP2 JUMP JUMPDEST PUSH1 0x40 MLOAD SWAP1 DUP2 MSTORE PUSH1 0x20 ADD PUSH2 0x197 JUMP JUMPDEST PUSH2 0x1F2 PUSH2 0x1ED CALLDATASIZE PUSH1 0x4 PUSH2 0x1787 JUMP JUMPDEST PUSH2 0x6F4 JUMP JUMPDEST PUSH1 0x40 MLOAD PUSH2 0x197 SWAP5 SWAP4 SWAP3 SWAP2 SWAP1 PUSH2 0x19C6 JUMP JUMPDEST PUSH2 0x1D1 PUSH2 0x210 CALLDATASIZE PUSH1 0x4 PUSH2 0x19FF JUMP JUMPDEST PUSH1 0x0 SWAP1 DUP2 MSTORE PUSH1 0x20 DUP2 SWAP1 MSTORE PUSH1 0x40 SWAP1 KECCAK256 PUSH1 0x1 ADD SLOAD SWAP1 JUMP JUMPDEST PUSH2 0x1B3 PUSH2 0x233 CALLDATASIZE PUSH1 0x4 PUSH2 0x1A18 JUMP JUMPDEST PUSH2 0x830 JUMP JUMPDEST PUSH2 0x1B3 PUSH2 0x246 CALLDATASIZE PUSH1 0x4 PUSH2 0x1A18 JUMP JUMPDEST PUSH2 0x85B JUMP JUMPDEST PUSH2 0x1B3 PUSH2 0x893 JUMP JUMPDEST PUSH2 0x266 PUSH2 0x261 CALLDATASIZE PUSH1 0x4 PUSH2 0x1787 JUMP JUMPDEST PUSH2 0x8A9 JUMP JUMPDEST PUSH1 0x40 MLOAD PUSH2 0x197 SWAP6 SWAP5 SWAP4 SWAP3 SWAP2 SWAP1 PUSH2 0x1A44 JUMP JUMPDEST PUSH1 0x1 SLOAD PUSH1 0xFF AND PUSH2 0x18B JUMP JUMPDEST PUSH2 0x18B PUSH2 0x290 CALLDATASIZE PUSH1 0x4 PUSH2 0x1787 JUMP JUMPDEST PUSH1 0x1 PUSH1 0x1 PUSH1 0xA0 SHL SUB AND PUSH1 0x0 SWAP1 DUP2 MSTORE PUSH1 0x2 PUSH1 0x20 MSTORE PUSH1 0x40 SWAP1 KECCAK256 PUSH1 0x3 ADD SLOAD PUSH1 0xFF AND SWAP1 JUMP JUMPDEST PUSH2 0x1B3 PUSH2 0xB25 JUMP JUMPDEST PUSH2 0x18B PUSH2 0x2C7 CALLDATASIZE PUSH1 0x4 PUSH2 0x1A18 JUMP JUMPDEST PUSH2 0xB38 JUMP JUMPDEST PUSH2 0x1B3 PUSH2 0x2DA CALLDATASIZE PUSH1 0x4 PUSH2 0x1AE1 JUMP JUMPDEST PUSH2 0xB61 JUMP JUMPDEST PUSH2 0x1D1 PUSH1 0x0 DUP2 JUMP JUMPDEST PUSH2 0x32C PUSH2 0x2F5 CALLDATASIZE PUSH1 0x4 PUSH2 0x1B0B JUMP JUMPDEST PUSH1 0x3 PUSH1 0x20 SWAP1 DUP2 MSTORE PUSH1 0x0 SWAP3 DUP4 MSTORE PUSH1 0x40 SWAP1 SWAP3 KECCAK256 DUP2 MLOAD DUP1 DUP4 ADD DUP5 ADD DUP1 MLOAD SWAP3 DUP2 MSTORE SWAP1 DUP5 ADD SWAP3 SWAP1 SWAP4 ADD SWAP2 SWAP1 SWAP2 KECCAK256 SWAP2 MSTORE SLOAD PUSH1 0x1 PUSH1 0x1 PUSH1 0xA0 SHL SUB AND DUP2 JUMP JUMPDEST PUSH1 0x40 MLOAD PUSH1 0x1 PUSH1 0x1 PUSH1 0xA0 SHL SUB SWAP1 SWAP2 AND DUP2 MSTORE PUSH1 0x20 ADD PUSH2 0x197 JUMP JUMPDEST PUSH2 0x1D1 PUSH2 0x352 CALLDATASIZE PUSH1 0x4 PUSH2 0x1B59 JUMP JUMPDEST PUSH2 0xBCC JUMP JUMPDEST PUSH2 0x36A PUSH2 0x365 CALLDATASIZE PUSH1 0x4 PUSH2 0x19FF JUMP JUMPDEST PUSH2 0xD84 JUMP JUMPDEST PUSH1 0x40 MLOAD PUSH2 0x197 SWAP2 SWAP1 PUSH2 0x1BFC JUMP JUMPDEST PUSH2 0x1B3 PUSH2 0x385 CALLDATASIZE PUSH1 0x4 PUSH2 0x1B0B JUMP JUMPDEST PUSH2 0xFE6 JUMP JUMPDEST PUSH2 0x1B3 PUSH2 0x398 CALLDATASIZE PUSH1 0x4 PUSH2 0x1A18 JUMP JUMPDEST PUSH2 0x10C9 JUMP JUMPDEST PUSH2 0x3B0 PUSH2 0x3AB CALLDATASIZE PUSH1 0x4 PUSH2 0x19FF JUMP JUMPDEST PUSH2 0x10EE JUMP JUMPDEST PUSH1 0x40 MLOAD PUSH2 0x197 SWAP8 SWAP7 SWAP6 SWAP5 SWAP4 SWAP3 SWAP2 SWAP1 PUSH2 0x1C96 JUMP JUMPDEST PUSH2 0x1D1 PUSH1 0x0 DUP1 MLOAD PUSH1 0x20 PUSH2 0x1F73 DUP4 CODECOPY DUP2 MLOAD SWAP2 MSTORE DUP2 JUMP JUMPDEST PUSH2 0x1B3 PUSH2 0x3E6 CALLDATASIZE PUSH1 0x4 PUSH2 0x1D01 JUMP JUMPDEST PUSH2 0x12D5 JUMP JUMPDEST PUSH2 0x1D1 PUSH32 0x97667070C54EF182B0F5858B034BEAC1B6F3089AA2D3188BB1E8929F4FA9B929 DUP2 JUMP JUMPDEST PUSH1 0x0 PUSH1 0x1 PUSH1 0x1 PUSH1 0xE0 SHL SUB NOT DUP3 AND PUSH4 0x7965DB0B PUSH1 0xE0 SHL EQ DUP1 PUSH2 0x443 JUMPI POP PUSH4 0x1FFC9A7 PUSH1 0xE0 SHL PUSH1 0x1 PUSH1 0x1 PUSH1 0xE0 SHL SUB NOT DUP4 AND EQ JUMPDEST SWAP3 SWAP2 POP POP JUMP JUMPDEST PUSH1 0x0 DUP1 MLOAD PUSH1 0x20 PUSH2 0x1F73 DUP4 CODECOPY DUP2 MLOAD SWAP2 MSTORE PUSH2 0x461 DUP2 PUSH2 0x1463 JUMP JUMPDEST PUSH1 0x1 PUSH1 0x1 PUSH1 0xA0 SHL SUB DUP3 AND PUSH1 0x0 SWAP1 DUP2 MSTORE PUSH1 0x2 PUSH1 0x20 MSTORE PUSH1 0x40 SWAP1 KECCAK256 PUSH1 0x4 ADD SLOAD PUSH2 0x4CE JUMPI PUSH1 0x40 MLOAD PUSH3 0x461BCD PUSH1 0xE5 SHL DUP2 MSTORE PUSH1 0x20 PUSH1 0x4 DUP3 ADD MSTORE PUSH1 0x17 PUSH1 0x24 DUP3 ADD MSTORE PUSH32 0x537570706C696572206E6F742072656769737465726564000000000000000000 PUSH1 0x44 DUP3 ADD MSTORE PUSH1 0x64 ADD JUMPDEST PUSH1 0x40 MLOAD DUP1 SWAP2 SUB SWAP1 REVERT JUMPDEST PUSH1 0x1 PUSH1 0x1 PUSH1 0xA0 SHL SUB DUP3 AND PUSH1 0x0 DUP2 DUP2 MSTORE PUSH1 0x2 PUSH1 0x20 MSTORE PUSH1 0x40 DUP1 DUP3 KECCAK256 PUSH1 0x3 ADD DUP1 SLOAD PUSH1 0xFF NOT AND PUSH1 0x1 OR SWAP1 SSTORE MLOAD PUSH32 0xE070936067F74DCD7331D2F68790B5F2E4848D89DEC927F7D7B733B2DF4C7B27 SWAP2 SWAP1 LOG2 POP POP JUMP JUMPDEST PUSH32 0x97667070C54EF182B0F5858B034BEAC1B6F3089AA2D3188BB1E8929F4FA9B929 PUSH2 0x548 DUP2 PUSH2 0x1463 JUMP JUMPDEST PUSH1 0x1 PUSH1 0x1 PUSH1 0xA0 SHL SUB DUP6 AND PUSH2 0x59E JUMPI PUSH1 0x40 MLOAD PUSH3 0x461BCD PUSH1 0xE5 SHL DUP2 MSTORE PUSH1 0x20 PUSH1 0x4 DUP3 ADD MSTORE PUSH1 0x18 PUSH1 0x24 DUP3 ADD MSTORE PUSH32 0x496E76616C696420737570706C69657220616464726573730000000000000000 PUSH1 0x44 DUP3 ADD MSTORE PUSH1 0x64 ADD PUSH2 0x4C5 JUMP JUMPDEST PUSH1 0x1 PUSH1 0x1 PUSH1 0xA0 SHL SUB DUP6 AND PUSH1 0x0 SWAP1 DUP2 MSTORE PUSH1 0x2 PUSH1 0x20 MSTORE PUSH1 0x40 SWAP1 KECCAK256 PUSH1 0x4 ADD SLOAD ISZERO PUSH2 0x607 JUMPI PUSH1 0x40 MLOAD PUSH3 0x461BCD PUSH1 0xE5 SHL DUP2 MSTORE PUSH1 0x20 PUSH1 0x4 DUP3 ADD MSTORE PUSH1 0x1B PUSH1 0x24 DUP3 ADD MSTORE PUSH32 0x537570706C69657220616C726561647920726567697374657265640000000000 PUSH1 0x44 DUP3 ADD MSTORE PUSH1 0x64 ADD PUSH2 0x4C5 JUMP JUMPDEST PUSH1 0x40 DUP1 MLOAD PUSH1 0xA0 DUP2 ADD DUP3 MSTORE DUP6 DUP2 MSTORE PUSH1 0x20 DUP1 DUP3 ADD DUP7 SWAP1 MSTORE DUP2 DUP4 ADD DUP6 SWAP1 MSTORE PUSH1 0x0 PUSH1 0x60 DUP4 ADD DUP2 SWAP1 MSTORE TIMESTAMP PUSH1 0x80 DUP5 ADD MSTORE PUSH1 0x1 PUSH1 0x1 PUSH1 0xA0 SHL SUB DUP10 AND DUP2 MSTORE PUSH1 0x2 SWAP1 SWAP2 MSTORE SWAP2 SWAP1 SWAP2 KECCAK256 DUP2 MLOAD DUP2 SWAP1 PUSH2 0x654 SWAP1 DUP3 PUSH2 0x1E03 JUMP JUMPDEST POP PUSH1 0x20 DUP3 ADD MLOAD PUSH1 0x1 DUP3 ADD SWAP1 PUSH2 0x669 SWAP1 DUP3 PUSH2 0x1E03 JUMP JUMPDEST POP PUSH1 0x40 DUP3 ADD MLOAD DUP1 MLOAD PUSH2 0x685 SWAP2 PUSH1 0x2 DUP5 ADD SWAP2 PUSH1 0x20 SWAP1 SWAP2 ADD SWAP1 PUSH2 0x167D JUMP JUMPDEST POP PUSH1 0x60 DUP3 ADD MLOAD PUSH1 0x3 DUP3 ADD DUP1 SLOAD PUSH1 0xFF NOT AND SWAP2 ISZERO ISZERO SWAP2 SWAP1 SWAP2 OR SWAP1 SSTORE PUSH1 0x80 SWAP1 SWAP2 ADD MLOAD PUSH1 0x4 SWAP1 SWAP2 ADD SSTORE PUSH1 0x40 MLOAD PUSH1 0x1 PUSH1 0x1 PUSH1 0xA0 SHL SUB DUP7 AND SWAP1 PUSH32 0xD52881A6125270BC10EDC37221B17D746EF540E29867A40B76ED110EF520224C SWAP1 PUSH2 0x6E5 SWAP1 DUP8 SWAP1 PUSH2 0x1EC3 JUMP JUMPDEST PUSH1 0x40 MLOAD DUP1 SWAP2 SUB SWAP1 LOG2 POP POP POP POP POP JUMP JUMPDEST PUSH1 0x2 PUSH1 0x20 MSTORE PUSH1 0x0 SWAP1 DUP2 MSTORE PUSH1 0x40 SWAP1 KECCAK256 DUP1 SLOAD DUP2 SWAP1 PUSH2 0x70F SWAP1 PUSH2 0x1D7B JUMP JUMPDEST DUP1 PUSH1 0x1F ADD PUSH1 0x20 DUP1 SWAP2 DIV MUL PUSH1 0x20 ADD PUSH1 0x40 MLOAD SWAP1 DUP2 ADD PUSH1 0x40 MSTORE DUP1 SWAP3 SWAP2 SWAP1 DUP2 DUP2 MSTORE PUSH1 0x20 ADD DUP3 DUP1 SLOAD PUSH2 0x73B SWAP1 PUSH2 0x1D7B JUMP JUMPDEST DUP1 ISZERO PUSH2 0x788 JUMPI DUP1 PUSH1 0x1F LT PUSH2 0x75D JUMPI PUSH2 0x100 DUP1 DUP4 SLOAD DIV MUL DUP4 MSTORE SWAP2 PUSH1 0x20 ADD SWAP2 PUSH2 0x788 JUMP JUMPDEST DUP3 ADD SWAP2 SWAP1 PUSH1 0x0 MSTORE PUSH1 0x20 PUSH1 0x0 KECCAK256 SWAP1 JUMPDEST DUP2 SLOAD DUP2 MSTORE SWAP1 PUSH1 0x1 ADD SWAP1 PUSH1 0x20 ADD DUP1 DUP4 GT PUSH2 0x76B JUMPI DUP3 SWAP1 SUB PUSH1 0x1F AND DUP3 ADD SWAP2 JUMPDEST POP POP POP POP POP SWAP1 DUP1 PUSH1 0x1 ADD DUP1 SLOAD PUSH2 0x79D SWAP1 PUSH2 0x1D7B JUMP JUMPDEST DUP1 PUSH1 0x1F ADD PUSH1 0x20 DUP1 SWAP2 DIV MUL PUSH1 0x20 ADD PUSH1 0x40 MLOAD SWAP1 DUP2 ADD PUSH1 0x40 MSTORE DUP1 SWAP3 SWAP2 SWAP1 DUP2 DUP2 MSTORE PUSH1 0x20 ADD DUP3 DUP1 SLOAD PUSH2 0x7C9 SWAP1 PUSH2 0x1D7B JUMP JUMPDEST DUP1 ISZERO PUSH2 0x816 JUMPI DUP1 PUSH1 0x1F LT PUSH2 0x7EB JUMPI PUSH2 0x100 DUP1 DUP4 SLOAD DIV MUL DUP4 MSTORE SWAP2 PUSH1 0x20 ADD SWAP2 PUSH2 0x816 JUMP JUMPDEST DUP3 ADD SWAP2 SWAP1 PUSH1 0x0 MSTORE PUSH1 0x20 PUSH1 0x0 KECCAK256 SWAP1 JUMPDEST DUP2 SLOAD DUP2 MSTORE SWAP1 PUSH1 0x1 ADD SWAP1 PUSH1 0x20 ADD DUP1 DUP4 GT PUSH2 0x7F9 JUMPI DUP3 SWAP1 SUB PUSH1 0x1F AND DUP3 ADD SWAP2 JUMPDEST POP POP POP POP PUSH1 0x3 DUP4 ADD SLOAD PUSH1 0x4 SWAP1 SWAP4 ADD SLOAD SWAP2 SWAP3 PUSH1 0xFF AND SWAP2 SWAP1 POP DUP5 JUMP JUMPDEST PUSH1 0x0 DUP3 DUP2 MSTORE PUSH1 0x20 DUP2 SWAP1 MSTORE PUSH1 0x40 SWAP1 KECCAK256 PUSH1 0x1 ADD SLOAD PUSH2 0x84B DUP2 PUSH2 0x1463 JUMP JUMPDEST PUSH2 0x855 DUP4 DUP4 PUSH2 0x146D JUMP JUMPDEST POP POP POP POP JUMP JUMPDEST PUSH1 0x1 PUSH1 0x1 PUSH1 0xA0 SHL SUB DUP2 AND CALLER EQ PUSH2 0x884 JUMPI PUSH1 0x40 MLOAD PUSH4 0x334BD919 PUSH1 0xE1 SHL DUP2 MSTORE PUSH1 0x4 ADD PUSH1 0x40 MLOAD DUP1 SWAP2 SUB SWAP1 REVERT JUMPDEST PUSH2 0x88E DUP3 DUP3 PUSH2 0x14FF JUMP JUMPDEST POP POP POP JUMP JUMPDEST PUSH1 0x0 PUSH2 0x89E DUP2 PUSH2 0x1463 JUMP JUMPDEST PUSH2 0x8A6 PUSH2 0x156A JUMP JUMPDEST POP JUMP JUMPDEST PUSH1 0x60 DUP1 PUSH1 0x60 PUSH1 0x0 DUP1 PUSH1 0x0 PUSH1 0x2 PUSH1 0x0 DUP9 PUSH1 0x1 PUSH1 0x1 PUSH1 0xA0 SHL SUB AND PUSH1 0x1 PUSH1 0x1 PUSH1 0xA0 SHL SUB AND DUP2 MSTORE PUSH1 0x20 ADD SWAP1 DUP2 MSTORE PUSH1 0x20 ADD PUSH1 0x0 KECCAK256 PUSH1 0x40 MLOAD DUP1 PUSH1 0xA0 ADD PUSH1 0x40 MSTORE SWAP1 DUP2 PUSH1 0x0 DUP3 ADD DUP1 SLOAD PUSH2 0x8F3 SWAP1 PUSH2 0x1D7B JUMP JUMPDEST DUP1 PUSH1 0x1F ADD PUSH1 0x20 DUP1 SWAP2 DIV MUL PUSH1 0x20 ADD PUSH1 0x40 MLOAD SWAP1 DUP2 ADD PUSH1 0x40 MSTORE DUP1 SWAP3 SWAP2 SWAP1 DUP2 DUP2 MSTORE PUSH1 0x20 ADD DUP3 DUP1 SLOAD PUSH2 0x91F SWAP1 PUSH2 0x1D7B JUMP JUMPDEST DUP1 ISZERO PUSH2 0x96C JUMPI DUP1 PUSH1 0x1F LT PUSH2 0x941 JUMPI PUSH2 0x100 DUP1 DUP4 SLOAD DIV MUL DUP4 MSTORE SWAP2 PUSH1 0x20 ADD SWAP2 PUSH2 0x96C JUMP JUMPDEST DUP3 ADD SWAP2 SWAP1 PUSH1 0x0 MSTORE PUSH1 0x20 PUSH1 0x0 KECCAK256 SWAP1 JUMPDEST DUP2 SLOAD DUP2 MSTORE SWAP1 PUSH1 0x1 ADD SWAP1 PUSH1 0x20 ADD DUP1 DUP4 GT PUSH2 0x94F JUMPI DUP3 SWAP1 SUB PUSH1 0x1F AND DUP3 ADD SWAP2 JUMPDEST POP POP POP POP POP DUP2 MSTORE PUSH1 0x20 ADD PUSH1 0x1 DUP3 ADD DUP1 SLOAD PUSH2 0x985 SWAP1 PUSH2 0x1D7B JUMP JUMPDEST DUP1 PUSH1 0x1F ADD PUSH1 0x20 DUP1 SWAP2 DIV MUL PUSH1 0x20 ADD PUSH1 0x40 MLOAD SWAP1 DUP2 ADD PUSH1 0x40 MSTORE DUP1 SWAP3 SWAP2 SWAP1 DUP2 DUP2 MSTORE PUSH1 0x20 ADD DUP3 DUP1 SLOAD PUSH2 0x9B1 SWAP1 PUSH2 0x1D7B JUMP JUMPDEST DUP1 ISZERO PUSH2 0x9FE JUMPI DUP1 PUSH1 0x1F LT PUSH2 0x9D3 JUMPI PUSH2 0x100 DUP1 DUP4 SLOAD DIV MUL DUP4 MSTORE SWAP2 PUSH1 0x20 ADD SWAP2 PUSH2 0x9FE JUMP JUMPDEST DUP3 ADD SWAP2 SWAP1 PUSH1 0x0 MSTORE PUSH1 0x20 PUSH1 0x0 KECCAK256 SWAP1 JUMPDEST DUP2 SLOAD DUP2 MSTORE SWAP1 PUSH1 0x1 ADD SWAP1 PUSH1 0x20 ADD DUP1 DUP4 GT PUSH2 0x9E1 JUMPI DUP3 SWAP1 SUB PUSH1 0x1F AND DUP3 ADD SWAP2 JUMPDEST POP POP POP POP POP DUP2 MSTORE PUSH1 0x20 ADD PUSH1 0x2 DUP3 ADD DUP1 SLOAD DUP1 PUSH1 0x20 MUL PUSH1 0x20 ADD PUSH1 0x40 MLOAD SWAP1 DUP2 ADD PUSH1 0x40 MSTORE DUP1 SWAP3 SWAP2 SWAP1 DUP2 DUP2 MSTORE PUSH1 0x20 ADD PUSH1 0x0 SWAP1 JUMPDEST DUP3 DUP3 LT ISZERO PUSH2 0xAD8 JUMPI DUP4 DUP3 SWAP1 PUSH1 0x0 MSTORE PUSH1 0x20 PUSH1 0x0 KECCAK256 ADD DUP1 SLOAD PUSH2 0xA4B SWAP1 PUSH2 0x1D7B JUMP JUMPDEST DUP1 PUSH1 0x1F ADD PUSH1 0x20 DUP1 SWAP2 DIV MUL PUSH1 0x20 ADD PUSH1 0x40 MLOAD SWAP1 DUP2 ADD PUSH1 0x40 MSTORE DUP1 SWAP3 SWAP2 SWAP1 DUP2 DUP2 MSTORE PUSH1 0x20 ADD DUP3 DUP1 SLOAD PUSH2 0xA77 SWAP1 PUSH2 0x1D7B JUMP JUMPDEST DUP1 ISZERO PUSH2 0xAC4 JUMPI DUP1 PUSH1 0x1F LT PUSH2 0xA99 JUMPI PUSH2 0x100 DUP1 DUP4 SLOAD DIV MUL DUP4 MSTORE SWAP2 PUSH1 0x20 ADD SWAP2 PUSH2 0xAC4 JUMP JUMPDEST DUP3 ADD SWAP2 SWAP1 PUSH1 0x0 MSTORE PUSH1 0x20 PUSH1 0x0 KECCAK256 SWAP1 JUMPDEST DUP2 SLOAD DUP2 MSTORE SWAP1 PUSH1 0x1 ADD SWAP1 PUSH1 0x20 ADD DUP1 DUP4 GT PUSH2 0xAA7 JUMPI DUP3 SWAP1 SUB PUSH1 0x1F AND DUP3 ADD SWAP2 JUMPDEST POP POP POP POP POP DUP2 MSTORE PUSH1 0x20 ADD SWAP1 PUSH1 0x1 ADD SWAP1 PUSH2 0xA2C JUMP JUMPDEST POP POP POP SWAP1 DUP3 MSTORE POP PUSH1 0x3 DUP3 ADD SLOAD PUSH1 0xFF AND ISZERO ISZERO PUSH1 0x20 DUP1 DUP4 ADD SWAP2 SWAP1 SWAP2 MSTORE PUSH1 0x4 SWAP1 SWAP3 ADD SLOAD PUSH1 0x40 SWAP2 DUP3 ADD MSTORE DUP3 MLOAD SWAP2 DUP4 ADD MLOAD SWAP1 DUP4 ADD MLOAD PUSH1 0x60 DUP5 ADD MLOAD PUSH1 0x80 SWAP1 SWAP5 ADD MLOAD SWAP3 SWAP12 SWAP2 SWAP11 POP SWAP9 POP SWAP2 SWAP7 POP SWAP5 POP SWAP3 POP POP POP JUMP JUMPDEST PUSH1 0x0 PUSH2 0xB30 DUP2 PUSH2 0x1463 JUMP JUMPDEST PUSH2 0x8A6 PUSH2 0x15BC JUMP JUMPDEST PUSH1 0x0 SWAP2 DUP3 MSTORE PUSH1 0x20 DUP3 DUP2 MSTORE PUSH1 0x40 DUP1 DUP5 KECCAK256 PUSH1 0x1 PUSH1 0x1 PUSH1 0xA0 SHL SUB SWAP4 SWAP1 SWAP4 AND DUP5 MSTORE SWAP2 SWAP1 MSTORE SWAP1 KECCAK256 SLOAD PUSH1 0xFF AND SWAP1 JUMP JUMPDEST PUSH1 0x0 PUSH2 0xB6C DUP2 PUSH2 0x1463 JUMP JUMPDEST PUSH1 0x40 MLOAD PUSH4 0xDB556E3D PUSH1 0xE0 SHL DUP2 MSTORE PUSH1 0x1 PUSH1 0x1 PUSH1 0xA0 SHL SUB DUP4 DUP2 AND PUSH1 0x4 DUP4 ADD MSTORE DUP5 AND SWAP1 PUSH4 0xDB556E3D SWAP1 PUSH1 0x24 ADD PUSH1 0x0 PUSH1 0x40 MLOAD DUP1 DUP4 SUB DUP2 PUSH1 0x0 DUP8 DUP1 EXTCODESIZE ISZERO DUP1 ISZERO PUSH2 0xBAF JUMPI PUSH1 0x0 DUP1 REVERT JUMPDEST POP GAS CALL ISZERO DUP1 ISZERO PUSH2 0xBC3 JUMPI RETURNDATASIZE PUSH1 0x0 DUP1 RETURNDATACOPY RETURNDATASIZE PUSH1 0x0 REVERT JUMPDEST POP POP POP POP POP POP POP JUMP JUMPDEST PUSH1 0x0 PUSH1 0x0 DUP1 MLOAD PUSH1 0x20 PUSH2 0x1F73 DUP4 CODECOPY DUP2 MLOAD SWAP2 MSTORE PUSH2 0xBE6 DUP2 PUSH2 0x1463 JUMP JUMPDEST PUSH1 0x1 PUSH1 0x1 PUSH1 0xA0 SHL SUB DUP8 AND PUSH1 0x0 SWAP1 DUP2 MSTORE PUSH1 0x2 PUSH1 0x20 MSTORE PUSH1 0x40 SWAP1 KECCAK256 PUSH1 0x3 ADD SLOAD PUSH1 0xFF AND PUSH2 0xC49 JUMPI PUSH1 0x40 MLOAD PUSH3 0x461BCD PUSH1 0xE5 SHL DUP2 MSTORE PUSH1 0x20 PUSH1 0x4 DUP3 ADD MSTORE PUSH1 0x15 PUSH1 0x24 DUP3 ADD MSTORE PUSH21 0x14DD5C1C1B1A595C881B9BDD08185C1C1C9BDD9959 PUSH1 0x5A SHL PUSH1 0x44 DUP3 ADD MSTORE PUSH1 0x64 ADD PUSH2 0x4C5 JUMP JUMPDEST PUSH1 0x5 DUP1 SLOAD PUSH1 0x0 SWAP2 DUP3 PUSH2 0xC5A DUP4 PUSH2 0x1ED6 JUMP JUMPDEST SWAP1 SWAP2 SSTORE POP PUSH1 0x40 DUP1 MLOAD PUSH1 0xE0 DUP2 ADD DUP3 MSTORE PUSH1 0x1 PUSH1 0x1 PUSH1 0xA0 SHL SUB DUP12 DUP2 AND DUP3 MSTORE PUSH1 0x20 DUP1 DUP4 ADD DUP13 DUP2 MSTORE DUP4 DUP6 ADD DUP13 SWAP1 MSTORE PUSH1 0x60 DUP5 ADD DUP12 SWAP1 MSTORE PUSH1 0x80 DUP5 ADD DUP11 SWAP1 MSTORE TIMESTAMP PUSH1 0xA0 DUP6 ADD MSTORE CALLER PUSH1 0xC0 DUP6 ADD MSTORE PUSH1 0x0 DUP7 DUP2 MSTORE PUSH1 0x4 SWAP1 SWAP3 MSTORE SWAP4 SWAP1 KECCAK256 DUP3 MLOAD DUP2 SLOAD PUSH1 0x1 PUSH1 0x1 PUSH1 0xA0 SHL SUB NOT AND SWAP3 AND SWAP2 SWAP1 SWAP2 OR DUP2 SSTORE SWAP2 MLOAD SWAP3 SWAP4 POP SWAP2 PUSH1 0x1 DUP3 ADD SWAP1 PUSH2 0xCD5 SWAP1 DUP3 PUSH2 0x1E03 JUMP JUMPDEST POP PUSH1 0x40 DUP3 ADD MLOAD PUSH1 0x2 DUP3 ADD SSTORE PUSH1 0x60 DUP3 ADD MLOAD PUSH1 0x3 DUP3 ADD SWAP1 PUSH2 0xCF4 SWAP1 DUP3 PUSH2 0x1E03 JUMP JUMPDEST POP PUSH1 0x80 DUP3 ADD MLOAD PUSH1 0x4 DUP3 ADD SWAP1 PUSH2 0xD09 SWAP1 DUP3 PUSH2 0x1E03 JUMP JUMPDEST POP PUSH1 0xA0 DUP3 ADD MLOAD PUSH1 0x5 DUP3 ADD SSTORE PUSH1 0xC0 SWAP1 SWAP2 ADD MLOAD PUSH1 0x6 SWAP1 SWAP2 ADD DUP1 SLOAD PUSH1 0x1 PUSH1 0x1 PUSH1 0xA0 SHL SUB NOT AND PUSH1 0x1 PUSH1 0x1 PUSH1 0xA0 SHL SUB SWAP3 DUP4 AND OR SWAP1 SSTORE PUSH1 0x40 MLOAD SWAP1 DUP10 AND SWAP1 DUP3 SWAP1 PUSH32 0x858E5D1570091376CA084479EBA573A1537A4C27CA02F92770D3DF3B98FD8D49 SWAP1 PUSH2 0xD71 SWAP1 DUP12 SWAP1 DUP12 SWAP1 PUSH2 0x1EFD JUMP JUMPDEST PUSH1 0x40 MLOAD DUP1 SWAP2 SUB SWAP1 LOG3 SWAP8 SWAP7 POP POP POP POP POP POP POP JUMP JUMPDEST PUSH2 0xDD6 PUSH1 0x40 MLOAD DUP1 PUSH1 0xE0 ADD PUSH1 0x40 MSTORE DUP1 PUSH1 0x0 PUSH1 0x1 PUSH1 0x1 PUSH1 0xA0 SHL SUB AND DUP2 MSTORE PUSH1 0x20 ADD PUSH1 0x60 DUP2 MSTORE PUSH1 0x20 ADD PUSH1 0x0 DUP2 MSTORE PUSH1 0x20 ADD PUSH1 0x60 DUP2 MSTORE PUSH1 0x20 ADD PUSH1 0x60 DUP2 MSTORE PUSH1 0x20 ADD PUSH1 0x0 DUP2 MSTORE PUSH1 0x20 ADD PUSH1 0x0 PUSH1 0x1 PUSH1 0x1 PUSH1 0xA0 SHL SUB AND DUP2 MSTORE POP SWAP1 JUMP JUMPDEST PUSH1 0x0 DUP3 DUP2 MSTORE PUSH1 0x4 PUSH1 0x20 SWAP1 DUP2 MSTORE PUSH1 0x40 SWAP2 DUP3 SWAP1 KECCAK256 DUP3 MLOAD PUSH1 0xE0 DUP2 ADD SWAP1 SWAP4 MSTORE DUP1 SLOAD PUSH1 0x1 PUSH1 0x1 PUSH1 0xA0 SHL SUB AND DUP4 MSTORE PUSH1 0x1 DUP2 ADD DUP1 SLOAD SWAP2 SWAP3 DUP5 ADD SWAP2 PUSH2 0xE12 SWAP1 PUSH2 0x1D7B JUMP JUMPDEST DUP1 PUSH1 0x1F ADD PUSH1 0x20 DUP1 SWAP2 DIV MUL PUSH1 0x20 ADD PUSH1 0x40 MLOAD SWAP1 DUP2 ADD PUSH1 0x40 MSTORE DUP1 SWAP3 SWAP2 SWAP1 DUP2 DUP2 MSTORE PUSH1 0x20 ADD DUP3 DUP1 SLOAD PUSH2 0xE3E SWAP1 PUSH2 0x1D7B JUMP JUMPDEST DUP1 ISZERO PUSH2 0xE8B JUMPI DUP1 PUSH1 0x1F LT PUSH2 0xE60 JUMPI PUSH2 0x100 DUP1 DUP4 SLOAD DIV MUL DUP4 MSTORE SWAP2 PUSH1 0x20 ADD SWAP2 PUSH2 0xE8B JUMP JUMPDEST DUP3 ADD SWAP2 SWAP1 PUSH1 0x0 MSTORE PUSH1 0x20 PUSH1 0x0 KECCAK256 SWAP1 JUMPDEST DUP2 SLOAD DUP2 MSTORE SWAP1 PUSH1 0x1 ADD SWAP1 PUSH1 0x20 ADD DUP1 DUP4 GT PUSH2 0xE6E JUMPI DUP3 SWAP1 SUB PUSH1 0x1F AND DUP3 ADD SWAP2 JUMPDEST POP POP POP POP POP DUP2 MSTORE PUSH1 0x20 ADD PUSH1 0x2 DUP3 ADD SLOAD DUP2 MSTORE PUSH1 0x20 ADD PUSH1 0x3 DUP3 ADD DUP1 SLOAD PUSH2 0xEAE SWAP1 PUSH2 0x1D7B JUMP JUMPDEST DUP1 PUSH1 0x1F ADD PUSH1 0x20 DUP1 SWAP2 DIV MUL PUSH1 0x20 ADD PUSH1 0x40 MLOAD SWAP1 DUP2 ADD PUSH1 0x40 MSTORE DUP1 SWAP3 SWAP2 SWAP1 DUP2 DUP2 MSTORE PUSH1 0x20 ADD DUP3 DUP1 SLOAD PUSH2 0xEDA SWAP1 PUSH2 0x1D7B JUMP JUMPDEST DUP1 ISZERO PUSH2 0xF27 JUMPI DUP1 PUSH1 0x1F LT PUSH2 0xEFC JUMPI PUSH2 0x100 DUP1 DUP4 SLOAD DIV MUL DUP4 MSTORE SWAP2 PUSH1 0x20 ADD SWAP2 PUSH2 0xF27 JUMP JUMPDEST DUP3 ADD SWAP2 SWAP1 PUSH1 0x0 MSTORE PUSH1 0x20 PUSH1 0x0 KECCAK256 SWAP1 JUMPDEST DUP2 SLOAD DUP2 MSTORE SWAP1 PUSH1 0x1 ADD SWAP1 PUSH1 0x20 ADD DUP1 DUP4 GT PUSH2 0xF0A JUMPI DUP3 SWAP1 SUB PUSH1 0x1F AND DUP3 ADD SWAP2 JUMPDEST POP POP POP POP POP DUP2 MSTORE PUSH1 0x20 ADD PUSH1 0x4 DUP3 ADD DUP1 SLOAD PUSH2 0xF40 SWAP1 PUSH2 0x1D7B JUMP JUMPDEST DUP1 PUSH1 0x1F ADD PUSH1 0x20 DUP1 SWAP2 DIV MUL PUSH1 0x20 ADD PUSH1 0x40 MLOAD SWAP1 DUP2 ADD PUSH1 0x40 MSTORE DUP1 SWAP3 SWAP2 SWAP1 DUP2 DUP2 MSTORE PUSH1 0x20 ADD DUP3 DUP1 SLOAD PUSH2 0xF6C SWAP1 PUSH2 0x1D7B JUMP JUMPDEST DUP1 ISZERO PUSH2 0xFB9 JUMPI DUP1 PUSH1 0x1F LT PUSH2 0xF8E JUMPI PUSH2 0x100 DUP1 DUP4 SLOAD DIV MUL DUP4 MSTORE SWAP2 PUSH1 0x20 ADD SWAP2 PUSH2 0xFB9 JUMP JUMPDEST DUP3 ADD SWAP2 SWAP1 PUSH1 0x0 MSTORE PUSH1 0x20 PUSH1 0x0 KECCAK256 SWAP1 JUMPDEST DUP2 SLOAD DUP2 MSTORE SWAP1 PUSH1 0x1 ADD SWAP1 PUSH1 0x20 ADD DUP1 DUP4 GT PUSH2 0xF9C JUMPI DUP3 SWAP1 SUB PUSH1 0x1F AND DUP3 ADD SWAP2 JUMPDEST POP POP POP SWAP2 DUP4 MSTORE POP POP PUSH1 0x5 DUP3 ADD SLOAD PUSH1 0x20 DUP3 ADD MSTORE PUSH1 0x6 SWAP1 SWAP2 ADD SLOAD PUSH1 0x1 PUSH1 0x1 PUSH1 0xA0 SHL SUB AND PUSH1 0x40 SWAP1 SWAP2 ADD MSTORE SWAP3 SWAP2 POP POP JUMP JUMPDEST PUSH1 0x0 PUSH2 0xFF1 DUP2 PUSH2 0x1463 JUMP JUMPDEST PUSH1 0x1 PUSH1 0x1 PUSH1 0xA0 SHL SUB DUP4 AND PUSH2 0x103F JUMPI PUSH1 0x40 MLOAD PUSH3 0x461BCD PUSH1 0xE5 SHL DUP2 MSTORE PUSH1 0x20 PUSH1 0x4 DUP3 ADD MSTORE PUSH1 0x15 PUSH1 0x24 DUP3 ADD MSTORE PUSH21 0x496E76616C696420746F6B656E2061646472657373 PUSH1 0x58 SHL PUSH1 0x44 DUP3 ADD MSTORE PUSH1 0x64 ADD PUSH2 0x4C5 JUMP JUMPDEST CALLER PUSH1 0x0 SWAP1 DUP2 MSTORE PUSH1 0x3 PUSH1 0x20 MSTORE PUSH1 0x40 SWAP1 DUP2 SWAP1 KECCAK256 SWAP1 MLOAD DUP5 SWAP2 SWAP1 PUSH2 0x1060 SWAP1 DUP6 SWAP1 PUSH2 0x1F1F JUMP JUMPDEST SWAP1 DUP2 MSTORE PUSH1 0x40 MLOAD SWAP1 DUP2 SWAP1 SUB PUSH1 0x20 ADD DUP2 KECCAK256 DUP1 SLOAD PUSH1 0x1 PUSH1 0x1 PUSH1 0xA0 SHL SUB SWAP4 DUP5 AND PUSH1 0x1 PUSH1 0x1 PUSH1 0xA0 SHL SUB NOT SWAP1 SWAP2 AND OR SWAP1 SSTORE SWAP1 DUP5 AND SWAP1 PUSH32 0xAAED15520CC86E95B7C2522D968096283AFBEF7858BDF194B2F60D28A1A8D63E SWAP1 PUSH2 0x10BC SWAP1 DUP6 SWAP1 PUSH2 0x1EC3 JUMP JUMPDEST PUSH1 0x40 MLOAD DUP1 SWAP2 SUB SWAP1 LOG2 POP POP POP JUMP JUMPDEST PUSH1 0x0 DUP3 DUP2 MSTORE PUSH1 0x20 DUP2 SWAP1 MSTORE PUSH1 0x40 SWAP1 KECCAK256 PUSH1 0x1 ADD SLOAD PUSH2 0x10E4 DUP2 PUSH2 0x1463 JUMP JUMPDEST PUSH2 0x855 DUP4 DUP4 PUSH2 0x14FF JUMP JUMPDEST PUSH1 0x4 PUSH1 0x20 MSTORE PUSH1 0x0 SWAP1 DUP2 MSTORE PUSH1 0x40 SWAP1 KECCAK256 DUP1 SLOAD PUSH1 0x1 DUP3 ADD DUP1 SLOAD PUSH1 0x1 PUSH1 0x1 PUSH1 0xA0 SHL SUB SWAP1 SWAP3 AND SWAP3 SWAP2 PUSH2 0x111A SWAP1 PUSH2 0x1D7B JUMP JUMPDEST DUP1 PUSH1 0x1F ADD PUSH1 0x20 DUP1 SWAP2 DIV MUL PUSH1 0x20 ADD PUSH1 0x40 MLOAD SWAP1 DUP2 ADD PUSH1 0x40 MSTORE DUP1 SWAP3 SWAP2 SWAP1 DUP2 DUP2 MSTORE PUSH1 0x20 ADD DUP3 DUP1 SLOAD PUSH2 0x1146 SWAP1 PUSH2 0x1D7B JUMP JUMPDEST DUP1 ISZERO PUSH2 0x1193 JUMPI DUP1 PUSH1 0x1F LT PUSH2 0x1168 JUMPI PUSH2 0x100 DUP1 DUP4 SLOAD DIV MUL DUP4 MSTORE SWAP2 PUSH1 0x20 ADD SWAP2 PUSH2 0x1193 JUMP JUMPDEST DUP3 ADD SWAP2 SWAP1 PUSH1 0x0 MSTORE PUSH1 0x20 PUSH1 0x0 KECCAK256 SWAP1 JUMPDEST DUP2 SLOAD DUP2 MSTORE SWAP1 PUSH1 0x1 ADD SWAP1 PUSH1 0x20 ADD DUP1 DUP4 GT PUSH2 0x1176 JUMPI DUP3 SWAP1 SUB PUSH1 0x1F AND DUP3 ADD SWAP2 JUMPDEST POP POP POP POP POP SWAP1 DUP1 PUSH1 0x2 ADD SLOAD SWAP1 DUP1 PUSH1 0x3 ADD DUP1 SLOAD PUSH2 0x11AE SWAP1 PUSH2 0x1D7B JUMP JUMPDEST DUP1 PUSH1 0x1F ADD PUSH1 0x20 DUP1 SWAP2 DIV MUL PUSH1 0x20 ADD PUSH1 0x40 MLOAD SWAP1 DUP2 ADD PUSH1 0x40 MSTORE DUP1 SWAP3 SWAP2 SWAP1 DUP2 DUP2 MSTORE PUSH1 0x20 ADD DUP3 DUP1 SLOAD PUSH2 0x11DA SWAP1 PUSH2 0x1D7B JUMP JUMPDEST DUP1 ISZERO PUSH2 0x1227 JUMPI DUP1 PUSH1 0x1F LT PUSH2 0x11FC JUMPI PUSH2 0x100 DUP1 DUP4 SLOAD DIV MUL DUP4 MSTORE SWAP2 PUSH1 0x20 ADD SWAP2 PUSH2 0x1227 JUMP JUMPDEST DUP3 ADD SWAP2 SWAP1 PUSH1 0x0 MSTORE PUSH1 0x20 PUSH1 0x0 KECCAK256 SWAP1 JUMPDEST DUP2 SLOAD DUP2 MSTORE SWAP1 PUSH1 0x1 ADD SWAP1 PUSH1 0x20 ADD DUP1 DUP4 GT PUSH2 0x120A JUMPI DUP3 SWAP1 SUB PUSH1 0x1F AND DUP3 ADD SWAP2 JUMPDEST POP POP POP POP POP SWAP1 DUP1 PUSH1 0x4 ADD DUP1 SLOAD PUSH2 0x123C SWAP1 PUSH2 0x1D7B JUMP JUMPDEST DUP1 PUSH1 0x1F ADD PUSH1 0x20 DUP1 SWAP2 DIV MUL PUSH1 0x20 ADD PUSH1 0x40 MLOAD SWAP1 DUP2 ADD PUSH1 0x40 MSTORE DUP1 SWAP3 SWAP2 SWAP1 DUP2 DUP2 MSTORE PUSH1 0x20 ADD DUP3 DUP1 SLOAD PUSH2 0x1268 SWAP1 PUSH2 0x1D7B JUMP JUMPDEST DUP1 ISZERO PUSH2 0x12B5 JUMPI DUP1 PUSH1 0x1F LT PUSH2 0x128A JUMPI PUSH2 0x100 DUP1 DUP4 SLOAD DIV MUL DUP4 MSTORE SWAP2 PUSH1 0x20 ADD SWAP2 PUSH2 0x12B5 JUMP JUMPDEST DUP3 ADD SWAP2 SWAP1 PUSH1 0x0 MSTORE PUSH1 0x20 PUSH1 0x0 KECCAK256 SWAP1 JUMPDEST DUP2 SLOAD DUP2 MSTORE SWAP1 PUSH1 0x1 ADD SWAP1 PUSH1 0x20 ADD DUP1 DUP4 GT PUSH2 0x1298 JUMPI DUP3 SWAP1 SUB PUSH1 0x1F AND DUP3 ADD SWAP2 JUMPDEST POP POP POP POP PUSH1 0x5 DUP4 ADD SLOAD PUSH1 0x6 SWAP1 SWAP4 ADD SLOAD SWAP2 SWAP3 SWAP2 PUSH1 0x1 PUSH1 0x1 PUSH1 0xA0 SHL SUB AND SWAP1 POP DUP8 JUMP JUMPDEST PUSH1 0x0 DUP1 MLOAD PUSH1 0x20 PUSH2 0x1F73 DUP4 CODECOPY DUP2 MLOAD SWAP2 MSTORE PUSH2 0x12ED DUP2 PUSH2 0x1463 JUMP JUMPDEST PUSH1 0x1 PUSH1 0x1 PUSH1 0xA0 SHL SUB DUP8 AND PUSH2 0x133B JUMPI PUSH1 0x40 MLOAD PUSH3 0x461BCD PUSH1 0xE5 SHL DUP2 MSTORE PUSH1 0x20 PUSH1 0x4 DUP3 ADD MSTORE PUSH1 0x15 PUSH1 0x24 DUP3 ADD MSTORE PUSH21 0x496E76616C696420746F6B656E2061646472657373 PUSH1 0x58 SHL PUSH1 0x44 DUP3 ADD MSTORE PUSH1 0x64 ADD PUSH2 0x4C5 JUMP JUMPDEST PUSH1 0x1 PUSH1 0x1 PUSH1 0xA0 SHL SUB DUP7 AND PUSH1 0x0 SWAP1 DUP2 MSTORE PUSH1 0x2 PUSH1 0x20 MSTORE PUSH1 0x40 SWAP1 KECCAK256 PUSH1 0x3 ADD SLOAD PUSH1 0xFF AND PUSH2 0x13A6 JUMPI PUSH1 0x40 MLOAD PUSH3 0x461BCD PUSH1 0xE5 SHL DUP2 MSTORE PUSH1 0x20 PUSH1 0x4 DUP3 ADD MSTORE PUSH1 0x1F PUSH1 0x24 DUP3 ADD MSTORE PUSH32 0x526563697069656E74206E6F7420617070726F76656420737570706C69657200 PUSH1 0x44 DUP3 ADD MSTORE PUSH1 0x64 ADD PUSH2 0x4C5 JUMP JUMPDEST PUSH1 0x40 MLOAD PUSH4 0xBB7FDE71 PUSH1 0xE0 SHL DUP2 MSTORE DUP8 SWAP1 PUSH1 0x1 PUSH1 0x1 PUSH1 0xA0 SHL SUB DUP3 AND SWAP1 PUSH4 0xBB7FDE71 SWAP1 PUSH2 0x13DA SWAP1 DUP11 SWAP1 DUP11 SWAP1 DUP10 SWAP1 DUP10 SWAP1 PUSH1 0x4 ADD PUSH2 0x1F3B JUMP JUMPDEST PUSH1 0x0 PUSH1 0x40 MLOAD DUP1 DUP4 SUB DUP2 PUSH1 0x0 DUP8 DUP1 EXTCODESIZE ISZERO DUP1 ISZERO PUSH2 0x13F4 JUMPI PUSH1 0x0 DUP1 REVERT JUMPDEST POP GAS CALL ISZERO DUP1 ISZERO PUSH2 0x1408 JUMPI RETURNDATASIZE PUSH1 0x0 DUP1 RETURNDATACOPY RETURNDATASIZE PUSH1 0x0 REVERT JUMPDEST POP POP POP POP DUP7 PUSH1 0x1 PUSH1 0x1 PUSH1 0xA0 SHL SUB AND DUP9 PUSH1 0x1 PUSH1 0x1 PUSH1 0xA0 SHL SUB AND PUSH32 0xDF1B2B09E9800D31C599375056BE9F9E4EB37F078102643600C4E149714EFAAD DUP9 PUSH1 0x40 MLOAD PUSH2 0x1451 SWAP2 DUP2 MSTORE PUSH1 0x20 ADD SWAP1 JUMP JUMPDEST PUSH1 0x40 MLOAD DUP1 SWAP2 SUB SWAP1 LOG3 POP POP POP POP POP POP POP POP JUMP JUMPDEST PUSH2 0x8A6 DUP2 CALLER PUSH2 0x15F7 JUMP JUMPDEST PUSH1 0x0 PUSH2 0x1479 DUP4 DUP4 PUSH2 0xB38 JUMP JUMPDEST PUSH2 0x14F7 JUMPI PUSH1 0x0 DUP4 DUP2 MSTORE PUSH1 0x20 DUP2 DUP2 MSTORE PUSH1 0x40 DUP1 DUP4 KECCAK256 PUSH1 0x1 PUSH1 0x1 PUSH1 0xA0 SHL SUB DUP7 AND DUP5 MSTORE SWAP1 SWAP2 MSTORE SWAP1 KECCAK256 DUP1 SLOAD PUSH1 0xFF NOT AND PUSH1 0x1 OR SWAP1 SSTORE PUSH2 0x14AF CALLER SWAP1 JUMP JUMPDEST PUSH1 0x1 PUSH1 0x1 PUSH1 0xA0 SHL SUB AND DUP3 PUSH1 0x1 PUSH1 0x1 PUSH1 0xA0 SHL SUB AND DUP5 PUSH32 0x2F8788117E7EFF1D82E926EC794901D17C78024A50270940304540A733656F0D PUSH1 0x40 MLOAD PUSH1 0x40 MLOAD DUP1 SWAP2 SUB SWAP1 LOG4 POP PUSH1 0x1 PUSH2 0x443 JUMP JUMPDEST POP PUSH1 0x0 PUSH2 0x443 JUMP JUMPDEST PUSH1 0x0 PUSH2 0x150B DUP4 DUP4 PUSH2 0xB38 JUMP JUMPDEST ISZERO PUSH2 0x14F7 JUMPI PUSH1 0x0 DUP4 DUP2 MSTORE PUSH1 0x20 DUP2 DUP2 MSTORE PUSH1 0x40 DUP1 DUP4 KECCAK256 PUSH1 0x1 PUSH1 0x1 PUSH1 0xA0 SHL SUB DUP7 AND DUP1 DUP6 MSTORE SWAP3 MSTORE DUP1 DUP4 KECCAK256 DUP1 SLOAD PUSH1 0xFF NOT AND SWAP1 SSTORE MLOAD CALLER SWAP3 DUP7 SWAP2 PUSH32 0xF6391F5C32D9C69D2A47EA670B442974B53935D1EDC7FD64EB21E047A839171B SWAP2 SWAP1 LOG4 POP PUSH1 0x1 PUSH2 0x443 JUMP JUMPDEST PUSH2 0x1572 PUSH2 0x1634 JUMP JUMPDEST PUSH1 0x1 DUP1 SLOAD PUSH1 0xFF NOT AND SWAP1 SSTORE PUSH32 0x5DB9EE0A495BF2E6FF9C91A7834C1BA4FDD244A5E8AA4E537BD38AEAE4B073AA CALLER JUMPDEST PUSH1 0x40 MLOAD PUSH1 0x1 PUSH1 0x1 PUSH1 0xA0 SHL SUB SWAP1 SWAP2 AND DUP2 MSTORE PUSH1 0x20 ADD PUSH1 0x40 MLOAD DUP1 SWAP2 SUB SWAP1 LOG1 JUMP JUMPDEST PUSH2 0x15C4 PUSH2 0x1659 JUMP JUMPDEST PUSH1 0x1 DUP1 SLOAD PUSH1 0xFF NOT AND DUP2 OR SWAP1 SSTORE PUSH32 0x62E78CEA01BEE320CD4E420270B5EA74000D11B0C9F74754EBDBFC544B05A258 CALLER PUSH2 0x159F JUMP JUMPDEST PUSH2 0x1601 DUP3 DUP3 PUSH2 0xB38 JUMP JUMPDEST PUSH2 0x1630 JUMPI PUSH1 0x40 MLOAD PUSH4 0xE2517D3F PUSH1 0xE0 SHL DUP2 MSTORE PUSH1 0x1 PUSH1 0x1 PUSH1 0xA0 SHL SUB DUP3 AND PUSH1 0x4 DUP3 ADD MSTORE PUSH1 0x24 DUP2 ADD DUP4 SWAP1 MSTORE PUSH1 0x44 ADD PUSH2 0x4C5 JUMP JUMPDEST POP POP JUMP JUMPDEST PUSH1 0x1 SLOAD PUSH1 0xFF AND PUSH2 0x1657 JUMPI PUSH1 0x40 MLOAD PUSH4 0x8DFC202B PUSH1 0xE0 SHL DUP2 MSTORE PUSH1 0x4 ADD PUSH1 0x40 MLOAD DUP1 SWAP2 SUB SWAP1 REVERT JUMPDEST JUMP JUMPDEST PUSH1 0x1 SLOAD PUSH1 0xFF AND ISZERO PUSH2 0x1657 JUMPI PUSH1 0x40 MLOAD PUSH4 0xD93C0665 PUSH1 0xE0 SHL DUP2 MSTORE PUSH1 0x4 ADD PUSH1 0x40 MLOAD DUP1 SWAP2 SUB SWAP1 REVERT JUMPDEST DUP3 DUP1 SLOAD DUP3 DUP3 SSTORE SWAP1 PUSH1 0x0 MSTORE PUSH1 0x20 PUSH1 0x0 KECCAK256 SWAP1 DUP2 ADD SWAP3 DUP3 ISZERO PUSH2 0x16C3 JUMPI SWAP2 PUSH1 0x20 MUL DUP3 ADD JUMPDEST DUP3 DUP2 GT ISZERO PUSH2 0x16C3 JUMPI DUP3 MLOAD DUP3 SWAP1 PUSH2 0x16B3 SWAP1 DUP3 PUSH2 0x1E03 JUMP JUMPDEST POP SWAP2 PUSH1 0x20 ADD SWAP2 SWAP1 PUSH1 0x1 ADD SWAP1 PUSH2 0x169D JUMP JUMPDEST POP PUSH2 0x16CF SWAP3 SWAP2 POP PUSH2 0x16D3 JUMP JUMPDEST POP SWAP1 JUMP JUMPDEST DUP1 DUP3 GT ISZERO PUSH2 0x16CF JUMPI PUSH1 0x0 PUSH2 0x16E7 DUP3 DUP3 PUSH2 0x16F0 JUMP JUMPDEST POP PUSH1 0x1 ADD PUSH2 0x16D3 JUMP JUMPDEST POP DUP1 SLOAD PUSH2 0x16FC SWAP1 PUSH2 0x1D7B JUMP JUMPDEST PUSH1 0x0 DUP3 SSTORE DUP1 PUSH1 0x1F LT PUSH2 0x170C JUMPI POP POP JUMP JUMPDEST PUSH1 0x1F ADD PUSH1 0x20 SWAP1 DIV SWAP1 PUSH1 0x0 MSTORE PUSH1 0x20 PUSH1 0x0 KECCAK256 SWAP1 DUP2 ADD SWAP1 PUSH2 0x8A6 SWAP2 SWAP1 JUMPDEST DUP1 DUP3 GT ISZERO PUSH2 0x16CF JUMPI PUSH1 0x0 DUP2 SSTORE PUSH1 0x1 ADD PUSH2 0x1726 JUMP JUMPDEST PUSH1 0x0 PUSH1 0x20 DUP3 DUP5 SUB SLT ISZERO PUSH2 0x174C JUMPI PUSH1 0x0 DUP1 REVERT JUMPDEST DUP2 CALLDATALOAD PUSH1 0x1 PUSH1 0x1 PUSH1 0xE0 SHL SUB NOT DUP2 AND DUP2 EQ PUSH2 0x1764 JUMPI PUSH1 0x0 DUP1 REVERT JUMPDEST SWAP4 SWAP3 POP POP POP JUMP JUMPDEST DUP1 CALLDATALOAD PUSH1 0x1 PUSH1 0x1 PUSH1 0xA0 SHL SUB DUP2 AND DUP2 EQ PUSH2 0x1782 JUMPI PUSH1 0x0 DUP1 REVERT JUMPDEST SWAP2 SWAP1 POP JUMP JUMPDEST PUSH1 0x0 PUSH1 0x20 DUP3 DUP5 SUB SLT ISZERO PUSH2 0x1799 JUMPI PUSH1 0x0 DUP1 REVERT JUMPDEST PUSH2 0x1764 DUP3 PUSH2 0x176B JUMP JUMPDEST PUSH4 0x4E487B71 PUSH1 0xE0 SHL PUSH1 0x0 MSTORE PUSH1 0x41 PUSH1 0x4 MSTORE PUSH1 0x24 PUSH1 0x0 REVERT JUMPDEST PUSH1 0x40 MLOAD PUSH1 0x1F DUP3 ADD PUSH1 0x1F NOT AND DUP2 ADD PUSH8 0xFFFFFFFFFFFFFFFF DUP2 GT DUP3 DUP3 LT OR ISZERO PUSH2 0x17E1 JUMPI PUSH2 0x17E1 PUSH2 0x17A2 JUMP JUMPDEST PUSH1 0x40 MSTORE SWAP2 SWAP1 POP JUMP JUMPDEST PUSH1 0x0 DUP3 PUSH1 0x1F DUP4 ADD SLT PUSH2 0x17FA JUMPI PUSH1 0x0 DUP1 REVERT JUMPDEST DUP2 CALLDATALOAD PUSH8 0xFFFFFFFFFFFFFFFF DUP2 GT ISZERO PUSH2 0x1814 JUMPI PUSH2 0x1814 PUSH2 0x17A2 JUMP JUMPDEST PUSH2 0x1827 PUSH1 0x1F DUP3 ADD PUSH1 0x1F NOT AND PUSH1 0x20 ADD PUSH2 0x17B8 JUMP JUMPDEST DUP2 DUP2 MSTORE DUP5 PUSH1 0x20 DUP4 DUP7 ADD ADD GT ISZERO PUSH2 0x183C JUMPI PUSH1 0x0 DUP1 REVERT JUMPDEST DUP2 PUSH1 0x20 DUP6 ADD PUSH1 0x20 DUP4 ADD CALLDATACOPY PUSH1 0x0 SWAP2 DUP2 ADD PUSH1 0x20 ADD SWAP2 SWAP1 SWAP2 MSTORE SWAP4 SWAP3 POP POP POP JUMP JUMPDEST PUSH1 0x0 DUP1 PUSH1 0x0 DUP1 PUSH1 0x80 DUP6 DUP8 SUB SLT ISZERO PUSH2 0x186F JUMPI PUSH1 0x0 DUP1 REVERT JUMPDEST PUSH2 0x1878 DUP6 PUSH2 0x176B JUMP JUMPDEST SWAP4 POP PUSH1 0x20 DUP1 DUP7 ADD CALLDATALOAD PUSH8 0xFFFFFFFFFFFFFFFF DUP1 DUP3 GT ISZERO PUSH2 0x1896 JUMPI PUSH1 0x0 DUP1 REVERT JUMPDEST PUSH2 0x18A2 DUP10 DUP4 DUP11 ADD PUSH2 0x17E9 JUMP JUMPDEST SWAP6 POP PUSH1 0x40 DUP9 ADD CALLDATALOAD SWAP2 POP DUP1 DUP3 GT ISZERO PUSH2 0x18B8 JUMPI PUSH1 0x0 DUP1 REVERT JUMPDEST PUSH2 0x18C4 DUP10 DUP4 DUP11 ADD PUSH2 0x17E9 JUMP JUMPDEST SWAP5 POP PUSH1 0x60 DUP9 ADD CALLDATALOAD SWAP2 POP DUP1 DUP3 GT ISZERO PUSH2 0x18DA JUMPI PUSH1 0x0 DUP1 REVERT JUMPDEST DUP2 DUP9 ADD SWAP2 POP DUP9 PUSH1 0x1F DUP4 ADD SLT PUSH2 0x18EE JUMPI PUSH1 0x0 DUP1 REVERT JUMPDEST DUP2 CALLDATALOAD DUP2 DUP2 GT ISZERO PUSH2 0x1900 JUMPI PUSH2 0x1900 PUSH2 0x17A2 JUMP JUMPDEST DUP1 PUSH1 0x5 SHL PUSH2 0x190F DUP6 DUP3 ADD PUSH2 0x17B8 JUMP JUMPDEST SWAP2 DUP3 MSTORE DUP4 DUP2 ADD DUP6 ADD SWAP2 DUP6 DUP2 ADD SWAP1 DUP13 DUP5 GT ISZERO PUSH2 0x1929 JUMPI PUSH1 0x0 DUP1 REVERT JUMPDEST DUP7 DUP7 ADD SWAP3 POP JUMPDEST DUP4 DUP4 LT ISZERO PUSH2 0x1965 JUMPI DUP3 CALLDATALOAD DUP6 DUP2 GT ISZERO PUSH2 0x1947 JUMPI PUSH1 0x0 DUP1 DUP2 REVERT JUMPDEST PUSH2 0x1955 DUP15 DUP10 DUP4 DUP11 ADD ADD PUSH2 0x17E9 JUMP JUMPDEST DUP4 MSTORE POP SWAP2 DUP7 ADD SWAP2 SWAP1 DUP7 ADD SWAP1 PUSH2 0x192F JUMP JUMPDEST SWAP10 SWAP13 SWAP9 SWAP12 POP SWAP7 SWAP10 POP POP POP POP POP POP POP POP JUMP JUMPDEST PUSH1 0x0 JUMPDEST DUP4 DUP2 LT ISZERO PUSH2 0x1991 JUMPI DUP2 DUP2 ADD MLOAD DUP4 DUP3 ADD MSTORE PUSH1 0x20 ADD PUSH2 0x1979 JUMP JUMPDEST POP POP PUSH1 0x0 SWAP2 ADD MSTORE JUMP JUMPDEST PUSH1 0x0 DUP2 MLOAD DUP1 DUP5 MSTORE PUSH2 0x19B2 DUP2 PUSH1 0x20 DUP7 ADD PUSH1 0x20 DUP7 ADD PUSH2 0x1976 JUMP JUMPDEST PUSH1 0x1F ADD PUSH1 0x1F NOT AND SWAP3 SWAP1 SWAP3 ADD PUSH1 0x20 ADD SWAP3 SWAP2 POP POP JUMP JUMPDEST PUSH1 0x80 DUP2 MSTORE PUSH1 0x0 PUSH2 0x19D9 PUSH1 0x80 DUP4 ADD DUP8 PUSH2 0x199A JUMP JUMPDEST DUP3 DUP2 SUB PUSH1 0x20 DUP5 ADD MSTORE PUSH2 0x19EB DUP2 DUP8 PUSH2 0x199A JUMP JUMPDEST SWAP5 ISZERO ISZERO PUSH1 0x40 DUP5 ADD MSTORE POP POP PUSH1 0x60 ADD MSTORE SWAP3 SWAP2 POP POP JUMP JUMPDEST PUSH1 0x0 PUSH1 0x20 DUP3 DUP5 SUB SLT ISZERO PUSH2 0x1A11 JUMPI PUSH1 0x0 DUP1 REVERT JUMPDEST POP CALLDATALOAD SWAP2 SWAP1 POP JUMP JUMPDEST PUSH1 0x0 DUP1 PUSH1 0x40 DUP4 DUP6 SUB SLT ISZERO PUSH2 0x1A2B JUMPI PUSH1 0x0 DUP1 REVERT JUMPDEST DUP3 CALLDATALOAD SWAP2 POP PUSH2 0x1A3B PUSH1 0x20 DUP5 ADD PUSH2 0x176B JUMP JUMPDEST SWAP1 POP SWAP3 POP SWAP3 SWAP1 POP JUMP JUMPDEST PUSH1 0xA0 DUP2 MSTORE PUSH1 0x0 PUSH2 0x1A57 PUSH1 0xA0 DUP4 ADD DUP9 PUSH2 0x199A JUMP JUMPDEST PUSH1 0x20 DUP4 DUP3 SUB DUP2 DUP6 ADD MSTORE PUSH2 0x1A6A DUP3 DUP10 PUSH2 0x199A JUMP JUMPDEST SWAP2 POP DUP4 DUP3 SUB PUSH1 0x40 DUP6 ADD MSTORE DUP2 DUP8 MLOAD DUP1 DUP5 MSTORE DUP3 DUP5 ADD SWAP2 POP DUP3 DUP2 PUSH1 0x5 SHL DUP6 ADD ADD DUP4 DUP11 ADD PUSH1 0x0 JUMPDEST DUP4 DUP2 LT ISZERO PUSH2 0x1ABB JUMPI PUSH1 0x1F NOT DUP8 DUP5 SUB ADD DUP6 MSTORE PUSH2 0x1AA9 DUP4 DUP4 MLOAD PUSH2 0x199A JUMP JUMPDEST SWAP5 DUP7 ADD SWAP5 SWAP3 POP SWAP1 DUP6 ADD SWAP1 PUSH1 0x1 ADD PUSH2 0x1A8D JUMP JUMPDEST POP POP DUP9 ISZERO ISZERO PUSH1 0x60 DUP9 ADD MSTORE SWAP5 POP PUSH2 0x1AD1 SWAP4 POP POP POP POP JUMP JUMPDEST DUP3 PUSH1 0x80 DUP4 ADD MSTORE SWAP7 SWAP6 POP POP POP POP POP POP JUMP JUMPDEST PUSH1 0x0 DUP1 PUSH1 0x40 DUP4 DUP6 SUB SLT ISZERO PUSH2 0x1AF4 JUMPI PUSH1 0x0 DUP1 REVERT JUMPDEST PUSH2 0x1AFD DUP4 PUSH2 0x176B JUMP JUMPDEST SWAP2 POP PUSH2 0x1A3B PUSH1 0x20 DUP5 ADD PUSH2 0x176B JUMP JUMPDEST PUSH1 0x0 DUP1 PUSH1 0x40 DUP4 DUP6 SUB SLT ISZERO PUSH2 0x1B1E JUMPI PUSH1 0x0 DUP1 REVERT JUMPDEST PUSH2 0x1B27 DUP4 PUSH2 0x176B JUMP JUMPDEST SWAP2 POP PUSH1 0x20 DUP4 ADD CALLDATALOAD PUSH8 0xFFFFFFFFFFFFFFFF DUP2 GT ISZERO PUSH2 0x1B43 JUMPI PUSH1 0x0 DUP1 REVERT JUMPDEST PUSH2 0x1B4F DUP6 DUP3 DUP7 ADD PUSH2 0x17E9 JUMP JUMPDEST SWAP2 POP POP SWAP3 POP SWAP3 SWAP1 POP JUMP JUMPDEST PUSH1 0x0 DUP1 PUSH1 0x0 DUP1 PUSH1 0x0 PUSH1 0xA0 DUP7 DUP9 SUB SLT ISZERO PUSH2 0x1B71 JUMPI PUSH1 0x0 DUP1 REVERT JUMPDEST PUSH2 0x1B7A DUP7 PUSH2 0x176B JUMP JUMPDEST SWAP5 POP PUSH1 0x20 DUP7 ADD CALLDATALOAD PUSH8 0xFFFFFFFFFFFFFFFF DUP1 DUP3 GT ISZERO PUSH2 0x1B97 JUMPI PUSH1 0x0 DUP1 REVERT JUMPDEST PUSH2 0x1BA3 DUP10 DUP4 DUP11 ADD PUSH2 0x17E9 JUMP JUMPDEST SWAP6 POP PUSH1 0x40 DUP9 ADD CALLDATALOAD SWAP5 POP PUSH1 0x60 DUP9 ADD CALLDATALOAD SWAP2 POP DUP1 DUP3 GT ISZERO PUSH2 0x1BC0 JUMPI PUSH1 0x0 DUP1 REVERT JUMPDEST PUSH2 0x1BCC DUP10 DUP4 DUP11 ADD PUSH2 0x17E9 JUMP JUMPDEST SWAP4 POP PUSH1 0x80 DUP9 ADD CALLDATALOAD SWAP2 POP DUP1 DUP3 GT ISZERO PUSH2 0x1BE2 JUMPI PUSH1 0x0 DUP1 REVERT JUMPDEST POP PUSH2 0x1BEF DUP9 DUP3 DUP10 ADD PUSH2 0x17E9 JUMP JUMPDEST SWAP2 POP POP SWAP3 SWAP6 POP SWAP3 SWAP6 SWAP1 SWAP4 POP JUMP JUMPDEST PUSH1 0x20 DUP2 MSTORE PUSH1 0x0 PUSH1 0x1 DUP1 PUSH1 0xA0 SHL SUB DUP1 DUP5 MLOAD AND PUSH1 0x20 DUP5 ADD MSTORE PUSH1 0x20 DUP5 ADD MLOAD PUSH1 0xE0 PUSH1 0x40 DUP6 ADD MSTORE PUSH2 0x1C2C PUSH2 0x100 DUP6 ADD DUP3 PUSH2 0x199A JUMP JUMPDEST SWAP1 POP PUSH1 0x40 DUP6 ADD MLOAD PUSH1 0x60 DUP6 ADD MSTORE PUSH1 0x60 DUP6 ADD MLOAD PUSH1 0x1F NOT DUP1 DUP7 DUP5 SUB ADD PUSH1 0x80 DUP8 ADD MSTORE PUSH2 0x1C54 DUP4 DUP4 PUSH2 0x199A JUMP JUMPDEST SWAP3 POP PUSH1 0x80 DUP8 ADD MLOAD SWAP2 POP DUP1 DUP7 DUP5 SUB ADD PUSH1 0xA0 DUP8 ADD MSTORE POP PUSH2 0x1C72 DUP3 DUP3 PUSH2 0x199A JUMP JUMPDEST SWAP2 POP POP PUSH1 0xA0 DUP6 ADD MLOAD PUSH1 0xC0 DUP6 ADD MSTORE DUP2 PUSH1 0xC0 DUP7 ADD MLOAD AND PUSH1 0xE0 DUP6 ADD MSTORE DUP1 SWAP3 POP POP POP SWAP3 SWAP2 POP POP JUMP JUMPDEST PUSH1 0x0 PUSH1 0x1 DUP1 PUSH1 0xA0 SHL SUB DUP1 DUP11 AND DUP4 MSTORE PUSH1 0xE0 PUSH1 0x20 DUP5 ADD MSTORE PUSH2 0x1CB8 PUSH1 0xE0 DUP5 ADD DUP11 PUSH2 0x199A JUMP JUMPDEST DUP9 PUSH1 0x40 DUP6 ADD MSTORE DUP4 DUP2 SUB PUSH1 0x60 DUP6 ADD MSTORE PUSH2 0x1CD0 DUP2 DUP10 PUSH2 0x199A JUMP JUMPDEST SWAP1 POP DUP4 DUP2 SUB PUSH1 0x80 DUP6 ADD MSTORE PUSH2 0x1CE4 DUP2 DUP9 PUSH2 0x199A JUMP JUMPDEST PUSH1 0xA0 DUP6 ADD SWAP7 SWAP1 SWAP7 MSTORE POP SWAP3 SWAP1 SWAP3 AND PUSH1 0xC0 SWAP1 SWAP2 ADD MSTORE POP SWAP6 SWAP5 POP POP POP POP POP JUMP JUMPDEST PUSH1 0x0 DUP1 PUSH1 0x0 DUP1 PUSH1 0x0 DUP1 PUSH1 0xC0 DUP8 DUP10 SUB SLT ISZERO PUSH2 0x1D1A JUMPI PUSH1 0x0 DUP1 REVERT JUMPDEST PUSH2 0x1D23 DUP8 PUSH2 0x176B JUMP JUMPDEST SWAP6 POP PUSH2 0x1D31 PUSH1 0x20 DUP9 ADD PUSH2 0x176B JUMP JUMPDEST SWAP5 POP PUSH1 0x40 DUP8 ADD CALLDATALOAD SWAP4 POP PUSH1 0x60 DUP8 ADD CALLDATALOAD SWAP3 POP PUSH1 0x80 DUP8 ADD CALLDATALOAD SWAP2 POP PUSH1 0xA0 DUP8 ADD CALLDATALOAD PUSH8 0xFFFFFFFFFFFFFFFF DUP2 GT ISZERO PUSH2 0x1D62 JUMPI PUSH1 0x0 DUP1 REVERT JUMPDEST PUSH2 0x1D6E DUP10 DUP3 DUP11 ADD PUSH2 0x17E9 JUMP JUMPDEST SWAP2 POP POP SWAP3 SWAP6 POP SWAP3 SWAP6 POP SWAP3 SWAP6 JUMP JUMPDEST PUSH1 0x1 DUP2 DUP2 SHR SWAP1 DUP3 AND DUP1 PUSH2 0x1D8F JUMPI PUSH1 0x7F DUP3 AND SWAP2 POP JUMPDEST PUSH1 0x20 DUP3 LT DUP2 SUB PUSH2 0x1DAF JUMPI PUSH4 0x4E487B71 PUSH1 0xE0 SHL PUSH1 0x0 MSTORE PUSH1 0x22 PUSH1 0x4 MSTORE PUSH1 0x24 PUSH1 0x0 REVERT JUMPDEST POP SWAP2 SWAP1 POP JUMP JUMPDEST PUSH1 0x1F DUP3 GT ISZERO PUSH2 0x88E JUMPI PUSH1 0x0 DUP2 DUP2 MSTORE PUSH1 0x20 DUP2 KECCAK256 PUSH1 0x1F DUP6 ADD PUSH1 0x5 SHR DUP2 ADD PUSH1 0x20 DUP7 LT ISZERO PUSH2 0x1DDC JUMPI POP DUP1 JUMPDEST PUSH1 0x1F DUP6 ADD PUSH1 0x5 SHR DUP3 ADD SWAP2 POP JUMPDEST DUP2 DUP2 LT ISZERO PUSH2 0x1DFB JUMPI DUP3 DUP2 SSTORE PUSH1 0x1 ADD PUSH2 0x1DE8 JUMP JUMPDEST POP POP POP POP POP POP JUMP JUMPDEST DUP2 MLOAD PUSH8 0xFFFFFFFFFFFFFFFF DUP2 GT ISZERO PUSH2 0x1E1D JUMPI PUSH2 0x1E1D PUSH2 0x17A2 JUMP JUMPDEST PUSH2 0x1E31 DUP2 PUSH2 0x1E2B DUP5 SLOAD PUSH2 0x1D7B JUMP JUMPDEST DUP5 PUSH2 0x1DB5 JUMP JUMPDEST PUSH1 0x20 DUP1 PUSH1 0x1F DUP4 GT PUSH1 0x1 DUP2 EQ PUSH2 0x1E66 JUMPI PUSH1 0x0 DUP5 ISZERO PUSH2 0x1E4E JUMPI POP DUP6 DUP4 ADD MLOAD JUMPDEST PUSH1 0x0 NOT PUSH1 0x3 DUP7 SWAP1 SHL SHR NOT AND PUSH1 0x1 DUP6 SWAP1 SHL OR DUP6 SSTORE PUSH2 0x1DFB JUMP JUMPDEST PUSH1 0x0 DUP6 DUP2 MSTORE PUSH1 0x20 DUP2 KECCAK256 PUSH1 0x1F NOT DUP7 AND SWAP2 JUMPDEST DUP3 DUP2 LT ISZERO PUSH2 0x1E95 JUMPI DUP9 DUP7 ADD MLOAD DUP3 SSTORE SWAP5 DUP5 ADD SWAP5 PUSH1 0x1 SWAP1 SWAP2 ADD SWAP1 DUP5 ADD PUSH2 0x1E76 JUMP JUMPDEST POP DUP6 DUP3 LT ISZERO PUSH2 0x1EB3 JUMPI DUP8 DUP6 ADD MLOAD PUSH1 0x0 NOT PUSH1 0x3 DUP9 SWAP1 SHL PUSH1 0xF8 AND SHR NOT AND DUP2 SSTORE JUMPDEST POP POP POP POP POP PUSH1 0x1 SWAP1 DUP2 SHL ADD SWAP1 SSTORE POP JUMP JUMPDEST PUSH1 0x20 DUP2 MSTORE PUSH1 0x0 PUSH2 0x1764 PUSH1 0x20 DUP4 ADD DUP5 PUSH2 0x199A JUMP JUMPDEST PUSH1 0x0 PUSH1 0x1 DUP3 ADD PUSH2 0x1EF6 JUMPI PUSH4 0x4E487B71 PUSH1 0xE0 SHL PUSH1 0x0 MSTORE PUSH1 0x11 PUSH1 0x4 MSTORE PUSH1 0x24 PUSH1 0x0 REVERT JUMPDEST POP PUSH1 0x1 ADD SWAP1 JUMP JUMPDEST PUSH1 0x40 DUP2 MSTORE PUSH1 0x0 PUSH2 0x1F10 PUSH1 0x40 DUP4 ADD DUP6 PUSH2 0x199A JUMP JUMPDEST SWAP1 POP DUP3 PUSH1 0x20 DUP4 ADD MSTORE SWAP4 SWAP3 POP POP POP JUMP JUMPDEST PUSH1 0x0 DUP3 MLOAD PUSH2 0x1F31 DUP2 DUP5 PUSH1 0x20 DUP8 ADD PUSH2 0x1976 JUMP JUMPDEST SWAP2 SWAP1 SWAP2 ADD SWAP3 SWAP2 POP POP JUMP JUMPDEST PUSH1 0x1 DUP1 PUSH1 0xA0 SHL SUB DUP6 AND DUP2 MSTORE DUP4 PUSH1 0x20 DUP3 ADD MSTORE DUP3 PUSH1 0x40 DUP3 ADD MSTORE PUSH1 0x80 PUSH1 0x60 DUP3 ADD MSTORE PUSH1 0x0 PUSH2 0x1F68 PUSH1 0x80 DUP4 ADD DUP5 PUSH2 0x199A JUMP JUMPDEST SWAP7 SWAP6 POP POP POP POP POP POP JUMP INVALID 0xC 0xE2 EXTCODECOPY RETURNDATACOPY CODECOPY SWAP9 XOR 0xCF 0xEE DUP2 0xA7 0xAB ADDMOD DUP1 0xF7 EQ 0xE5 RETURNDATASIZE PUSH23 0x72B08DF0FA62F2843416E1EA09A2646970667358221220 PUSH27 0x1086FAC24004261FE1E217CD7FBB807311539B80DF48E810ABBC88 MSIZE 0xD9 0xD3 ADD PUSH5 0x736F6C6343 STOP ADDMOD EQ STOP CALLER "},"methodIdentifiers":{"DEFAULT_ADMIN_ROLE()":"a217fddf","OPERATOR_ROLE()":"f5b541a6","VERIFIER_ROLE()":"e7705db6","approveSupplier(address)":"020ecff4","assetVerifications(uint256)":"de0ff8a1","authorizeTokenMinting(address,address,uint256,uint256,uint256,string)":"ed6e2141","emergencyBurnExpiredTokens(address,address)":"9c839b2e","getAssetVerification(uint256)":"bd359719","getRoleAdmin(bytes32)":"248a9ca3","getSupplierInfo(address)":"59435f04","grantRole(bytes32,address)":"2f2ff15d","hasRole(bytes32,address)":"91d14854","isSupplierApproved(address)":"7c1b2b9d","pause()":"8456cb59","paused()":"5c975abb","registerSupplier(address,string,string,string[])":"04d2b510","registerToken(address,string)":"d4fbeb19","registeredTokens(address,string)":"afce7235","renounceRole(bytes32,address)":"36568abe","revokeRole(bytes32,address)":"d547741f","suppliers(address)":"16dc15fe","supportsInterface(bytes4)":"01ffc9a7","unpause()":"3f4ba83a","verificationCounter()":"16cd94fc","verifyAssetBacking(address,string,uint256,string,string)":"b76e353b"}}}}}