{
  "_format": "hh-sol-artifact-1",
  "contractName": "SimpleCentralAuthority",
  "sourceName": "contracts/SimpleCentralAuthority.sol",
  "abi": [
    {
      "inputs": [
        {
          "internalType": "address",
          "name": "defaultAdmin",
          "type": "address"
        }
      ],
      "stateMutability": "nonpayable",
      "type": "constructor"
    },
    {
      "inputs": [],
      "name": "AccessControlBadConfirmation",
      "type": "error"
    },
    {
      "inputs": [
        {
          "internalType": "address",
          "name": "account",
          "type": "address"
        },
        {
          "internalType": "bytes32",
          "name": "neededRole",
          "type": "bytes32"
        }
      ],
      "name": "AccessControlUnauthorizedAccount",
      "type": "error"
    },
    {
      "inputs": [],
      "name": "EnforcedPause",
      "type": "error"
    },
    {
      "inputs": [],
      "name": "ExpectedPause",
      "type": "error"
    },
    {
      "anonymous": false,
      "inputs": [
        {
          "indexed": true,
          "internalType": "uint256",
          "name": "verificationId",
          "type": "uint256"
        },
        {
          "indexed": true,
          "internalType": "address",
          "name": "supplier",
          "type": "address"
        },
        {
          "indexed": false,
          "internalType": "string",
          "name": "assetType",
          "type": "string"
        },
        {
          "indexed": false,
          "internalType": "uint256",
          "name": "quantity",
          "type": "uint256"
        }
      ],
      "name": "AssetVerified",
      "type": "event"
    },
    {
      "anonymous": false,
      "inputs": [
        {
          "indexed": false,
          "internalType": "address",
          "name": "account",
          "type": "address"
        }
      ],
      "name": "Paused",
      "type": "event"
    },
    {
      "anonymous": false,
      "inputs": [
        {
          "indexed": true,
          "internalType": "bytes32",
          "name": "role",
          "type": "bytes32"
        },
        {
          "indexed": true,
          "internalType": "bytes32",
          "name": "previousAdminRole",
          "type": "bytes32"
        },
        {
          "indexed": true,
          "internalType": "bytes32",
          "name": "newAdminRole",
          "type": "bytes32"
        }
      ],
      "name": "RoleAdminChanged",
      "type": "event"
    },
    {
      "anonymous": false,
      "inputs": [
        {
          "indexed": true,
          "internalType": "bytes32",
          "name": "role",
          "type": "bytes32"
        },
        {
          "indexed": true,
          "internalType": "address",
          "name": "account",
          "type": "address"
        },
        {
          "indexed": true,
          "internalType": "address",
          "name": "sender",
          "type": "address"
        }
      ],
      "name": "RoleGranted",
      "type": "event"
    },
    {
      "anonymous": false,
      "inputs": [
        {
          "indexed": true,
          "internalType": "bytes32",
          "name": "role",
          "type": "bytes32"
        },
        {
          "indexed": true,
          "internalType": "address",
          "name": "account",
          "type": "address"
        },
        {
          "indexed": true,
          "internalType": "address",
          "name": "sender",
          "type": "address"
        }
      ],
      "name": "RoleRevoked",
      "type": "event"
    },
    {
      "anonymous": false,
      "inputs": [
        {
          "indexed": true,
          "internalType": "address",
          "name": "supplier",
          "type": "address"
        }
      ],
      "name": "SupplierApproved",
      "type": "event"
    },
    {
      "anonymous": false,
      "inputs": [
        {
          "indexed": true,
          "internalType": "address",
          "name": "supplier",
          "type": "address"
        },
        {
          "indexed": false,
          "internalType": "string",
          "name": "name",
          "type": "string"
        }
      ],
      "name": "SupplierRegistered",
      "type": "event"
    },
    {
      "anonymous": false,
      "inputs": [
        {
          "indexed": true,
          "internalType": "address",
          "name": "token",
          "type": "address"
        },
        {
          "indexed": true,
          "internalType": "address",
          "name": "recipient",
          "type": "address"
        },
        {
          "indexed": false,
          "internalType": "uint256",
          "name": "amount",
          "type": "uint256"
        }
      ],
      "name": "TokenMinted",
      "type": "event"
    },
    {
      "anonymous": false,
      "inputs": [
        {
          "indexed": true,
          "internalType": "address",
          "name": "tokenAddress",
          "type": "address"
        },
        {
          "indexed": false,
          "internalType": "string",
          "name": "assetType",
          "type": "string"
        }
      ],
      "name": "TokenRegistered",
      "type": "event"
    },
    {
      "anonymous": false,
      "inputs": [
        {
          "indexed": false,
          "internalType": "address",
          "name": "account",
          "type": "address"
        }
      ],
      "name": "Unpaused",
      "type": "event"
    },
    {
      "inputs": [],
      "name": "DEFAULT_ADMIN_ROLE",
      "outputs": [
        {
          "internalType": "bytes32",
          "name": "",
          "type": "bytes32"
        }
      ],
      "stateMutability": "view",
      "type": "function"
    },
    {
      "inputs": [],
      "name": "OPERATOR_ROLE",
      "outputs": [
        {
          "internalType": "bytes32",
          "name": "",
          "type": "bytes32"
        }
      ],
      "stateMutability": "view",
      "type": "function"
    },
    {
      "inputs": [],
      "name": "VERIFIER_ROLE",
      "outputs": [
        {
          "internalType": "bytes32",
          "name": "",
          "type": "bytes32"
        }
      ],
      "stateMutability": "view",
      "type": "function"
    },
    {
      "inputs": [
        {
          "internalType": "address",
          "name": "supplierAddress",
          "type": "address"
        }
      ],
      "name": "approveSupplier",
      "outputs": [],
      "stateMutability": "nonpayable",
      "type": "function"
    },
    {
      "inputs": [
        {
          "internalType": "uint256",
          "name": "",
          "type": "uint256"
        }
      ],
      "name": "assetVerifications",
      "outputs": [
        {
          "internalType": "address",
          "name": "supplier",
          "type": "address"
        },
        {
          "internalType": "string",
          "name": "assetType",
          "type": "string"
        },
        {
          "internalType": "uint256",
          "name": "quantity",
          "type": "uint256"
        },
        {
          "internalType": "string",
          "name": "location",
          "type": "string"
        },
        {
          "internalType": "string",
          "name": "verificationNotes",
          "type": "string"
        },
        {
          "internalType": "uint256",
          "name": "timestamp",
          "type": "uint256"
        },
        {
          "internalType": "address",
          "name": "verifier",
          "type": "address"
        }
      ],
      "stateMutability": "view",
      "type": "function"
    },
    {
      "inputs": [
        {
          "internalType": "address",
          "name": "tokenAddress",
          "type": "address"
        },
        {
          "internalType": "address",
          "name": "recipient",
          "type": "address"
        },
        {
          "internalType": "uint256",
          "name": "amount",
          "type": "uint256"
        },
        {
          "internalType": "uint256",
          "name": "createdAt",
          "type": "uint256"
        },
        {
          "internalType": "uint256",
          "name": "expiryTimestamp",
          "type": "uint256"
        },
        {
          "internalType": "string",
          "name": "location",
          "type": "string"
        }
      ],
      "name": "authorizeTokenMinting",
      "outputs": [],
      "stateMutability": "nonpayable",
      "type": "function"
    },
    {
      "inputs": [
        {
          "internalType": "address",
          "name": "tokenAddress",
          "type": "address"
        },
        {
          "internalType": "address",
          "name": "holder",
          "type": "address"
        }
      ],
      "name": "emergencyBurnExpiredTokens",
      "outputs": [],
      "stateMutability": "nonpayable",
      "type": "function"
    },
    {
      "inputs": [
        {
          "internalType": "uint256",
          "name": "verificationId",
          "type": "uint256"
        }
      ],
      "name": "getAssetVerification",
      "outputs": [
        {
          "components": [
            {
              "internalType": "address",
              "name": "supplier",
              "type": "address"
            },
            {
              "internalType": "string",
              "name": "assetType",
              "type": "string"
            },
            {
              "internalType": "uint256",
              "name": "quantity",
              "type": "uint256"
            },
            {
              "internalType": "string",
              "name": "location",
              "type": "string"
            },
            {
              "internalType": "string",
              "name": "verificationNotes",
              "type": "string"
            },
            {
              "internalType": "uint256",
              "name": "timestamp",
              "type": "uint256"
            },
            {
              "internalType": "address",
              "name": "verifier",
              "type": "address"
            }
          ],
          "internalType": "struct SimpleCentralAuthority.AssetVerification",
          "name": "",
          "type": "tuple"
        }
      ],
      "stateMutability": "view",
      "type": "function"
    },
    {
      "inputs": [
        {
          "internalType": "bytes32",
          "name": "role",
          "type": "bytes32"
        }
      ],
      "name": "getRoleAdmin",
      "outputs": [
        {
          "internalType": "bytes32",
          "name": "",
          "type": "bytes32"
        }
      ],
      "stateMutability": "view",
      "type": "function"
    },
    {
      "inputs": [
        {
          "internalType": "address",
          "name": "supplier",
          "type": "address"
        }
      ],
      "name": "getSupplierInfo",
      "outputs": [
        {
          "internalType": "string",
          "name": "name",
          "type": "string"
        },
        {
          "internalType": "string",
          "name": "location",
          "type": "string"
        },
        {
          "internalType": "string[]",
          "name": "assetTypes",
          "type": "string[]"
        },
        {
          "internalType": "bool",
          "name": "isApproved",
          "type": "bool"
        },
        {
          "internalType": "uint256",
          "name": "registrationTime",
          "type": "uint256"
        }
      ],
      "stateMutability": "view",
      "type": "function"
    },
    {
      "inputs": [
        {
          "internalType": "bytes32",
          "name": "role",
          "type": "bytes32"
        },
        {
          "internalType": "address",
          "name": "account",
          "type": "address"
        }
      ],
      "name": "grantRole",
      "outputs": [],
      "stateMutability": "nonpayable",
      "type": "function"
    },
    {
      "inputs": [
        {
          "internalType": "bytes32",
          "name": "role",
          "type": "bytes32"
        },
        {
          "internalType": "address",
          "name": "account",
          "type": "address"
        }
      ],
      "name": "hasRole",
      "outputs": [
        {
          "internalType": "bool",
          "name": "",
          "type": "bool"
        }
      ],
      "stateMutability": "view",
      "type": "function"
    },
    {
      "inputs": [
        {
          "internalType": "address",
          "name": "supplier",
          "type": "address"
        }
      ],
      "name": "isSupplierApproved",
      "outputs": [
        {
          "internalType": "bool",
          "name": "",
          "type": "bool"
        }
      ],
      "stateMutability": "view",
      "type": "function"
    },
    {
      "inputs": [],
      "name": "pause",
      "outputs": [],
      "stateMutability": "nonpayable",
      "type": "function"
    },
    {
      "inputs": [],
      "name": "paused",
      "outputs": [
        {
          "internalType": "bool",
          "name": "",
          "type": "bool"
        }
      ],
      "stateMutability": "view",
      "type": "function"
    },
    {
      "inputs": [
        {
          "internalType": "address",
          "name": "supplierAddress",
          "type": "address"
        },
        {
          "internalType": "string",
          "name": "name",
          "type": "string"
        },
        {
          "internalType": "string",
          "name": "location",
          "type": "string"
        },
        {
          "internalType": "string[]",
          "name": "assetTypes",
          "type": "string[]"
        }
      ],
      "name": "registerSupplier",
      "outputs": [],
      "stateMutability": "nonpayable",
      "type": "function"
    },
    {
      "inputs": [
        {
          "internalType": "address",
          "name": "tokenAddress",
          "type": "address"
        },
        {
          "internalType": "string",
          "name": "assetType",
          "type": "string"
        }
      ],
      "name": "registerToken",
      "outputs": [],
      "stateMutability": "nonpayable",
      "type": "function"
    },
    {
      "inputs": [
        {
          "internalType": "address",
          "name": "",
          "type": "address"
        },
        {
          "internalType": "string",
          "name": "",
          "type": "string"
        }
      ],
      "name": "registeredTokens",
      "outputs": [
        {
          "internalType": "address",
          "name": "",
          "type": "address"
        }
      ],
      "stateMutability": "view",
      "type": "function"
    },
    {
      "inputs": [
        {
          "internalType": "bytes32",
          "name": "role",
          "type": "bytes32"
        },
        {
          "internalType": "address",
          "name": "callerConfirmation",
          "type": "address"
        }
      ],
      "name": "renounceRole",
      "outputs": [],
      "stateMutability": "nonpayable",
      "type": "function"
    },
    {
      "inputs": [
        {
          "internalType": "bytes32",
          "name": "role",
          "type": "bytes32"
        },
        {
          "internalType": "address",
          "name": "account",
          "type": "address"
        }
      ],
      "name": "revokeRole",
      "outputs": [],
      "stateMutability": "nonpayable",
      "type": "function"
    },
    {
      "inputs": [
        {
          "internalType": "address",
          "name": "",
          "type": "address"
        }
      ],
      "name": "suppliers",
      "outputs": [
        {
          "internalType": "string",
          "name": "name",
          "type": "string"
        },
        {
          "internalType": "string",
          "name": "location",
          "type": "string"
        },
        {
          "internalType": "bool",
          "name": "isApproved",
          "type": "bool"
        },
        {
          "internalType": "uint256",
          "name": "registrationTime",
          "type": "uint256"
        }
      ],
      "stateMutability": "view",
      "type": "function"
    },
    {
      "inputs": [
        {
          "internalType": "bytes4",
          "name": "interfaceId",
          "type": "bytes4"
        }
      ],
      "name": "supportsInterface",
      "outputs": [
        {
          "internalType": "bool",
          "name": "",
          "type": "bool"
        }
      ],
      "stateMutability": "view",
      "type": "function"
    },
    {
      "inputs": [],
      "name": "unpause",
      "outputs": [],
      "stateMutability": "nonpayable",
      "type": "function"
    },
    {
      "inputs": [],
      "name": "verificationCounter",
      "outputs": [
        {
          "internalType": "uint256",
          "name": "",
          "type": "uint256"
        }
      ],
      "stateMutability": "view",
      "type": "function"
    },
    {
      "inputs": [
        {
          "internalType": "address",
          "name": "supplier",
          "type": "address"
        },
        {
          "internalType": "string",
          "name": "assetType",
          "type": "string"
        },
        {
          "internalType": "uint256",
          "name": "quantity",
          "type": "uint256"
        },
        {
          "internalType": "string",
          "name": "location",
          "type": "string"
        },
        {
          "internalType": "string",
          "name": "verificationNotes",
          "type": "string"
        }
      ],
      "name": "verifyAssetBacking",
      "outputs": [
        {
          "internalType": "uint256",
          "name": "",
          "type": "uint256"
        }
      ],
      "stateMutability": "nonpayable",
      "type": "function"
    }
  ],
  "bytecode": "0x60806040523480156200001157600080fd5b506040516200215c3803806200215c833981016040819052620000349162000152565b62000041600082620000a3565b506200006e7f0ce23c3e399818cfee81a7ab0880f714e53d7672b08df0fa62f2843416e1ea0982620000a3565b506200009b7f97667070c54ef182b0f5858b034beac1b6f3089aa2d3188bb1e8929f4fa9b92982620000a3565b505062000184565b6000828152602081815260408083206001600160a01b038516845290915281205460ff1662000148576000838152602081815260408083206001600160a01b03861684529091529020805460ff19166001179055620000ff3390565b6001600160a01b0316826001600160a01b0316847f2f8788117e7eff1d82e926ec794901d17c78024a50270940304540a733656f0d60405160405180910390a45060016200014c565b5060005b92915050565b6000602082840312156200016557600080fd5b81516001600160a01b03811681146200017d57600080fd5b9392505050565b611fc880620001946000396000f3fe608060405234801561001057600080fd5b50600436106101735760003560e01c80638456cb59116100de578063bd35971911610097578063de0ff8a111610071578063de0ff8a11461039d578063e7705db6146103c3578063ed6e2141146103d8578063f5b541a6146103eb57600080fd5b8063bd35971914610357578063d4fbeb1914610377578063d547741f1461038a57600080fd5b80638456cb59146102b157806391d14854146102b95780639c839b2e146102cc578063a217fddf146102df578063afce7235146102e7578063b76e353b1461034457600080fd5b80632f2ff15d116101305780632f2ff15d1461022557806336568abe146102385780633f4ba83a1461024b57806359435f04146102535780635c975abb146102775780637c1b2b9d1461028257600080fd5b806301ffc9a714610178578063020ecff4146101a057806304d2b510146101b557806316cd94fc146101c857806316dc15fe146101df578063248a9ca314610202575b600080fd5b61018b61018636600461173a565b610412565b60405190151581526020015b60405180910390f35b6101b36101ae366004611787565b610449565b005b6101b36101c3366004611859565b61051e565b6101d160055481565b604051908152602001610197565b6101f26101ed366004611787565b6106f4565b60405161019794939291906119c6565b6101d16102103660046119ff565b60009081526020819052604090206001015490565b6101b3610233366004611a18565b610830565b6101b3610246366004611a18565b61085b565b6101b3610893565b610266610261366004611787565b6108a9565b604051610197959493929190611a44565b60015460ff1661018b565b61018b610290366004611787565b6001600160a01b031660009081526002602052604090206003015460ff1690565b6101b3610b25565b61018b6102c7366004611a18565b610b38565b6101b36102da366004611ae1565b610b61565b6101d1600081565b61032c6102f5366004611b0b565b600360209081526000928352604090922081518083018401805192815290840192909301919091209152546001600160a01b031681565b6040516001600160a01b039091168152602001610197565b6101d1610352366004611b59565b610bcc565b61036a6103653660046119ff565b610d84565b6040516101979190611bfc565b6101b3610385366004611b0b565b610fe6565b6101b3610398366004611a18565b6110c9565b6103b06103ab3660046119ff565b6110ee565b6040516101979796959493929190611c96565b6101d1600080516020611f7383398151915281565b6101b36103e6366004611d01565b6112d5565b6101d17f97667070c54ef182b0f5858b034beac1b6f3089aa2d3188bb1e8929f4fa9b92981565b60006001600160e01b03198216637965db0b60e01b148061044357506301ffc9a760e01b6001600160e01b03198316145b92915050565b600080516020611f7383398151915261046181611463565b6001600160a01b0382166000908152600260205260409020600401546104ce5760405162461bcd60e51b815260206004820152601760248201527f537570706c696572206e6f74207265676973746572656400000000000000000060448201526064015b60405180910390fd5b6001600160a01b038216600081815260026020526040808220600301805460ff19166001179055517fe070936067f74dcd7331d2f68790b5f2e4848d89dec927f7d7b733b2df4c7b279190a25050565b7f97667070c54ef182b0f5858b034beac1b6f3089aa2d3188bb1e8929f4fa9b92961054881611463565b6001600160a01b03851661059e5760405162461bcd60e51b815260206004820152601860248201527f496e76616c696420737570706c6965722061646472657373000000000000000060448201526064016104c5565b6001600160a01b038516600090815260026020526040902060040154156106075760405162461bcd60e51b815260206004820152601b60248201527f537570706c69657220616c72656164792072656769737465726564000000000060448201526064016104c5565b6040805160a08101825285815260208082018690528183018590526000606083018190524260808401526001600160a01b0389168152600290915291909120815181906106549082611e03565b50602082015160018201906106699082611e03565b506040820151805161068591600284019160209091019061167d565b50606082015160038201805460ff19169115159190911790556080909101516004909101556040516001600160a01b038616907fd52881a6125270bc10edc37221b17d746ef540e29867a40b76ed110ef520224c906106e5908790611ec3565b60405180910390a25050505050565b60026020526000908152604090208054819061070f90611d7b565b80601f016020809104026020016040519081016040528092919081815260200182805461073b90611d7b565b80156107885780601f1061075d57610100808354040283529160200191610788565b820191906000526020600020905b81548152906001019060200180831161076b57829003601f168201915b50505050509080600101805461079d90611d7b565b80601f01602080910402602001604051908101604052809291908181526020018280546107c990611d7b565b80156108165780601f106107eb57610100808354040283529160200191610816565b820191906000526020600020905b8154815290600101906020018083116107f957829003601f168201915b505050506003830154600490930154919260ff1691905084565b60008281526020819052604090206001015461084b81611463565b610855838361146d565b50505050565b6001600160a01b03811633146108845760405163334bd91960e11b815260040160405180910390fd5b61088e82826114ff565b505050565b600061089e81611463565b6108a661156a565b50565b6060806060600080600060026000886001600160a01b03166001600160a01b031681526020019081526020016000206040518060a00160405290816000820180546108f390611d7b565b80601f016020809104026020016040519081016040528092919081815260200182805461091f90611d7b565b801561096c5780601f106109415761010080835404028352916020019161096c565b820191906000526020600020905b81548152906001019060200180831161094f57829003601f168201915b5050505050815260200160018201805461098590611d7b565b80601f01602080910402602001604051908101604052809291908181526020018280546109b190611d7b565b80156109fe5780601f106109d3576101008083540402835291602001916109fe565b820191906000526020600020905b8154815290600101906020018083116109e157829003601f168201915b5050505050815260200160028201805480602002602001604051908101604052809291908181526020016000905b82821015610ad8578382906000526020600020018054610a4b90611d7b565b80601f0160208091040260200160405190810160405280929190818152602001828054610a7790611d7b565b8015610ac45780601f10610a9957610100808354040283529160200191610ac4565b820191906000526020600020905b815481529060010190602001808311610aa757829003601f168201915b505050505081526020019060010190610a2c565b50505090825250600382015460ff161515602080830191909152600490920154604091820152825191830151908301516060840151608090940151929b919a509850919650945092505050565b6000610b3081611463565b6108a66115bc565b6000918252602082815260408084206001600160a01b0393909316845291905290205460ff1690565b6000610b6c81611463565b60405163db556e3d60e01b81526001600160a01b03838116600483015284169063db556e3d90602401600060405180830381600087803b158015610baf57600080fd5b505af1158015610bc3573d6000803e3d6000fd5b50505050505050565b6000600080516020611f73833981519152610be681611463565b6001600160a01b03871660009081526002602052604090206003015460ff16610c495760405162461bcd60e51b815260206004820152601560248201527414dd5c1c1b1a595c881b9bdd08185c1c1c9bdd9959605a1b60448201526064016104c5565b6005805460009182610c5a83611ed6565b909155506040805160e0810182526001600160a01b038b8116825260208083018c81528385018c9052606084018b9052608084018a90524260a08501523360c085015260008681526004909252939020825181546001600160a01b03191692169190911781559151929350916001820190610cd59082611e03565b506040820151600282015560608201516003820190610cf49082611e03565b5060808201516004820190610d099082611e03565b5060a0820151600582015560c090910151600690910180546001600160a01b0319166001600160a01b039283161790556040519089169082907f858e5d1570091376ca084479eba573a1537a4c27ca02f92770d3df3b98fd8d4990610d71908b908b90611efd565b60405180910390a3979650505050505050565b610dd66040518060e0016040528060006001600160a01b03168152602001606081526020016000815260200160608152602001606081526020016000815260200160006001600160a01b031681525090565b600082815260046020908152604091829020825160e0810190935280546001600160a01b031683526001810180549192840191610e1290611d7b565b80601f0160208091040260200160405190810160405280929190818152602001828054610e3e90611d7b565b8015610e8b5780601f10610e6057610100808354040283529160200191610e8b565b820191906000526020600020905b815481529060010190602001808311610e6e57829003601f168201915b5050505050815260200160028201548152602001600382018054610eae90611d7b565b80601f0160208091040260200160405190810160405280929190818152602001828054610eda90611d7b565b8015610f275780601f10610efc57610100808354040283529160200191610f27565b820191906000526020600020905b815481529060010190602001808311610f0a57829003601f168201915b50505050508152602001600482018054610f4090611d7b565b80601f0160208091040260200160405190810160405280929190818152602001828054610f6c90611d7b565b8015610fb95780601f10610f8e57610100808354040283529160200191610fb9565b820191906000526020600020905b815481529060010190602001808311610f9c57829003601f168201915b5050509183525050600582015460208201526006909101546001600160a01b031660409091015292915050565b6000610ff181611463565b6001600160a01b03831661103f5760405162461bcd60e51b8152602060048201526015602482015274496e76616c696420746f6b656e206164647265737360581b60448201526064016104c5565b33600090815260036020526040908190209051849190611060908590611f1f565b90815260405190819003602001812080546001600160a01b039384166001600160a01b0319909116179055908416907faaed15520cc86e95b7c2522d968096283afbef7858bdf194b2f60d28a1a8d63e906110bc908590611ec3565b60405180910390a2505050565b6000828152602081905260409020600101546110e481611463565b61085583836114ff565b600460205260009081526040902080546001820180546001600160a01b03909216929161111a90611d7b565b80601f016020809104026020016040519081016040528092919081815260200182805461114690611d7b565b80156111935780601f1061116857610100808354040283529160200191611193565b820191906000526020600020905b81548152906001019060200180831161117657829003601f168201915b5050505050908060020154908060030180546111ae90611d7b565b80601f01602080910402602001604051908101604052809291908181526020018280546111da90611d7b565b80156112275780601f106111fc57610100808354040283529160200191611227565b820191906000526020600020905b81548152906001019060200180831161120a57829003601f168201915b50505050509080600401805461123c90611d7b565b80601f016020809104026020016040519081016040528092919081815260200182805461126890611d7b565b80156112b55780601f1061128a576101008083540402835291602001916112b5565b820191906000526020600020905b81548152906001019060200180831161129857829003601f168201915b5050505060058301546006909301549192916001600160a01b0316905087565b600080516020611f738339815191526112ed81611463565b6001600160a01b03871661133b5760405162461bcd60e51b8152602060048201526015602482015274496e76616c696420746f6b656e206164647265737360581b60448201526064016104c5565b6001600160a01b03861660009081526002602052604090206003015460ff166113a65760405162461bcd60e51b815260206004820152601f60248201527f526563697069656e74206e6f7420617070726f76656420737570706c6965720060448201526064016104c5565b60405163bb7fde7160e01b815287906001600160a01b0382169063bb7fde71906113da908a908a9089908990600401611f3b565b600060405180830381600087803b1580156113f457600080fd5b505af1158015611408573d6000803e3d6000fd5b50505050866001600160a01b0316886001600160a01b03167fdf1b2b09e9800d31c599375056be9f9e4eb37f078102643600c4e149714efaad8860405161145191815260200190565b60405180910390a35050505050505050565b6108a681336115f7565b60006114798383610b38565b6114f7576000838152602081815260408083206001600160a01b03861684529091529020805460ff191660011790556114af3390565b6001600160a01b0316826001600160a01b0316847f2f8788117e7eff1d82e926ec794901d17c78024a50270940304540a733656f0d60405160405180910390a4506001610443565b506000610443565b600061150b8383610b38565b156114f7576000838152602081815260408083206001600160a01b0386168085529252808320805460ff1916905551339286917ff6391f5c32d9c69d2a47ea670b442974b53935d1edc7fd64eb21e047a839171b9190a4506001610443565b611572611634565b6001805460ff191690557f5db9ee0a495bf2e6ff9c91a7834c1ba4fdd244a5e8aa4e537bd38aeae4b073aa335b6040516001600160a01b03909116815260200160405180910390a1565b6115c4611659565b6001805460ff1916811790557f62e78cea01bee320cd4e420270b5ea74000d11b0c9f74754ebdbfc544b05a2583361159f565b6116018282610b38565b6116305760405163e2517d3f60e01b81526001600160a01b0382166004820152602481018390526044016104c5565b5050565b60015460ff1661165757604051638dfc202b60e01b815260040160405180910390fd5b565b60015460ff16156116575760405163d93c066560e01b815260040160405180910390fd5b8280548282559060005260206000209081019282156116c3579160200282015b828111156116c357825182906116b39082611e03565b509160200191906001019061169d565b506116cf9291506116d3565b5090565b808211156116cf5760006116e782826116f0565b506001016116d3565b5080546116fc90611d7b565b6000825580601f1061170c575050565b601f0160209004906000526020600020908101906108a691905b808211156116cf5760008155600101611726565b60006020828403121561174c57600080fd5b81356001600160e01b03198116811461176457600080fd5b9392505050565b80356001600160a01b038116811461178257600080fd5b919050565b60006020828403121561179957600080fd5b6117648261176b565b634e487b7160e01b600052604160045260246000fd5b604051601f8201601f1916810167ffffffffffffffff811182821017156117e1576117e16117a2565b604052919050565b600082601f8301126117fa57600080fd5b813567ffffffffffffffff811115611814576118146117a2565b611827601f8201601f19166020016117b8565b81815284602083860101111561183c57600080fd5b816020850160208301376000918101602001919091529392505050565b6000806000806080858703121561186f57600080fd5b6118788561176b565b935060208086013567ffffffffffffffff8082111561189657600080fd5b6118a289838a016117e9565b955060408801359150808211156118b857600080fd5b6118c489838a016117e9565b945060608801359150808211156118da57600080fd5b818801915088601f8301126118ee57600080fd5b813581811115611900576119006117a2565b8060051b61190f8582016117b8565b918252838101850191858101908c84111561192957600080fd5b86860192505b83831015611965578235858111156119475760008081fd5b6119558e89838a01016117e9565b835250918601919086019061192f565b999c989b5096995050505050505050565b60005b83811015611991578181015183820152602001611979565b50506000910152565b600081518084526119b2816020860160208601611976565b601f01601f19169290920160200192915050565b6080815260006119d9608083018761199a565b82810360208401526119eb818761199a565b941515604084015250506060015292915050565b600060208284031215611a1157600080fd5b5035919050565b60008060408385031215611a2b57600080fd5b82359150611a3b6020840161176b565b90509250929050565b60a081526000611a5760a083018861199a565b602083820381850152611a6a828961199a565b915083820360408501528187518084528284019150828160051b850101838a0160005b83811015611abb57601f19878403018552611aa983835161199a565b94860194925090850190600101611a8d565b505088151560608801529450611ad19350505050565b8260808301529695505050505050565b60008060408385031215611af457600080fd5b611afd8361176b565b9150611a3b6020840161176b565b60008060408385031215611b1e57600080fd5b611b278361176b565b9150602083013567ffffffffffffffff811115611b4357600080fd5b611b4f858286016117e9565b9150509250929050565b600080600080600060a08688031215611b7157600080fd5b611b7a8661176b565b9450602086013567ffffffffffffffff80821115611b9757600080fd5b611ba389838a016117e9565b9550604088013594506060880135915080821115611bc057600080fd5b611bcc89838a016117e9565b93506080880135915080821115611be257600080fd5b50611bef888289016117e9565b9150509295509295909350565b60208152600060018060a01b03808451166020840152602084015160e06040850152611c2c61010085018261199a565b9050604085015160608501526060850151601f1980868403016080870152611c54838361199a565b925060808701519150808684030160a087015250611c72828261199a565b91505060a085015160c08501528160c08601511660e0850152809250505092915050565b600060018060a01b03808a16835260e06020840152611cb860e084018a61199a565b8860408501528381036060850152611cd0818961199a565b90508381036080850152611ce4818861199a565b60a0850196909652509290921660c0909101525095945050505050565b60008060008060008060c08789031215611d1a57600080fd5b611d238761176b565b9550611d316020880161176b565b945060408701359350606087013592506080870135915060a087013567ffffffffffffffff811115611d6257600080fd5b611d6e89828a016117e9565b9150509295509295509295565b600181811c90821680611d8f57607f821691505b602082108103611daf57634e487b7160e01b600052602260045260246000fd5b50919050565b601f82111561088e57600081815260208120601f850160051c81016020861015611ddc5750805b601f850160051c820191505b81811015611dfb57828155600101611de8565b505050505050565b815167ffffffffffffffff811115611e1d57611e1d6117a2565b611e3181611e2b8454611d7b565b84611db5565b602080601f831160018114611e665760008415611e4e5750858301515b600019600386901b1c1916600185901b178555611dfb565b600085815260208120601f198616915b82811015611e9557888601518255948401946001909101908401611e76565b5085821015611eb35787850151600019600388901b60f8161c191681555b5050505050600190811b01905550565b602081526000611764602083018461199a565b600060018201611ef657634e487b7160e01b600052601160045260246000fd5b5060010190565b604081526000611f10604083018561199a565b90508260208301529392505050565b60008251611f31818460208701611976565b9190910192915050565b60018060a01b0385168152836020820152826040820152608060608201526000611f68608083018461199a565b969550505050505056fe0ce23c3e399818cfee81a7ab0880f714e53d7672b08df0fa62f2843416e1ea09a264697066735822122061267f0617ae24bd794db06ee38e53f69b10964a005879087ecd835afcf19dba64736f6c63430008140033",
  "linkReferences": {},
  "deployedLinkReferences": {}
}