{
  "_format": "hh-sol-artifact-1",
  "contractName": "SimpleAgricultureToken",
  "sourceName": "contracts/SimpleAgricultureToken.sol",
  "abi": [
    {
      "inputs": [
        {
          "internalType": "string",
          "name": "name",
          "type": "string"
        },
        {
          "internalType": "string",
          "name": "symbol",
          "type": "string"
        },
        {
          "internalType": "string",
          "name": "_assetType",
          "type": "string"
        },
        {
          "internalType": "address",
          "name": "_centralAuthority",
          "type": "address"
        },
        {
          "internalType": "address",
          "name": "defaultAdmin",
          "type": "address"
        },
        {
          "internalType": "uint256",
          "name": "_defaultExpiryPeriod",
          "type": "uint256"
        }
      ],
      "stateMutability": "nonpayable",
      "type": "constructor"
    },
    {
      "inputs": [],
      "name": "AccessControlBadConfirmation",
      "type": "error"
    },
    {
      "inputs": [
        {
          "internalType": "address",
          "name": "account",
          "type": "address"
        },
        {
          "internalType": "bytes32",
          "name": "neededRole",
          "type": "bytes32"
        }
      ],
      "name": "AccessControlUnauthorizedAccount",
      "type": "error"
    },
    {
      "inputs": [
        {
          "internalType": "address",
          "name": "spender",
          "type": "address"
        },
        {
          "internalType": "uint256",
          "name": "allowance",
          "type": "uint256"
        },
        {
          "internalType": "uint256",
          "name": "needed",
          "type": "uint256"
        }
      ],
      "name": "ERC20InsufficientAllowance",
      "type": "error"
    },
    {
      "inputs": [
        {
          "internalType": "address",
          "name": "sender",
          "type": "address"
        },
        {
          "internalType": "uint256",
          "name": "balance",
          "type": "uint256"
        },
        {
          "internalType": "uint256",
          "name": "needed",
          "type": "uint256"
        }
      ],
      "name": "ERC20InsufficientBalance",
      "type": "error"
    },
    {
      "inputs": [
        {
          "internalType": "address",
          "name": "approver",
          "type": "address"
        }
      ],
      "name": "ERC20InvalidApprover",
      "type": "error"
    },
    {
      "inputs": [
        {
          "internalType": "address",
          "name": "receiver",
          "type": "address"
        }
      ],
      "name": "ERC20InvalidReceiver",
      "type": "error"
    },
    {
      "inputs": [
        {
          "internalType": "address",
          "name": "sender",
          "type": "address"
        }
      ],
      "name": "ERC20InvalidSender",
      "type": "error"
    },
    {
      "inputs": [
        {
          "internalType": "address",
          "name": "spender",
          "type": "address"
        }
      ],
      "name": "ERC20InvalidSpender",
      "type": "error"
    },
    {
      "inputs": [],
      "name": "EnforcedPause",
      "type": "error"
    },
    {
      "inputs": [],
      "name": "ExpectedPause",
      "type": "error"
    },
    {
      "anonymous": false,
      "inputs": [
        {
          "indexed": true,
          "internalType": "address",
          "name": "owner",
          "type": "address"
        },
        {
          "indexed": true,
          "internalType": "address",
          "name": "spender",
          "type": "address"
        },
        {
          "indexed": false,
          "internalType": "uint256",
          "name": "value",
          "type": "uint256"
        }
      ],
      "name": "Approval",
      "type": "event"
    },
    {
      "anonymous": false,
      "inputs": [
        {
          "indexed": true,
          "internalType": "address",
          "name": "holder",
          "type": "address"
        },
        {
          "indexed": false,
          "internalType": "uint256",
          "name": "amount",
          "type": "uint256"
        }
      ],
      "name": "AssetExpired",
      "type": "event"
    },
    {
      "anonymous": false,
      "inputs": [
        {
          "indexed": true,
          "internalType": "address",
          "name": "holder",
          "type": "address"
        },
        {
          "indexed": false,
          "internalType": "uint256",
          "name": "amount",
          "type": "uint256"
        },
        {
          "indexed": false,
          "internalType": "string",
          "name": "location",
          "type": "string"
        },
        {
          "indexed": false,
          "internalType": "uint256",
          "name": "expiryDate",
          "type": "uint256"
        }
      ],
      "name": "AssetVerified",
      "type": "event"
    },
    {
      "anonymous": false,
      "inputs": [
        {
          "indexed": false,
          "internalType": "uint256",
          "name": "oldPeriod",
          "type": "uint256"
        },
        {
          "indexed": false,
          "internalType": "uint256",
          "name": "newPeriod",
          "type": "uint256"
        }
      ],
      "name": "ExpiryPeriodUpdated",
      "type": "event"
    },
    {
      "anonymous": false,
      "inputs": [
        {
          "indexed": false,
          "internalType": "address",
          "name": "account",
          "type": "address"
        }
      ],
      "name": "Paused",
      "type": "event"
    },
    {
      "anonymous": false,
      "inputs": [
        {
          "indexed": true,
          "internalType": "bytes32",
          "name": "role",
          "type": "bytes32"
        },
        {
          "indexed": true,
          "internalType": "bytes32",
          "name": "previousAdminRole",
          "type": "bytes32"
        },
        {
          "indexed": true,
          "internalType": "bytes32",
          "name": "newAdminRole",
          "type": "bytes32"
        }
      ],
      "name": "RoleAdminChanged",
      "type": "event"
    },
    {
      "anonymous": false,
      "inputs": [
        {
          "indexed": true,
          "internalType": "bytes32",
          "name": "role",
          "type": "bytes32"
        },
        {
          "indexed": true,
          "internalType": "address",
          "name": "account",
          "type": "address"
        },
        {
          "indexed": true,
          "internalType": "address",
          "name": "sender",
          "type": "address"
        }
      ],
      "name": "RoleGranted",
      "type": "event"
    },
    {
      "anonymous": false,
      "inputs": [
        {
          "indexed": true,
          "internalType": "bytes32",
          "name": "role",
          "type": "bytes32"
        },
        {
          "indexed": true,
          "internalType": "address",
          "name": "account",
          "type": "address"
        },
        {
          "indexed": true,
          "internalType": "address",
          "name": "sender",
          "type": "address"
        }
      ],
      "name": "RoleRevoked",
      "type": "event"
    },
    {
      "anonymous": false,
      "inputs": [
        {
          "indexed": true,
          "internalType": "address",
          "name": "from",
          "type": "address"
        },
        {
          "indexed": true,
          "internalType": "address",
          "name": "to",
          "type": "address"
        },
        {
          "indexed": false,
          "internalType": "uint256",
          "name": "value",
          "type": "uint256"
        }
      ],
      "name": "Transfer",
      "type": "event"
    },
    {
      "anonymous": false,
      "inputs": [
        {
          "indexed": false,
          "internalType": "address",
          "name": "account",
          "type": "address"
        }
      ],
      "name": "Unpaused",
      "type": "event"
    },
    {
      "inputs": [],
      "name": "DEFAULT_ADMIN_ROLE",
      "outputs": [
        {
          "internalType": "bytes32",
          "name": "",
          "type": "bytes32"
        }
      ],
      "stateMutability": "view",
      "type": "function"
    },
    {
      "inputs": [],
      "name": "MINTER_ROLE",
      "outputs": [
        {
          "internalType": "bytes32",
          "name": "",
          "type": "bytes32"
        }
      ],
      "stateMutability": "view",
      "type": "function"
    },
    {
      "inputs": [],
      "name": "PAUSER_ROLE",
      "outputs": [
        {
          "internalType": "bytes32",
          "name": "",
          "type": "bytes32"
        }
      ],
      "stateMutability": "view",
      "type": "function"
    },
    {
      "inputs": [
        {
          "internalType": "address",
          "name": "owner",
          "type": "address"
        },
        {
          "internalType": "address",
          "name": "spender",
          "type": "address"
        }
      ],
      "name": "allowance",
      "outputs": [
        {
          "internalType": "uint256",
          "name": "",
          "type": "uint256"
        }
      ],
      "stateMutability": "view",
      "type": "function"
    },
    {
      "inputs": [
        {
          "internalType": "address",
          "name": "spender",
          "type": "address"
        },
        {
          "internalType": "uint256",
          "name": "value",
          "type": "uint256"
        }
      ],
      "name": "approve",
      "outputs": [
        {
          "internalType": "bool",
          "name": "",
          "type": "bool"
        }
      ],
      "stateMutability": "nonpayable",
      "type": "function"
    },
    {
      "inputs": [
        {
          "internalType": "address",
          "name": "holder",
          "type": "address"
        }
      ],
      "name": "areAssetsValid",
      "outputs": [
        {
          "internalType": "bool",
          "name": "",
          "type": "bool"
        }
      ],
      "stateMutability": "view",
      "type": "function"
    },
    {
      "inputs": [
        {
          "internalType": "address",
          "name": "",
          "type": "address"
        }
      ],
      "name": "assetExpiry",
      "outputs": [
        {
          "internalType": "uint256",
          "name": "",
          "type": "uint256"
        }
      ],
      "stateMutability": "view",
      "type": "function"
    },
    {
      "inputs": [],
      "name": "assetType",
      "outputs": [
        {
          "internalType": "string",
          "name": "",
          "type": "string"
        }
      ],
      "stateMutability": "view",
      "type": "function"
    },
    {
      "inputs": [
        {
          "internalType": "address",
          "name": "",
          "type": "address"
        }
      ],
      "name": "assetVerificationStatus",
      "outputs": [
        {
          "internalType": "bool",
          "name": "",
          "type": "bool"
        }
      ],
      "stateMutability": "view",
      "type": "function"
    },
    {
      "inputs": [
        {
          "internalType": "address",
          "name": "account",
          "type": "address"
        }
      ],
      "name": "balanceOf",
      "outputs": [
        {
          "internalType": "uint256",
          "name": "",
          "type": "uint256"
        }
      ],
      "stateMutability": "view",
      "type": "function"
    },
    {
      "inputs": [
        {
          "internalType": "address",
          "name": "holder",
          "type": "address"
        }
      ],
      "name": "burnExpiredTokens",
      "outputs": [],
      "stateMutability": "nonpayable",
      "type": "function"
    },
    {
      "inputs": [],
      "name": "centralAuthority",
      "outputs": [
        {
          "internalType": "address",
          "name": "",
          "type": "address"
        }
      ],
      "stateMutability": "view",
      "type": "function"
    },
    {
      "inputs": [],
      "name": "decimals",
      "outputs": [
        {
          "internalType": "uint8",
          "name": "",
          "type": "uint8"
        }
      ],
      "stateMutability": "view",
      "type": "function"
    },
    {
      "inputs": [],
      "name": "defaultExpiryPeriod",
      "outputs": [
        {
          "internalType": "uint256",
          "name": "",
          "type": "uint256"
        }
      ],
      "stateMutability": "view",
      "type": "function"
    },
    {
      "inputs": [
        {
          "internalType": "address",
          "name": "holder",
          "type": "address"
        }
      ],
      "name": "getHolderInfo",
      "outputs": [
        {
          "internalType": "uint256",
          "name": "balance",
          "type": "uint256"
        },
        {
          "internalType": "bool",
          "name": "verified",
          "type": "bool"
        },
        {
          "internalType": "uint256",
          "name": "expiryDate",
          "type": "uint256"
        },
        {
          "internalType": "uint256",
          "name": "mintDate",
          "type": "uint256"
        },
        {
          "internalType": "bool",
          "name": "expired",
          "type": "bool"
        }
      ],
      "stateMutability": "view",
      "type": "function"
    },
    {
      "inputs": [
        {
          "internalType": "bytes32",
          "name": "role",
          "type": "bytes32"
        }
      ],
      "name": "getRoleAdmin",
      "outputs": [
        {
          "internalType": "bytes32",
          "name": "",
          "type": "bytes32"
        }
      ],
      "stateMutability": "view",
      "type": "function"
    },
    {
      "inputs": [
        {
          "internalType": "address",
          "name": "holder",
          "type": "address"
        }
      ],
      "name": "getTimeUntilExpiry",
      "outputs": [
        {
          "internalType": "uint256",
          "name": "",
          "type": "uint256"
        }
      ],
      "stateMutability": "view",
      "type": "function"
    },
    {
      "inputs": [],
      "name": "getTokenInfo",
      "outputs": [
        {
          "internalType": "string",
          "name": "tokenName",
          "type": "string"
        },
        {
          "internalType": "string",
          "name": "tokenSymbol",
          "type": "string"
        },
        {
          "internalType": "string",
          "name": "asset",
          "type": "string"
        },
        {
          "internalType": "uint256",
          "name": "totalSupply",
          "type": "uint256"
        },
        {
          "internalType": "address",
          "name": "authority",
          "type": "address"
        },
        {
          "internalType": "uint256",
          "name": "defaultExpiry",
          "type": "uint256"
        }
      ],
      "stateMutability": "view",
      "type": "function"
    },
    {
      "inputs": [
        {
          "internalType": "bytes32",
          "name": "role",
          "type": "bytes32"
        },
        {
          "internalType": "address",
          "name": "account",
          "type": "address"
        }
      ],
      "name": "grantRole",
      "outputs": [],
      "stateMutability": "nonpayable",
      "type": "function"
    },
    {
      "inputs": [
        {
          "internalType": "bytes32",
          "name": "role",
          "type": "bytes32"
        },
        {
          "internalType": "address",
          "name": "account",
          "type": "address"
        }
      ],
      "name": "hasRole",
      "outputs": [
        {
          "internalType": "bool",
          "name": "",
          "type": "bool"
        }
      ],
      "stateMutability": "view",
      "type": "function"
    },
    {
      "inputs": [
        {
          "internalType": "address",
          "name": "holder",
          "type": "address"
        }
      ],
      "name": "isExpired",
      "outputs": [
        {
          "internalType": "bool",
          "name": "",
          "type": "bool"
        }
      ],
      "stateMutability": "view",
      "type": "function"
    },
    {
      "inputs": [
        {
          "internalType": "address",
          "name": "to",
          "type": "address"
        },
        {
          "internalType": "uint256",
          "name": "amount",
          "type": "uint256"
        },
        {
          "internalType": "uint256",
          "name": "expiryTimestamp",
          "type": "uint256"
        },
        {
          "internalType": "string",
          "name": "location",
          "type": "string"
        }
      ],
      "name": "mint",
      "outputs": [],
      "stateMutability": "nonpayable",
      "type": "function"
    },
    {
      "inputs": [
        {
          "internalType": "address",
          "name": "",
          "type": "address"
        }
      ],
      "name": "mintTimestamp",
      "outputs": [
        {
          "internalType": "uint256",
          "name": "",
          "type": "uint256"
        }
      ],
      "stateMutability": "view",
      "type": "function"
    },
    {
      "inputs": [
        {
          "internalType": "address",
          "name": "to",
          "type": "address"
        },
        {
          "internalType": "uint256",
          "name": "amount",
          "type": "uint256"
        },
        {
          "internalType": "string",
          "name": "location",
          "type": "string"
        }
      ],
      "name": "mintWithDefaultExpiry",
      "outputs": [],
      "stateMutability": "nonpayable",
      "type": "function"
    },
    {
      "inputs": [],
      "name": "name",
      "outputs": [
        {
          "internalType": "string",
          "name": "",
          "type": "string"
        }
      ],
      "stateMutability": "view",
      "type": "function"
    },
    {
      "inputs": [],
      "name": "pause",
      "outputs": [],
      "stateMutability": "nonpayable",
      "type": "function"
    },
    {
      "inputs": [],
      "name": "paused",
      "outputs": [
        {
          "internalType": "bool",
          "name": "",
          "type": "bool"
        }
      ],
      "stateMutability": "view",
      "type": "function"
    },
    {
      "inputs": [
        {
          "internalType": "bytes32",
          "name": "role",
          "type": "bytes32"
        },
        {
          "internalType": "address",
          "name": "callerConfirmation",
          "type": "address"
        }
      ],
      "name": "renounceRole",
      "outputs": [],
      "stateMutability": "nonpayable",
      "type": "function"
    },
    {
      "inputs": [
        {
          "internalType": "bytes32",
          "name": "role",
          "type": "bytes32"
        },
        {
          "internalType": "address",
          "name": "account",
          "type": "address"
        }
      ],
      "name": "revokeRole",
      "outputs": [],
      "stateMutability": "nonpayable",
      "type": "function"
    },
    {
      "inputs": [
        {
          "internalType": "bytes4",
          "name": "interfaceId",
          "type": "bytes4"
        }
      ],
      "name": "supportsInterface",
      "outputs": [
        {
          "internalType": "bool",
          "name": "",
          "type": "bool"
        }
      ],
      "stateMutability": "view",
      "type": "function"
    },
    {
      "inputs": [],
      "name": "symbol",
      "outputs": [
        {
          "internalType": "string",
          "name": "",
          "type": "string"
        }
      ],
      "stateMutability": "view",
      "type": "function"
    },
    {
      "inputs": [],
      "name": "totalSupply",
      "outputs": [
        {
          "internalType": "uint256",
          "name": "",
          "type": "uint256"
        }
      ],
      "stateMutability": "view",
      "type": "function"
    },
    {
      "inputs": [
        {
          "internalType": "address",
          "name": "to",
          "type": "address"
        },
        {
          "internalType": "uint256",
          "name": "amount",
          "type": "uint256"
        }
      ],
      "name": "transfer",
      "outputs": [
        {
          "internalType": "bool",
          "name": "",
          "type": "bool"
        }
      ],
      "stateMutability": "nonpayable",
      "type": "function"
    },
    {
      "inputs": [
        {
          "internalType": "address",
          "name": "from",
          "type": "address"
        },
        {
          "internalType": "address",
          "name": "to",
          "type": "address"
        },
        {
          "internalType": "uint256",
          "name": "amount",
          "type": "uint256"
        }
      ],
      "name": "transferFrom",
      "outputs": [
        {
          "internalType": "bool",
          "name": "",
          "type": "bool"
        }
      ],
      "stateMutability": "nonpayable",
      "type": "function"
    },
    {
      "inputs": [],
      "name": "unpause",
      "outputs": [],
      "stateMutability": "nonpayable",
      "type": "function"
    },
    {
      "inputs": [
        {
          "internalType": "uint256",
          "name": "newExpiryPeriod",
          "type": "uint256"
        }
      ],
      "name": "updateDefaultExpiryPeriod",
      "outputs": [],
      "stateMutability": "nonpayable",
      "type": "function"
    }
  ],
  "bytecode": "0x60806040523480156200001157600080fd5b506040516200201938038062002019833981016040819052620000349162000290565b85856003620000448382620003de565b506004620000538282620003de565b50600791506200006690508582620003de565b50600880546001600160a01b0319166001600160a01b038516179055600c81905562000094600083620000fb565b50620000c17f9f2df0fed2c77648de5860a4cc508cd0818c85b8b8a1ab4ceeef8d981c8956a684620000fb565b50620000ee7f65d7a28e3265b37a6474929f336521b332c1681b933f6cb9f3376673440d862a83620000fb565b50505050505050620004aa565b60008281526005602090815260408083206001600160a01b038516845290915281205460ff16620001a45760008381526005602090815260408083206001600160a01b03861684529091529020805460ff191660011790556200015b3390565b6001600160a01b0316826001600160a01b0316847f2f8788117e7eff1d82e926ec794901d17c78024a50270940304540a733656f0d60405160405180910390a4506001620001a8565b5060005b92915050565b634e487b7160e01b600052604160045260246000fd5b600082601f830112620001d657600080fd5b81516001600160401b0380821115620001f357620001f3620001ae565b604051601f8301601f19908116603f011681019082821181831017156200021e576200021e620001ae565b816040528381526020925086838588010111156200023b57600080fd5b600091505b838210156200025f578582018301518183018401529082019062000240565b600093810190920192909252949350505050565b80516001600160a01b03811681146200028b57600080fd5b919050565b60008060008060008060c08789031215620002aa57600080fd5b86516001600160401b0380821115620002c257600080fd5b620002d08a838b01620001c4565b97506020890151915080821115620002e757600080fd5b620002f58a838b01620001c4565b965060408901519150808211156200030c57600080fd5b506200031b89828a01620001c4565b9450506200032c6060880162000273565b92506200033c6080880162000273565b915060a087015190509295509295509295565b600181811c908216806200036457607f821691505b6020821081036200038557634e487b7160e01b600052602260045260246000fd5b50919050565b601f821115620003d957600081815260208120601f850160051c81016020861015620003b45750805b601f850160051c820191505b81811015620003d557828155600101620003c0565b5050505b505050565b81516001600160401b03811115620003fa57620003fa620001ae565b62000412816200040b84546200034f565b846200038b565b602080601f8311600181146200044a5760008415620004315750858301515b600019600386901b1c1916600185901b178555620003d5565b600085815260208120601f198616915b828110156200047b578886015182559484019460019091019084016200045a565b50858210156200049a5787850151600019600388901b60f8161c191681555b5050505050600190811b01905550565b611b5f80620004ba6000396000f3fe608060405234801561001057600080fd5b506004361061021c5760003560e01c806391d1485411610125578063bb7fde71116100ad578063db556e3d1161007c578063db556e3d146104bc578063dd62ed3e146104cf578063e63ab1e914610508578063e77ff2f61461052f578063f8e6fafa1461055a57600080fd5b8063bb7fde7114610478578063c43ca5151461048b578063d539139314610494578063d547741f146104a957600080fd5b8063a55bdd81116100f4578063a55bdd8114610405578063a56c2ec314610418578063a9059cbb14610438578063abb1dc441461044b578063ba2eb5411461046557600080fd5b806391d14854146103c257806395d89b41146103d557806397d53803146103dd578063a217fddf146103fd57600080fd5b8063313ce567116101a857806354e4067a1161017757806354e4067a1461033657806358e891a2146103735780635c975abb1461038657806370a08231146103915780638456cb59146103ba57600080fd5b8063313ce5671461030457806336568abe146103135780633f4ba83a146103265780633fe3347a1461032e57600080fd5b8063106912bb116101ef578063106912bb1461028657806318160ddd146102a957806323b872dd146102bb578063248a9ca3146102ce5780632f2ff15d146102f157600080fd5b806301ffc9a714610221578063040480751461024957806306fdde031461025e578063095ea7b314610273575b600080fd5b61023461022f3660046116fd565b61056d565b60405190151581526020015b60405180910390f35b61025c6102573660046117e6565b6105a4565b005b6102666106f6565b6040516102409190611883565b610234610281366004611896565b610788565b6102346102943660046118c0565b60096020526000908152604090205460ff1681565b6002545b604051908152602001610240565b6102346102c93660046118db565b6107a0565b6102ad6102dc366004611917565b60009081526005602052604090206001015490565b61025c6102ff366004611930565b610905565b60405160128152602001610240565b61025c610321366004611930565b610930565b61025c610968565b61026661099d565b6103496103443660046118c0565b610a2b565b6040805195865293151560208601529284019190915260608301521515608082015260a001610240565b6102ad6103813660046118c0565b610afb565b60065460ff16610234565b6102ad61039f3660046118c0565b6001600160a01b031660009081526020819052604090205490565b61025c610b6e565b6102346103d0366004611930565b610ba0565b610266610bcb565b6102ad6103eb3660046118c0565b600b6020526000908152604090205481565b6102ad600081565b61025c610413366004611917565b610bda565b6102ad6104263660046118c0565b600a6020526000908152604090205481565b610234610446366004611896565b610c2b565b610453610d73565b6040516102409695949392919061195c565b6102346104733660046118c0565b610e4b565b61025c6104863660046119bd565b610e8c565b6102ad600c5481565b6102ad600080516020611b0a83398151915281565b61025c6104b7366004611930565b610fb5565b61025c6104ca3660046118c0565b610fda565b6102ad6104dd366004611a1e565b6001600160a01b03918216600090815260016020908152604080832093909416825291909152205490565b6102ad7f65d7a28e3265b37a6474929f336521b332c1681b933f6cb9f3376673440d862a81565b600854610542906001600160a01b031681565b6040516001600160a01b039091168152602001610240565b6102346105683660046118c0565b6110fa565b60006001600160e01b03198216637965db0b60e01b148061059e57506301ffc9a760e01b6001600160e01b03198316145b92915050565b600080516020611b0a8339815191526105bc8161115b565b6001600160a01b03841661060b5760405162461bcd60e51b8152602060048201526011602482015270125b9d985b1a59081c9958da5c1a595b9d607a1b60448201526064015b60405180910390fd5b6000600c541161065d5760405162461bcd60e51b815260206004820152601d60248201527f44656661756c742065787069727920706572696f64206e6f74207365740000006044820152606401610602565b6000600c544261066d9190611a5e565b90506106798585611165565b6001600160a01b0385166000818152600960209081526040808320805460ff19166001179055600a8252808320859055600b90915290819020429055517f562515f64eebf82d5e8d666ca9ee2ad3d098871ea7d7f0df59d4894ec7eee6a5906106e790879087908690611a71565b60405180910390a25050505050565b60606003805461070590611a9a565b80601f016020809104026020016040519081016040528092919081815260200182805461073190611a9a565b801561077e5780601f106107535761010080835404028352916020019161077e565b820191906000526020600020905b81548152906001019060200180831161076157829003601f168201915b5050505050905090565b60003361079681858561119f565b5060019392505050565b60006107ae60065460ff1690565b156107fb5760405162461bcd60e51b815260206004820152601a60248201527f546f6b656e207472616e736665727320617265207061757365640000000000006044820152606401610602565b6001600160a01b03841660009081526020819052604081205411801561083957506001600160a01b03841660009081526009602052604090205460ff165b156108f257604051637c737d7d60e11b81526001600160a01b0385166004820152309063f8e6fafa90602401602060405180830381865afa158015610882573d6000803e3d6000fd5b505050506040513d601f19601f820116820180604052508101906108a69190611ad4565b6108f25760405162461bcd60e51b815260206004820152601d60248201527f417373657473206e6f742076616c696420666f72207472616e736665720000006044820152606401610602565b6108fd8484846111ac565b949350505050565b6000828152600560205260409020600101546109208161115b565b61092a83836111d0565b50505050565b6001600160a01b03811633146109595760405163334bd91960e11b815260040160405180910390fd5b6109638282611264565b505050565b7f65d7a28e3265b37a6474929f336521b332c1681b933f6cb9f3376673440d862a6109928161115b565b61099a6112d1565b50565b600780546109aa90611a9a565b80601f01602080910402602001604051908101604052809291908181526020018280546109d690611a9a565b8015610a235780601f106109f857610100808354040283529160200191610a23565b820191906000526020600020905b815481529060010190602001808311610a0657829003601f168201915b505050505081565b6000806000806000610a52866001600160a01b031660009081526020819052604090205490565b6001600160a01b038716600081815260096020908152604080832054600a835281842054600b9093529281902054905163ba2eb54160e01b8152600481019490945260ff90921692909190309063ba2eb54190602401602060405180830381865afa158015610ac5573d6000803e3d6000fd5b505050506040513d601f19601f82011682018060405250810190610ae99190611ad4565b939a9299509097509550909350915050565b6001600160a01b0381166000908152600a60205260408120548103610b235750600019919050565b6001600160a01b0382166000908152600a60205260409020544210610b4a57506000919050565b6001600160a01b0382166000908152600a602052604090205461059e904290611af6565b7f65d7a28e3265b37a6474929f336521b332c1681b933f6cb9f3376673440d862a610b988161115b565b61099a611323565b60009182526005602090815260408084206001600160a01b0393909316845291905290205460ff1690565b60606004805461070590611a9a565b6000610be58161115b565b600c80549083905560408051828152602081018590527f9b18cce5cae9336e464af2c46a3023f1a5ab67afa581ffd61cb79cc2345bb656910160405180910390a1505050565b6000610c3960065460ff1690565b15610c865760405162461bcd60e51b815260206004820152601a60248201527f546f6b656e207472616e736665727320617265207061757365640000000000006044820152606401610602565b33600090815260208190526040812054118015610cb257503360009081526009602052604090205460ff165b15610d6257604051637c737d7d60e11b8152336004820152309063f8e6fafa90602401602060405180830381865afa158015610cf2573d6000803e3d6000fd5b505050506040513d601f19601f82011682018060405250810190610d169190611ad4565b610d625760405162461bcd60e51b815260206004820152601d60248201527f417373657473206e6f742076616c696420666f72207472616e736665720000006044820152606401610602565b610d6c8383611360565b9392505050565b60608060606000806000610d856106f6565b610d8d610bcb565b6007610d9860025490565b600854600c5483546001600160a01b03909216918490610db790611a9a565b80601f0160208091040260200160405190810160405280929190818152602001828054610de390611a9a565b8015610e305780601f10610e0557610100808354040283529160200191610e30565b820191906000526020600020905b815481529060010190602001808311610e1357829003601f168201915b50505050509350955095509550955095509550909192939495565b6001600160a01b0381166000908152600a60205260408120541580159061059e5750506001600160a01b03166000908152600a602052604090205442101590565b600080516020611b0a833981519152610ea48161115b565b6001600160a01b038516610eee5760405162461bcd60e51b8152602060048201526011602482015270125b9d985b1a59081c9958da5c1a595b9d607a1b6044820152606401610602565b428311610f3d5760405162461bcd60e51b815260206004820152601860248201527f457870697279206d75737420626520696e2066757475726500000000000000006044820152606401610602565b610f478585611165565b6001600160a01b0385166000818152600960209081526040808320805460ff19166001179055600a8252808320879055600b90915290819020429055517f562515f64eebf82d5e8d666ca9ee2ad3d098871ea7d7f0df59d4894ec7eee6a5906106e790879086908890611a71565b600082815260056020526040902060010154610fd08161115b565b61092a8383611264565b600080516020611b0a833981519152610ff28161115b565b6001600160a01b0382166000908152600a60205260409020541580159061103157506001600160a01b0382166000908152600a60205260409020544210155b6110725760405162461bcd60e51b8152602060048201526012602482015271105cdcd95d1cc81b9bdd08195e1c1a5c995960721b6044820152606401610602565b6001600160a01b03821660009081526020819052604090205480156109635761109b838261136e565b6001600160a01b03831660008181526009602052604090819020805460ff19169055517f321e0292cba7758ced5e0673287809433a65d3429e8c4c3aa3e6b973de679285906110ed9084815260200190565b60405180910390a2505050565b6001600160a01b03811660009081526009602052604081205460ff16801561059e57506001600160a01b0382166000908152600a6020526040902054158061059e5750506001600160a01b03166000908152600a6020526040902054421090565b61099a81336113a4565b6001600160a01b03821661118f5760405163ec442f0560e01b815260006004820152602401610602565b61119b600083836113dd565b5050565b6109638383836001611507565b6000336111ba8582856115dc565b6111c5858585611655565b506001949350505050565b60006111dc8383610ba0565b61125c5760008381526005602090815260408083206001600160a01b03861684529091529020805460ff191660011790556112143390565b6001600160a01b0316826001600160a01b0316847f2f8788117e7eff1d82e926ec794901d17c78024a50270940304540a733656f0d60405160405180910390a450600161059e565b50600061059e565b60006112708383610ba0565b1561125c5760008381526005602090815260408083206001600160a01b0386168085529252808320805460ff1916905551339286917ff6391f5c32d9c69d2a47ea670b442974b53935d1edc7fd64eb21e047a839171b9190a450600161059e565b6112d96116b4565b6006805460ff191690557f5db9ee0a495bf2e6ff9c91a7834c1ba4fdd244a5e8aa4e537bd38aeae4b073aa335b6040516001600160a01b03909116815260200160405180910390a1565b61132b6116d9565b6006805460ff191660011790557f62e78cea01bee320cd4e420270b5ea74000d11b0c9f74754ebdbfc544b05a2586113063390565b600033610796818585611655565b6001600160a01b03821661139857604051634b637e8f60e11b815260006004820152602401610602565b61119b826000836113dd565b6113ae8282610ba0565b61119b5760405163e2517d3f60e01b81526001600160a01b038216600482015260248101839052604401610602565b6001600160a01b0383166114085780600260008282546113fd9190611a5e565b9091555061147a9050565b6001600160a01b0383166000908152602081905260409020548181101561145b5760405163391434e360e21b81526001600160a01b03851660048201526024810182905260448101839052606401610602565b6001600160a01b03841660009081526020819052604090209082900390555b6001600160a01b038216611496576002805482900390556114b5565b6001600160a01b03821660009081526020819052604090208054820190555b816001600160a01b0316836001600160a01b03167fddf252ad1be2c89b69c2b068fc378daa952ba7f163c4a11628f55a4df523b3ef836040516114fa91815260200190565b60405180910390a3505050565b6001600160a01b0384166115315760405163e602df0560e01b815260006004820152602401610602565b6001600160a01b03831661155b57604051634a1406b160e11b815260006004820152602401610602565b6001600160a01b038085166000908152600160209081526040808320938716835292905220829055801561092a57826001600160a01b0316846001600160a01b03167f8c5be1e5ebec7d5bd14f71427d1e84f3dd0314c0f7b2291e5b200ac8c7c3b925846040516115ce91815260200190565b60405180910390a350505050565b6001600160a01b0383811660009081526001602090815260408083209386168352929052205460001981101561092a578181101561164657604051637dc7a0d960e11b81526001600160a01b03841660048201526024810182905260448101839052606401610602565b61092a84848484036000611507565b6001600160a01b03831661167f57604051634b637e8f60e11b815260006004820152602401610602565b6001600160a01b0382166116a95760405163ec442f0560e01b815260006004820152602401610602565b6109638383836113dd565b60065460ff166116d757604051638dfc202b60e01b815260040160405180910390fd5b565b60065460ff16156116d75760405163d93c066560e01b815260040160405180910390fd5b60006020828403121561170f57600080fd5b81356001600160e01b031981168114610d6c57600080fd5b80356001600160a01b038116811461173e57600080fd5b919050565b634e487b7160e01b600052604160045260246000fd5b600082601f83011261176a57600080fd5b813567ffffffffffffffff8082111561178557611785611743565b604051601f8301601f19908116603f011681019082821181831017156117ad576117ad611743565b816040528381528660208588010111156117c657600080fd5b836020870160208301376000602085830101528094505050505092915050565b6000806000606084860312156117fb57600080fd5b61180484611727565b925060208401359150604084013567ffffffffffffffff81111561182757600080fd5b61183386828701611759565b9150509250925092565b6000815180845260005b8181101561186357602081850181015186830182015201611847565b506000602082860101526020601f19601f83011685010191505092915050565b602081526000610d6c602083018461183d565b600080604083850312156118a957600080fd5b6118b283611727565b946020939093013593505050565b6000602082840312156118d257600080fd5b610d6c82611727565b6000806000606084860312156118f057600080fd5b6118f984611727565b925061190760208501611727565b9150604084013590509250925092565b60006020828403121561192957600080fd5b5035919050565b6000806040838503121561194357600080fd5b8235915061195360208401611727565b90509250929050565b60c08152600061196f60c083018961183d565b8281036020840152611981818961183d565b90508281036040840152611995818861183d565b606084019690965250506001600160a01b0392909216608083015260a0909101529392505050565b600080600080608085870312156119d357600080fd5b6119dc85611727565b93506020850135925060408501359150606085013567ffffffffffffffff811115611a0657600080fd5b611a1287828801611759565b91505092959194509250565b60008060408385031215611a3157600080fd5b611a3a83611727565b915061195360208401611727565b634e487b7160e01b600052601160045260246000fd5b8082018082111561059e5761059e611a48565b838152606060208201526000611a8a606083018561183d565b9050826040830152949350505050565b600181811c90821680611aae57607f821691505b602082108103611ace57634e487b7160e01b600052602260045260246000fd5b50919050565b600060208284031215611ae657600080fd5b81518015158114610d6c57600080fd5b8181038181111561059e5761059e611a4856fe9f2df0fed2c77648de5860a4cc508cd0818c85b8b8a1ab4ceeef8d981c8956a6a2646970667358221220ad1aa3f89c8582040aa6ed70f06b8ebd14cc1424e9a1b945106fb402d88490a264736f6c63430008140033",
  "linkReferences": {},
  "deployedLinkReferences": {}
}